{
	"contracts/task.sol": {
		"SafeExchange": {
			"abi": [
				{
					"inputs": [],
					"stateMutability": "nonpayable",
					"type": "constructor"
				},
				{
					"anonymous": false,
					"inputs": [
						{
							"indexed": true,
							"internalType": "address",
							"name": "authorizedAddress",
							"type": "address"
						}
					],
					"name": "AddressAdded",
					"type": "event"
				},
				{
					"anonymous": false,
					"inputs": [
						{
							"indexed": true,
							"internalType": "address",
							"name": "authorizedAddress",
							"type": "address"
						}
					],
					"name": "AddressRemoved",
					"type": "event"
				},
				{
					"anonymous": false,
					"inputs": [
						{
							"indexed": true,
							"internalType": "address",
							"name": "from",
							"type": "address"
						},
						{
							"indexed": false,
							"internalType": "uint256",
							"name": "amount",
							"type": "uint256"
						}
					],
					"name": "CoinsReceived",
					"type": "event"
				},
				{
					"anonymous": false,
					"inputs": [
						{
							"indexed": true,
							"internalType": "address",
							"name": "to",
							"type": "address"
						},
						{
							"indexed": false,
							"internalType": "uint256",
							"name": "amount",
							"type": "uint256"
						}
					],
					"name": "CoinsSent",
					"type": "event"
				},
				{
					"inputs": [
						{
							"internalType": "address",
							"name": "_address",
							"type": "address"
						}
					],
					"name": "addAddress",
					"outputs": [],
					"stateMutability": "nonpayable",
					"type": "function"
				},
				{
					"inputs": [],
					"name": "getAddresses",
					"outputs": [
						{
							"internalType": "address[]",
							"name": "",
							"type": "address[]"
						}
					],
					"stateMutability": "view",
					"type": "function"
				},
				{
					"inputs": [],
					"name": "owner",
					"outputs": [
						{
							"internalType": "address",
							"name": "",
							"type": "address"
						}
					],
					"stateMutability": "view",
					"type": "function"
				},
				{
					"inputs": [
						{
							"internalType": "address",
							"name": "_address",
							"type": "address"
						}
					],
					"name": "removeAddress",
					"outputs": [],
					"stateMutability": "nonpayable",
					"type": "function"
				},
				{
					"inputs": [
						{
							"internalType": "address payable",
							"name": "_to",
							"type": "address"
						},
						{
							"internalType": "uint256",
							"name": "_amount",
							"type": "uint256"
						},
						{
							"internalType": "bytes",
							"name": "_signature",
							"type": "bytes"
						}
					],
					"name": "sendCoins",
					"outputs": [],
					"stateMutability": "nonpayable",
					"type": "function"
				},
				{
					"stateMutability": "payable",
					"type": "receive"
				}
			],
			"devdoc": {
				"kind": "dev",
				"methods": {},
				"version": 1
			},
			"evm": {
				"assembly": "    /* \"contracts/task.sol\":205:2357  contract SafeExchange {... */\n  mstore(0x40, 0x80)\n    /* \"contracts/task.sol\":882:933  constructor() {... */\n  callvalue\n  dup1\n  iszero\n  tag_1\n  jumpi\n  0x00\n  dup1\n  revert\ntag_1:\n  pop\n    /* \"contracts/task.sol\":915:925  msg.sender */\n  caller\n    /* \"contracts/task.sol\":907:912  owner */\n  0x00\n  dup1\n    /* \"contracts/task.sol\":907:925  owner = msg.sender */\n  0x0100\n  exp\n  dup2\n  sload\n  dup2\n  0xffffffffffffffffffffffffffffffffffffffff\n  mul\n  not\n  and\n  swap1\n  dup4\n  0xffffffffffffffffffffffffffffffffffffffff\n  and\n  mul\n  or\n  swap1\n  sstore\n  pop\n    /* \"contracts/task.sol\":205:2357  contract SafeExchange {... */\n  dataSize(sub_0)\n  dup1\n  dataOffset(sub_0)\n  0x00\n  codecopy\n  0x00\n  return\nstop\n\nsub_0: assembly {\n        /* \"contracts/task.sol\":205:2357  contract SafeExchange {... */\n      mstore(0x40, 0x80)\n      jumpi(tag_1, lt(calldatasize, 0x04))\n      shr(0xe0, calldataload(0x00))\n      dup1\n      0x38eada1c\n      eq\n      tag_3\n      jumpi\n      dup1\n      0x4ba79dfe\n      eq\n      tag_4\n      jumpi\n      dup1\n      0x710ba507\n      eq\n      tag_5\n      jumpi\n      dup1\n      0x8da5cb5b\n      eq\n      tag_6\n      jumpi\n      dup1\n      0xa39fac12\n      eq\n      tag_7\n      jumpi\n      jump(tag_2)\n    tag_1:\n      jumpi(tag_2, calldatasize)\n        /* \"contracts/task.sol\":998:1008  msg.sender */\n      caller\n        /* \"contracts/task.sol\":984:1020  CoinsReceived(msg.sender, msg.value) */\n      0xffffffffffffffffffffffffffffffffffffffff\n      and\n      0x9073c8b000f3c19584b4624c84cd2e8efd408fd18038ceac9e492b911c3b7073\n        /* \"contracts/task.sol\":1010:1019  msg.value */\n      callvalue\n        /* \"contracts/task.sol\":984:1020  CoinsReceived(msg.sender, msg.value) */\n      mload(0x40)\n      tag_10\n      swap2\n      swap1\n      tag_11\n      jump\t// in\n    tag_10:\n      mload(0x40)\n      dup1\n      swap2\n      sub\n      swap1\n      log2\n        /* \"contracts/task.sol\":205:2357  contract SafeExchange {... */\n      stop\n    tag_2:\n      0x00\n      dup1\n      revert\n        /* \"contracts/task.sol\":1036:1272  function addAddress(address _address) external onlyOwner {... */\n    tag_3:\n      callvalue\n      dup1\n      iszero\n      tag_12\n      jumpi\n      0x00\n      dup1\n      revert\n    tag_12:\n      pop\n      tag_13\n      0x04\n      dup1\n      calldatasize\n      sub\n      dup2\n      add\n      swap1\n      tag_14\n      swap2\n      swap1\n      tag_15\n      jump\t// in\n    tag_14:\n      tag_16\n      jump\t// in\n    tag_13:\n      stop\n        /* \"contracts/task.sol\":1280:1519  function removeAddress(address _address) external onlyOwner {... */\n    tag_4:\n      callvalue\n      dup1\n      iszero\n      tag_17\n      jumpi\n      0x00\n      dup1\n      revert\n    tag_17:\n      pop\n      tag_18\n      0x04\n      dup1\n      calldatasize\n      sub\n      dup2\n      add\n      swap1\n      tag_19\n      swap2\n      swap1\n      tag_15\n      jump\t// in\n    tag_19:\n      tag_20\n      jump\t// in\n    tag_18:\n      stop\n        /* \"contracts/task.sol\":1527:2060  function sendCoins(address payable _to, uint256 _amount, bytes memory _signature) external onlyAuthorized {... */\n    tag_5:\n      callvalue\n      dup1\n      iszero\n      tag_21\n      jumpi\n      0x00\n      dup1\n      revert\n    tag_21:\n      pop\n      tag_22\n      0x04\n      dup1\n      calldatasize\n      sub\n      dup2\n      add\n      swap1\n      tag_23\n      swap2\n      swap1\n      tag_24\n      jump\t// in\n    tag_23:\n      tag_25\n      jump\t// in\n    tag_22:\n      stop\n        /* \"contracts/task.sol\":291:311  address public owner */\n    tag_6:\n      callvalue\n      dup1\n      iszero\n      tag_26\n      jumpi\n      0x00\n      dup1\n      revert\n    tag_26:\n      pop\n      tag_27\n      tag_28\n      jump\t// in\n    tag_27:\n      mload(0x40)\n      tag_29\n      swap2\n      swap1\n      tag_30\n      jump\t// in\n    tag_29:\n      mload(0x40)\n      dup1\n      swap2\n      sub\n      swap1\n      return\n        /* \"contracts/task.sol\":2235:2354  function getAddresses() external view returns (address[] memory) {... */\n    tag_7:\n      callvalue\n      dup1\n      iszero\n      tag_31\n      jumpi\n      0x00\n      dup1\n      revert\n    tag_31:\n      pop\n      tag_32\n      tag_33\n      jump\t// in\n    tag_32:\n      mload(0x40)\n      tag_34\n      swap2\n      swap1\n      tag_35\n      jump\t// in\n    tag_34:\n      mload(0x40)\n      dup1\n      swap2\n      sub\n      swap1\n      return\n        /* \"contracts/task.sol\":1036:1272  function addAddress(address _address) external onlyOwner {... */\n    tag_16:\n        /* \"contracts/task.sol\":679:684  owner */\n      0x00\n      dup1\n      sload\n      swap1\n      0x0100\n      exp\n      swap1\n      div\n      0xffffffffffffffffffffffffffffffffffffffff\n      and\n        /* \"contracts/task.sol\":665:684  msg.sender == owner */\n      0xffffffffffffffffffffffffffffffffffffffff\n      and\n        /* \"contracts/task.sol\":665:675  msg.sender */\n      caller\n        /* \"contracts/task.sol\":665:684  msg.sender == owner */\n      0xffffffffffffffffffffffffffffffffffffffff\n      and\n      eq\n        /* \"contracts/task.sol\":657:711  require(msg.sender == owner, \"Not the contract owner\") */\n      tag_37\n      jumpi\n      mload(0x40)\n      0x08c379a000000000000000000000000000000000000000000000000000000000\n      dup2\n      mstore\n      0x04\n      add\n      tag_38\n      swap1\n      tag_39\n      jump\t// in\n    tag_38:\n      mload(0x40)\n      dup1\n      swap2\n      sub\n      swap1\n      revert\n    tag_37:\n        /* \"contracts/task.sol\":1113:1151  authorizedAddresses.contains(_address) */\n      tag_41\n        /* \"contracts/task.sol\":1142:1150  _address */\n      dup2\n        /* \"contracts/task.sol\":1113:1132  authorizedAddresses */\n      0x01\n        /* \"contracts/task.sol\":1113:1141  authorizedAddresses.contains */\n      tag_42\n      swap1\n        /* \"contracts/task.sol\":1113:1151  authorizedAddresses.contains(_address) */\n      swap2\n      swap1\n      0xffffffff\n      and\n      jump\t// in\n    tag_41:\n        /* \"contracts/task.sol\":1112:1151  !authorizedAddresses.contains(_address) */\n      iszero\n        /* \"contracts/task.sol\":1104:1182  require(!authorizedAddresses.contains(_address), \"Address already authorized\") */\n      tag_43\n      jumpi\n      mload(0x40)\n      0x08c379a000000000000000000000000000000000000000000000000000000000\n      dup2\n      mstore\n      0x04\n      add\n      tag_44\n      swap1\n      tag_45\n      jump\t// in\n    tag_44:\n      mload(0x40)\n      dup1\n      swap2\n      sub\n      swap1\n      revert\n    tag_43:\n        /* \"contracts/task.sol\":1193:1226  authorizedAddresses.add(_address) */\n      tag_46\n        /* \"contracts/task.sol\":1217:1225  _address */\n      dup2\n        /* \"contracts/task.sol\":1193:1212  authorizedAddresses */\n      0x01\n        /* \"contracts/task.sol\":1193:1216  authorizedAddresses.add */\n      tag_47\n      swap1\n        /* \"contracts/task.sol\":1193:1226  authorizedAddresses.add(_address) */\n      swap2\n      swap1\n      0xffffffff\n      and\n      jump\t// in\n    tag_46:\n      pop\n        /* \"contracts/task.sol\":1255:1263  _address */\n      dup1\n        /* \"contracts/task.sol\":1242:1264  AddressAdded(_address) */\n      0xffffffffffffffffffffffffffffffffffffffff\n      and\n      0xa226db3f664042183ee0281230bba26cbf7b5057e50aee7f25a175ff45ce4d7f\n      mload(0x40)\n      mload(0x40)\n      dup1\n      swap2\n      sub\n      swap1\n      log2\n        /* \"contracts/task.sol\":1036:1272  function addAddress(address _address) external onlyOwner {... */\n      pop\n      jump\t// out\n        /* \"contracts/task.sol\":1280:1519  function removeAddress(address _address) external onlyOwner {... */\n    tag_20:\n        /* \"contracts/task.sol\":679:684  owner */\n      0x00\n      dup1\n      sload\n      swap1\n      0x0100\n      exp\n      swap1\n      div\n      0xffffffffffffffffffffffffffffffffffffffff\n      and\n        /* \"contracts/task.sol\":665:684  msg.sender == owner */\n      0xffffffffffffffffffffffffffffffffffffffff\n      and\n        /* \"contracts/task.sol\":665:675  msg.sender */\n      caller\n        /* \"contracts/task.sol\":665:684  msg.sender == owner */\n      0xffffffffffffffffffffffffffffffffffffffff\n      and\n      eq\n        /* \"contracts/task.sol\":657:711  require(msg.sender == owner, \"Not the contract owner\") */\n      tag_49\n      jumpi\n      mload(0x40)\n      0x08c379a000000000000000000000000000000000000000000000000000000000\n      dup2\n      mstore\n      0x04\n      add\n      tag_50\n      swap1\n      tag_39\n      jump\t// in\n    tag_50:\n      mload(0x40)\n      dup1\n      swap2\n      sub\n      swap1\n      revert\n    tag_49:\n        /* \"contracts/task.sol\":1359:1397  authorizedAddresses.contains(_address) */\n      tag_52\n        /* \"contracts/task.sol\":1388:1396  _address */\n      dup2\n        /* \"contracts/task.sol\":1359:1378  authorizedAddresses */\n      0x01\n        /* \"contracts/task.sol\":1359:1387  authorizedAddresses.contains */\n      tag_42\n      swap1\n        /* \"contracts/task.sol\":1359:1397  authorizedAddresses.contains(_address) */\n      swap2\n      swap1\n      0xffffffff\n      and\n      jump\t// in\n    tag_52:\n        /* \"contracts/task.sol\":1351:1424  require(authorizedAddresses.contains(_address), \"Address not authorized\") */\n      tag_53\n      jumpi\n      mload(0x40)\n      0x08c379a000000000000000000000000000000000000000000000000000000000\n      dup2\n      mstore\n      0x04\n      add\n      tag_54\n      swap1\n      tag_55\n      jump\t// in\n    tag_54:\n      mload(0x40)\n      dup1\n      swap2\n      sub\n      swap1\n      revert\n    tag_53:\n        /* \"contracts/task.sol\":1435:1471  authorizedAddresses.remove(_address) */\n      tag_56\n        /* \"contracts/task.sol\":1462:1470  _address */\n      dup2\n        /* \"contracts/task.sol\":1435:1454  authorizedAddresses */\n      0x01\n        /* \"contracts/task.sol\":1435:1461  authorizedAddresses.remove */\n      tag_57\n      swap1\n        /* \"contracts/task.sol\":1435:1471  authorizedAddresses.remove(_address) */\n      swap2\n      swap1\n      0xffffffff\n      and\n      jump\t// in\n    tag_56:\n      pop\n        /* \"contracts/task.sol\":1502:1510  _address */\n      dup1\n        /* \"contracts/task.sol\":1487:1511  AddressRemoved(_address) */\n      0xffffffffffffffffffffffffffffffffffffffff\n      and\n      0x24a12366c02e13fe4a9e03d86a8952e85bb74a456c16e4a18b6d8295700b74bb\n      mload(0x40)\n      mload(0x40)\n      dup1\n      swap2\n      sub\n      swap1\n      log2\n        /* \"contracts/task.sol\":1280:1519  function removeAddress(address _address) external onlyOwner {... */\n      pop\n      jump\t// out\n        /* \"contracts/task.sol\":1527:2060  function sendCoins(address payable _to, uint256 _amount, bytes memory _signature) external onlyAuthorized {... */\n    tag_25:\n        /* \"contracts/task.sol\":784:824  authorizedAddresses.contains(msg.sender) */\n      tag_59\n        /* \"contracts/task.sol\":813:823  msg.sender */\n      caller\n        /* \"contracts/task.sol\":784:803  authorizedAddresses */\n      0x01\n        /* \"contracts/task.sol\":784:812  authorizedAddresses.contains */\n      tag_42\n      swap1\n        /* \"contracts/task.sol\":784:824  authorizedAddresses.contains(msg.sender) */\n      swap2\n      swap1\n      0xffffffff\n      and\n      jump\t// in\n    tag_59:\n        /* \"contracts/task.sol\":776:854  require(authorizedAddresses.contains(msg.sender), \"Address is not authorized\") */\n      tag_60\n      jumpi\n      mload(0x40)\n      0x08c379a000000000000000000000000000000000000000000000000000000000\n      dup2\n      mstore\n      0x04\n      add\n      tag_61\n      swap1\n      tag_62\n      jump\t// in\n    tag_61:\n      mload(0x40)\n      dup1\n      swap2\n      sub\n      swap1\n      revert\n    tag_60:\n        /* \"contracts/task.sol\":1644:1659  bytes32 message */\n      0x00\n        /* \"contracts/task.sol\":1689:1692  _to */\n      dup4\n        /* \"contracts/task.sol\":1694:1701  _amount */\n      dup4\n        /* \"contracts/task.sol\":1711:1715  this */\n      address\n        /* \"contracts/task.sol\":1672:1717  abi.encodePacked(_to, _amount, address(this)) */\n      add(0x20, mload(0x40))\n      tag_64\n      swap4\n      swap3\n      swap2\n      swap1\n      tag_65\n      jump\t// in\n    tag_64:\n      mload(0x40)\n      0x20\n      dup2\n      dup4\n      sub\n      sub\n      dup2\n      mstore\n      swap1\n      0x40\n      mstore\n        /* \"contracts/task.sol\":1662:1718  keccak256(abi.encodePacked(_to, _amount, address(this))) */\n      dup1\n      mload\n      swap1\n      0x20\n      add\n      keccak256\n        /* \"contracts/task.sol\":1644:1718  bytes32 message = keccak256(abi.encodePacked(_to, _amount, address(this))) */\n      swap1\n      pop\n        /* \"contracts/task.sol\":1729:1752  bytes32 prefixedMessage */\n      0x00\n        /* \"contracts/task.sol\":1755:1772  prefixed(message) */\n      tag_66\n        /* \"contracts/task.sol\":1764:1771  message */\n      dup3\n        /* \"contracts/task.sol\":1755:1763  prefixed */\n      tag_67\n        /* \"contracts/task.sol\":1755:1772  prefixed(message) */\n      jump\t// in\n    tag_66:\n        /* \"contracts/task.sol\":1729:1772  bytes32 prefixedMessage = prefixed(message) */\n      swap1\n      pop\n        /* \"contracts/task.sol\":1801:1873  SignatureChecker.isValidSignatureNow(owner, prefixedMessage, _signature) */\n      tag_68\n        /* \"contracts/task.sol\":1838:1843  owner */\n      0x00\n      dup1\n      sload\n      swap1\n      0x0100\n      exp\n      swap1\n      div\n      0xffffffffffffffffffffffffffffffffffffffff\n      and\n        /* \"contracts/task.sol\":1845:1860  prefixedMessage */\n      dup3\n        /* \"contracts/task.sol\":1862:1872  _signature */\n      dup6\n        /* \"contracts/task.sol\":1801:1837  SignatureChecker.isValidSignatureNow */\n      tag_69\n        /* \"contracts/task.sol\":1801:1873  SignatureChecker.isValidSignatureNow(owner, prefixedMessage, _signature) */\n      jump\t// in\n    tag_68:\n        /* \"contracts/task.sol\":1793:1895  require(SignatureChecker.isValidSignatureNow(owner, prefixedMessage, _signature), \"Invalid signature\") */\n      tag_70\n      jumpi\n      mload(0x40)\n      0x08c379a000000000000000000000000000000000000000000000000000000000\n      dup2\n      mstore\n      0x04\n      add\n      tag_71\n      swap1\n      tag_72\n      jump\t// in\n    tag_71:\n      mload(0x40)\n      dup1\n      swap2\n      sub\n      swap1\n      revert\n    tag_70:\n        /* \"contracts/task.sol\":1949:1956  _amount */\n      dup4\n        /* \"contracts/task.sol\":1924:1945  address(this).balance */\n      selfbalance\n        /* \"contracts/task.sol\":1924:1956  address(this).balance >= _amount */\n      lt\n      iszero\n        /* \"contracts/task.sol\":1916:1981  require(address(this).balance >= _amount, \"Insufficient balance\") */\n      tag_73\n      jumpi\n      mload(0x40)\n      0x08c379a000000000000000000000000000000000000000000000000000000000\n      dup2\n      mstore\n      0x04\n      add\n      tag_74\n      swap1\n      tag_75\n      jump\t// in\n    tag_74:\n      mload(0x40)\n      dup1\n      swap2\n      sub\n      swap1\n      revert\n    tag_73:\n        /* \"contracts/task.sol\":1992:1995  _to */\n      dup5\n        /* \"contracts/task.sol\":1992:2004  _to.transfer */\n      0xffffffffffffffffffffffffffffffffffffffff\n      and\n        /* \"contracts/task.sol\":1992:2013  _to.transfer(_amount) */\n      0x08fc\n        /* \"contracts/task.sol\":2005:2012  _amount */\n      dup6\n        /* \"contracts/task.sol\":1992:2013  _to.transfer(_amount) */\n      swap1\n      dup2\n      iszero\n      mul\n      swap1\n      mload(0x40)\n      0x00\n      mload(0x40)\n      dup1\n      dup4\n      sub\n      dup2\n      dup6\n      dup9\n      dup9\n      call\n      swap4\n      pop\n      pop\n      pop\n      pop\n      iszero\n      dup1\n      iszero\n      tag_77\n      jumpi\n      returndatasize\n      0x00\n      dup1\n      returndatacopy\n      revert(0x00, returndatasize)\n    tag_77:\n      pop\n        /* \"contracts/task.sol\":2039:2042  _to */\n      dup5\n        /* \"contracts/task.sol\":2029:2052  CoinsSent(_to, _amount) */\n      0xffffffffffffffffffffffffffffffffffffffff\n      and\n      0x50275da561a32900110589fe9c87283690860c474e12dbfd1a79b8c1868693ce\n        /* \"contracts/task.sol\":2044:2051  _amount */\n      dup6\n        /* \"contracts/task.sol\":2029:2052  CoinsSent(_to, _amount) */\n      mload(0x40)\n      tag_78\n      swap2\n      swap1\n      tag_11\n      jump\t// in\n    tag_78:\n      mload(0x40)\n      dup1\n      swap2\n      sub\n      swap1\n      log2\n        /* \"contracts/task.sol\":1633:2060  {... */\n      pop\n      pop\n        /* \"contracts/task.sol\":1527:2060  function sendCoins(address payable _to, uint256 _amount, bytes memory _signature) external onlyAuthorized {... */\n      pop\n      pop\n      pop\n      jump\t// out\n        /* \"contracts/task.sol\":291:311  address public owner */\n    tag_28:\n      0x00\n      dup1\n      sload\n      swap1\n      0x0100\n      exp\n      swap1\n      div\n      0xffffffffffffffffffffffffffffffffffffffff\n      and\n      dup2\n      jump\t// out\n        /* \"contracts/task.sol\":2235:2354  function getAddresses() external view returns (address[] memory) {... */\n    tag_33:\n        /* \"contracts/task.sol\":2282:2298  address[] memory */\n      0x60\n        /* \"contracts/task.sol\":2318:2346  authorizedAddresses.values() */\n      tag_80\n        /* \"contracts/task.sol\":2318:2337  authorizedAddresses */\n      0x01\n        /* \"contracts/task.sol\":2318:2344  authorizedAddresses.values */\n      tag_81\n        /* \"contracts/task.sol\":2318:2346  authorizedAddresses.values() */\n      jump\t// in\n    tag_80:\n        /* \"contracts/task.sol\":2311:2346  return authorizedAddresses.values() */\n      swap1\n      pop\n        /* \"contracts/task.sol\":2235:2354  function getAddresses() external view returns (address[] memory) {... */\n      swap1\n      jump\t// out\n        /* \"@openzeppelin/contracts/utils/structs/EnumerableSet.sol\":8871:9036  function contains(AddressSet storage set, address value) internal view returns (bool) {... */\n    tag_42:\n        /* \"@openzeppelin/contracts/utils/structs/EnumerableSet.sol\":8951:8955  bool */\n      0x00\n        /* \"@openzeppelin/contracts/utils/structs/EnumerableSet.sol\":8974:9029  _contains(set._inner, bytes32(uint256(uint160(value)))) */\n      tag_83\n        /* \"@openzeppelin/contracts/utils/structs/EnumerableSet.sol\":8984:8987  set */\n      dup4\n        /* \"@openzeppelin/contracts/utils/structs/EnumerableSet.sol\":8984:8994  set._inner */\n      0x00\n      add\n        /* \"@openzeppelin/contracts/utils/structs/EnumerableSet.sol\":9020:9025  value */\n      dup4\n        /* \"@openzeppelin/contracts/utils/structs/EnumerableSet.sol\":9004:9027  uint256(uint160(value)) */\n      0xffffffffffffffffffffffffffffffffffffffff\n      and\n        /* \"@openzeppelin/contracts/utils/structs/EnumerableSet.sol\":8996:9028  bytes32(uint256(uint160(value))) */\n      0x00\n      shl\n        /* \"@openzeppelin/contracts/utils/structs/EnumerableSet.sol\":8974:8983  _contains */\n      tag_84\n        /* \"@openzeppelin/contracts/utils/structs/EnumerableSet.sol\":8974:9029  _contains(set._inner, bytes32(uint256(uint160(value)))) */\n      jump\t// in\n    tag_83:\n        /* \"@openzeppelin/contracts/utils/structs/EnumerableSet.sol\":8967:9029  return _contains(set._inner, bytes32(uint256(uint160(value)))) */\n      swap1\n      pop\n        /* \"@openzeppelin/contracts/utils/structs/EnumerableSet.sol\":8871:9036  function contains(AddressSet storage set, address value) internal view returns (bool) {... */\n      swap3\n      swap2\n      pop\n      pop\n      jump\t// out\n        /* \"@openzeppelin/contracts/utils/structs/EnumerableSet.sol\":8316:8466  function add(AddressSet storage set, address value) internal returns (bool) {... */\n    tag_47:\n        /* \"@openzeppelin/contracts/utils/structs/EnumerableSet.sol\":8386:8390  bool */\n      0x00\n        /* \"@openzeppelin/contracts/utils/structs/EnumerableSet.sol\":8409:8459  _add(set._inner, bytes32(uint256(uint160(value)))) */\n      tag_86\n        /* \"@openzeppelin/contracts/utils/structs/EnumerableSet.sol\":8414:8417  set */\n      dup4\n        /* \"@openzeppelin/contracts/utils/structs/EnumerableSet.sol\":8414:8424  set._inner */\n      0x00\n      add\n        /* \"@openzeppelin/contracts/utils/structs/EnumerableSet.sol\":8450:8455  value */\n      dup4\n        /* \"@openzeppelin/contracts/utils/structs/EnumerableSet.sol\":8434:8457  uint256(uint160(value)) */\n      0xffffffffffffffffffffffffffffffffffffffff\n      and\n        /* \"@openzeppelin/contracts/utils/structs/EnumerableSet.sol\":8426:8458  bytes32(uint256(uint160(value))) */\n      0x00\n      shl\n        /* \"@openzeppelin/contracts/utils/structs/EnumerableSet.sol\":8409:8413  _add */\n      tag_87\n        /* \"@openzeppelin/contracts/utils/structs/EnumerableSet.sol\":8409:8459  _add(set._inner, bytes32(uint256(uint160(value)))) */\n      jump\t// in\n    tag_86:\n        /* \"@openzeppelin/contracts/utils/structs/EnumerableSet.sol\":8402:8459  return _add(set._inner, bytes32(uint256(uint160(value)))) */\n      swap1\n      pop\n        /* \"@openzeppelin/contracts/utils/structs/EnumerableSet.sol\":8316:8466  function add(AddressSet storage set, address value) internal returns (bool) {... */\n      swap3\n      swap2\n      pop\n      pop\n      jump\t// out\n        /* \"@openzeppelin/contracts/utils/structs/EnumerableSet.sol\":8634:8790  function remove(AddressSet storage set, address value) internal returns (bool) {... */\n    tag_57:\n        /* \"@openzeppelin/contracts/utils/structs/EnumerableSet.sol\":8707:8711  bool */\n      0x00\n        /* \"@openzeppelin/contracts/utils/structs/EnumerableSet.sol\":8730:8783  _remove(set._inner, bytes32(uint256(uint160(value)))) */\n      tag_89\n        /* \"@openzeppelin/contracts/utils/structs/EnumerableSet.sol\":8738:8741  set */\n      dup4\n        /* \"@openzeppelin/contracts/utils/structs/EnumerableSet.sol\":8738:8748  set._inner */\n      0x00\n      add\n        /* \"@openzeppelin/contracts/utils/structs/EnumerableSet.sol\":8774:8779  value */\n      dup4\n        /* \"@openzeppelin/contracts/utils/structs/EnumerableSet.sol\":8758:8781  uint256(uint160(value)) */\n      0xffffffffffffffffffffffffffffffffffffffff\n      and\n        /* \"@openzeppelin/contracts/utils/structs/EnumerableSet.sol\":8750:8782  bytes32(uint256(uint160(value))) */\n      0x00\n      shl\n        /* \"@openzeppelin/contracts/utils/structs/EnumerableSet.sol\":8730:8737  _remove */\n      tag_90\n        /* \"@openzeppelin/contracts/utils/structs/EnumerableSet.sol\":8730:8783  _remove(set._inner, bytes32(uint256(uint160(value)))) */\n      jump\t// in\n    tag_89:\n        /* \"@openzeppelin/contracts/utils/structs/EnumerableSet.sol\":8723:8783  return _remove(set._inner, bytes32(uint256(uint160(value)))) */\n      swap1\n      pop\n        /* \"@openzeppelin/contracts/utils/structs/EnumerableSet.sol\":8634:8790  function remove(AddressSet storage set, address value) internal returns (bool) {... */\n      swap3\n      swap2\n      pop\n      pop\n      jump\t// out\n        /* \"contracts/task.sol\":2068:2227  function prefixed(bytes32 hash) internal pure returns (bytes32) {... */\n    tag_67:\n        /* \"contracts/task.sol\":2123:2130  bytes32 */\n      0x00\n        /* \"contracts/task.sol\":2213:2217  hash */\n      dup2\n        /* \"contracts/task.sol\":2160:2218  abi.encodePacked(\"\\x19Ethereum Signed Message:\\n32\", hash) */\n      add(0x20, mload(0x40))\n      tag_92\n      swap2\n      swap1\n      tag_93\n      jump\t// in\n    tag_92:\n      mload(0x40)\n      0x20\n      dup2\n      dup4\n      sub\n      sub\n      dup2\n      mstore\n      swap1\n      0x40\n      mstore\n        /* \"contracts/task.sol\":2150:2219  keccak256(abi.encodePacked(\"\\x19Ethereum Signed Message:\\n32\", hash)) */\n      dup1\n      mload\n      swap1\n      0x20\n      add\n      keccak256\n        /* \"contracts/task.sol\":2143:2219  return keccak256(abi.encodePacked(\"\\x19Ethereum Signed Message:\\n32\", hash)) */\n      swap1\n      pop\n        /* \"contracts/task.sol\":2068:2227  function prefixed(bytes32 hash) internal pure returns (bytes32) {... */\n      swap2\n      swap1\n      pop\n      jump\t// out\n        /* \"@openzeppelin/contracts/utils/cryptography/SignatureChecker.sol\":1039:1407  function isValidSignatureNow(address signer, bytes32 hash, bytes memory signature) internal view returns (bool) {... */\n    tag_69:\n        /* \"@openzeppelin/contracts/utils/cryptography/SignatureChecker.sol\":1145:1149  bool */\n      0x00\n        /* \"@openzeppelin/contracts/utils/cryptography/SignatureChecker.sol\":1162:1179  address recovered */\n      dup1\n        /* \"@openzeppelin/contracts/utils/cryptography/SignatureChecker.sol\":1181:1205  ECDSA.RecoverError error */\n      0x00\n        /* \"@openzeppelin/contracts/utils/cryptography/SignatureChecker.sol\":1211:1244  ECDSA.tryRecover(hash, signature) */\n      tag_95\n        /* \"@openzeppelin/contracts/utils/cryptography/SignatureChecker.sol\":1228:1232  hash */\n      dup6\n        /* \"@openzeppelin/contracts/utils/cryptography/SignatureChecker.sol\":1234:1243  signature */\n      dup6\n        /* \"@openzeppelin/contracts/utils/cryptography/SignatureChecker.sol\":1211:1227  ECDSA.tryRecover */\n      tag_96\n        /* \"@openzeppelin/contracts/utils/cryptography/SignatureChecker.sol\":1211:1244  ECDSA.tryRecover(hash, signature) */\n      jump\t// in\n    tag_95:\n        /* \"@openzeppelin/contracts/utils/cryptography/SignatureChecker.sol\":1161:1244  (address recovered, ECDSA.RecoverError error, ) = ECDSA.tryRecover(hash, signature) */\n      pop\n      swap2\n      pop\n      swap2\n      pop\n        /* \"@openzeppelin/contracts/utils/cryptography/SignatureChecker.sol\":1283:1309  ECDSA.RecoverError.NoError */\n      0x00\n        /* \"@openzeppelin/contracts/utils/cryptography/SignatureChecker.sol\":1274:1309  error == ECDSA.RecoverError.NoError */\n      0x03\n      dup2\n      gt\n      iszero\n      tag_97\n      jumpi\n      tag_98\n      tag_99\n      jump\t// in\n    tag_98:\n    tag_97:\n        /* \"@openzeppelin/contracts/utils/cryptography/SignatureChecker.sol\":1274:1279  error */\n      dup2\n        /* \"@openzeppelin/contracts/utils/cryptography/SignatureChecker.sol\":1274:1309  error == ECDSA.RecoverError.NoError */\n      0x03\n      dup2\n      gt\n      iszero\n      tag_100\n      jumpi\n      tag_101\n      tag_99\n      jump\t// in\n    tag_101:\n    tag_100:\n      eq\n        /* \"@openzeppelin/contracts/utils/cryptography/SignatureChecker.sol\":1274:1332  error == ECDSA.RecoverError.NoError && recovered == signer */\n      dup1\n      iszero\n      tag_102\n      jumpi\n      pop\n        /* \"@openzeppelin/contracts/utils/cryptography/SignatureChecker.sol\":1326:1332  signer */\n      dup6\n        /* \"@openzeppelin/contracts/utils/cryptography/SignatureChecker.sol\":1313:1332  recovered == signer */\n      0xffffffffffffffffffffffffffffffffffffffff\n      and\n        /* \"@openzeppelin/contracts/utils/cryptography/SignatureChecker.sol\":1313:1322  recovered */\n      dup3\n        /* \"@openzeppelin/contracts/utils/cryptography/SignatureChecker.sol\":1313:1332  recovered == signer */\n      0xffffffffffffffffffffffffffffffffffffffff\n      and\n      eq\n        /* \"@openzeppelin/contracts/utils/cryptography/SignatureChecker.sol\":1274:1332  error == ECDSA.RecoverError.NoError && recovered == signer */\n    tag_102:\n        /* \"@openzeppelin/contracts/utils/cryptography/SignatureChecker.sol\":1273:1400  (error == ECDSA.RecoverError.NoError && recovered == signer) ||... */\n      dup1\n      tag_103\n      jumpi\n      pop\n        /* \"@openzeppelin/contracts/utils/cryptography/SignatureChecker.sol\":1349:1400  isValidERC1271SignatureNow(signer, hash, signature) */\n      tag_104\n        /* \"@openzeppelin/contracts/utils/cryptography/SignatureChecker.sol\":1376:1382  signer */\n      dup7\n        /* \"@openzeppelin/contracts/utils/cryptography/SignatureChecker.sol\":1384:1388  hash */\n      dup7\n        /* \"@openzeppelin/contracts/utils/cryptography/SignatureChecker.sol\":1390:1399  signature */\n      dup7\n        /* \"@openzeppelin/contracts/utils/cryptography/SignatureChecker.sol\":1349:1375  isValidERC1271SignatureNow */\n      tag_105\n        /* \"@openzeppelin/contracts/utils/cryptography/SignatureChecker.sol\":1349:1400  isValidERC1271SignatureNow(signer, hash, signature) */\n      jump\t// in\n    tag_104:\n        /* \"@openzeppelin/contracts/utils/cryptography/SignatureChecker.sol\":1273:1400  (error == ECDSA.RecoverError.NoError && recovered == signer) ||... */\n    tag_103:\n        /* \"@openzeppelin/contracts/utils/cryptography/SignatureChecker.sol\":1254:1400  return... */\n      swap3\n      pop\n      pop\n      pop\n        /* \"@openzeppelin/contracts/utils/cryptography/SignatureChecker.sol\":1039:1407  function isValidSignatureNow(address signer, bytes32 hash, bytes memory signature) internal view returns (bool) {... */\n      swap4\n      swap3\n      pop\n      pop\n      pop\n      jump\t// out\n        /* \"@openzeppelin/contracts/utils/structs/EnumerableSet.sol\":10270:10570  function values(AddressSet storage set) internal view returns (address[] memory) {... */\n    tag_81:\n        /* \"@openzeppelin/contracts/utils/structs/EnumerableSet.sol\":10333:10349  address[] memory */\n      0x60\n        /* \"@openzeppelin/contracts/utils/structs/EnumerableSet.sol\":10361:10383  bytes32[] memory store */\n      0x00\n        /* \"@openzeppelin/contracts/utils/structs/EnumerableSet.sol\":10386:10405  _values(set._inner) */\n      tag_107\n        /* \"@openzeppelin/contracts/utils/structs/EnumerableSet.sol\":10394:10397  set */\n      dup4\n        /* \"@openzeppelin/contracts/utils/structs/EnumerableSet.sol\":10394:10404  set._inner */\n      0x00\n      add\n        /* \"@openzeppelin/contracts/utils/structs/EnumerableSet.sol\":10386:10393  _values */\n      tag_108\n        /* \"@openzeppelin/contracts/utils/structs/EnumerableSet.sol\":10386:10405  _values(set._inner) */\n      jump\t// in\n    tag_107:\n        /* \"@openzeppelin/contracts/utils/structs/EnumerableSet.sol\":10361:10405  bytes32[] memory store = _values(set._inner) */\n      swap1\n      pop\n        /* \"@openzeppelin/contracts/utils/structs/EnumerableSet.sol\":10415:10438  address[] memory result */\n      0x60\n        /* \"@openzeppelin/contracts/utils/structs/EnumerableSet.sol\":10525:10530  store */\n      dup2\n        /* \"@openzeppelin/contracts/utils/structs/EnumerableSet.sol\":10515:10530  result := store */\n      swap1\n      pop\n        /* \"@openzeppelin/contracts/utils/structs/EnumerableSet.sol\":10557:10563  result */\n      dup1\n        /* \"@openzeppelin/contracts/utils/structs/EnumerableSet.sol\":10550:10563  return result */\n      swap3\n      pop\n      pop\n      pop\n        /* \"@openzeppelin/contracts/utils/structs/EnumerableSet.sol\":10270:10570  function values(AddressSet storage set) internal view returns (address[] memory) {... */\n      swap2\n      swap1\n      pop\n      jump\t// out\n        /* \"@openzeppelin/contracts/utils/structs/EnumerableSet.sol\":4264:4393  function _contains(Set storage set, bytes32 value) private view returns (bool) {... */\n    tag_84:\n        /* \"@openzeppelin/contracts/utils/structs/EnumerableSet.sol\":4337:4341  bool */\n      0x00\n        /* \"@openzeppelin/contracts/utils/structs/EnumerableSet.sol\":4385:4386  0 */\n      dup1\n        /* \"@openzeppelin/contracts/utils/structs/EnumerableSet.sol\":4360:4363  set */\n      dup4\n        /* \"@openzeppelin/contracts/utils/structs/EnumerableSet.sol\":4360:4374  set._positions */\n      0x01\n      add\n        /* \"@openzeppelin/contracts/utils/structs/EnumerableSet.sol\":4360:4381  set._positions[value] */\n      0x00\n        /* \"@openzeppelin/contracts/utils/structs/EnumerableSet.sol\":4375:4380  value */\n      dup5\n        /* \"@openzeppelin/contracts/utils/structs/EnumerableSet.sol\":4360:4381  set._positions[value] */\n      dup2\n      mstore\n      0x20\n      add\n      swap1\n      dup2\n      mstore\n      0x20\n      add\n      0x00\n      keccak256\n      sload\n        /* \"@openzeppelin/contracts/utils/structs/EnumerableSet.sol\":4360:4386  set._positions[value] != 0 */\n      eq\n      iszero\n        /* \"@openzeppelin/contracts/utils/structs/EnumerableSet.sol\":4353:4386  return set._positions[value] != 0 */\n      swap1\n      pop\n        /* \"@openzeppelin/contracts/utils/structs/EnumerableSet.sol\":4264:4393  function _contains(Set storage set, bytes32 value) private view returns (bool) {... */\n      swap3\n      swap2\n      pop\n      pop\n      jump\t// out\n        /* \"@openzeppelin/contracts/utils/structs/EnumerableSet.sol\":2241:2647  function _add(Set storage set, bytes32 value) private returns (bool) {... */\n    tag_87:\n        /* \"@openzeppelin/contracts/utils/structs/EnumerableSet.sol\":2304:2308  bool */\n      0x00\n        /* \"@openzeppelin/contracts/utils/structs/EnumerableSet.sol\":2325:2346  _contains(set, value) */\n      tag_111\n        /* \"@openzeppelin/contracts/utils/structs/EnumerableSet.sol\":2335:2338  set */\n      dup4\n        /* \"@openzeppelin/contracts/utils/structs/EnumerableSet.sol\":2340:2345  value */\n      dup4\n        /* \"@openzeppelin/contracts/utils/structs/EnumerableSet.sol\":2325:2334  _contains */\n      tag_84\n        /* \"@openzeppelin/contracts/utils/structs/EnumerableSet.sol\":2325:2346  _contains(set, value) */\n      jump\t// in\n    tag_111:\n        /* \"@openzeppelin/contracts/utils/structs/EnumerableSet.sol\":2320:2641  if (!_contains(set, value)) {... */\n      tag_112\n      jumpi\n        /* \"@openzeppelin/contracts/utils/structs/EnumerableSet.sol\":2362:2365  set */\n      dup3\n        /* \"@openzeppelin/contracts/utils/structs/EnumerableSet.sol\":2362:2373  set._values */\n      0x00\n      add\n        /* \"@openzeppelin/contracts/utils/structs/EnumerableSet.sol\":2379:2384  value */\n      dup3\n        /* \"@openzeppelin/contracts/utils/structs/EnumerableSet.sol\":2362:2385  set._values.push(value) */\n      swap1\n      dup1\n      0x01\n      dup2\n      sload\n      add\n      dup1\n      dup3\n      sstore\n      dup1\n      swap2\n      pop\n      pop\n      0x01\n      swap1\n      sub\n      swap1\n      0x00\n      mstore\n      keccak256(0x00, 0x20)\n      add\n      0x00\n      swap1\n      swap2\n      swap1\n      swap2\n      swap1\n      swap2\n      pop\n      sstore\n        /* \"@openzeppelin/contracts/utils/structs/EnumerableSet.sol\":2544:2547  set */\n      dup3\n        /* \"@openzeppelin/contracts/utils/structs/EnumerableSet.sol\":2544:2555  set._values */\n      0x00\n      add\n        /* \"@openzeppelin/contracts/utils/structs/EnumerableSet.sol\":2544:2562  set._values.length */\n      dup1\n      sload\n      swap1\n      pop\n        /* \"@openzeppelin/contracts/utils/structs/EnumerableSet.sol\":2520:2523  set */\n      dup4\n        /* \"@openzeppelin/contracts/utils/structs/EnumerableSet.sol\":2520:2534  set._positions */\n      0x01\n      add\n        /* \"@openzeppelin/contracts/utils/structs/EnumerableSet.sol\":2520:2541  set._positions[value] */\n      0x00\n        /* \"@openzeppelin/contracts/utils/structs/EnumerableSet.sol\":2535:2540  value */\n      dup5\n        /* \"@openzeppelin/contracts/utils/structs/EnumerableSet.sol\":2520:2541  set._positions[value] */\n      dup2\n      mstore\n      0x20\n      add\n      swap1\n      dup2\n      mstore\n      0x20\n      add\n      0x00\n      keccak256\n        /* \"@openzeppelin/contracts/utils/structs/EnumerableSet.sol\":2520:2562  set._positions[value] = set._values.length */\n      dup2\n      swap1\n      sstore\n      pop\n        /* \"@openzeppelin/contracts/utils/structs/EnumerableSet.sol\":2583:2587  true */\n      0x01\n        /* \"@openzeppelin/contracts/utils/structs/EnumerableSet.sol\":2576:2587  return true */\n      swap1\n      pop\n      jump(tag_110)\n        /* \"@openzeppelin/contracts/utils/structs/EnumerableSet.sol\":2320:2641  if (!_contains(set, value)) {... */\n    tag_112:\n        /* \"@openzeppelin/contracts/utils/structs/EnumerableSet.sol\":2625:2630  false */\n      0x00\n        /* \"@openzeppelin/contracts/utils/structs/EnumerableSet.sol\":2618:2630  return false */\n      swap1\n      pop\n        /* \"@openzeppelin/contracts/utils/structs/EnumerableSet.sol\":2241:2647  function _add(Set storage set, bytes32 value) private returns (bool) {... */\n    tag_110:\n      swap3\n      swap2\n      pop\n      pop\n      jump\t// out\n        /* \"@openzeppelin/contracts/utils/structs/EnumerableSet.sol\":2815:4183  function _remove(Set storage set, bytes32 value) private returns (bool) {... */\n    tag_90:\n        /* \"@openzeppelin/contracts/utils/structs/EnumerableSet.sol\":2881:2885  bool */\n      0x00\n        /* \"@openzeppelin/contracts/utils/structs/EnumerableSet.sol\":2991:3007  uint256 position */\n      dup1\n        /* \"@openzeppelin/contracts/utils/structs/EnumerableSet.sol\":3010:3013  set */\n      dup4\n        /* \"@openzeppelin/contracts/utils/structs/EnumerableSet.sol\":3010:3024  set._positions */\n      0x01\n      add\n        /* \"@openzeppelin/contracts/utils/structs/EnumerableSet.sol\":3010:3031  set._positions[value] */\n      0x00\n        /* \"@openzeppelin/contracts/utils/structs/EnumerableSet.sol\":3025:3030  value */\n      dup5\n        /* \"@openzeppelin/contracts/utils/structs/EnumerableSet.sol\":3010:3031  set._positions[value] */\n      dup2\n      mstore\n      0x20\n      add\n      swap1\n      dup2\n      mstore\n      0x20\n      add\n      0x00\n      keccak256\n      sload\n        /* \"@openzeppelin/contracts/utils/structs/EnumerableSet.sol\":2991:3031  uint256 position = set._positions[value] */\n      swap1\n      pop\n        /* \"@openzeppelin/contracts/utils/structs/EnumerableSet.sol\":3058:3059  0 */\n      0x00\n        /* \"@openzeppelin/contracts/utils/structs/EnumerableSet.sol\":3046:3054  position */\n      dup2\n        /* \"@openzeppelin/contracts/utils/structs/EnumerableSet.sol\":3046:3059  position != 0 */\n      eq\n        /* \"@openzeppelin/contracts/utils/structs/EnumerableSet.sol\":3042:4177  if (position != 0) {... */\n      tag_116\n      jumpi\n        /* \"@openzeppelin/contracts/utils/structs/EnumerableSet.sol\":3413:3431  uint256 valueIndex */\n      0x00\n        /* \"@openzeppelin/contracts/utils/structs/EnumerableSet.sol\":3445:3446  1 */\n      0x01\n        /* \"@openzeppelin/contracts/utils/structs/EnumerableSet.sol\":3434:3442  position */\n      dup3\n        /* \"@openzeppelin/contracts/utils/structs/EnumerableSet.sol\":3434:3446  position - 1 */\n      tag_117\n      swap2\n      swap1\n      tag_118\n      jump\t// in\n    tag_117:\n        /* \"@openzeppelin/contracts/utils/structs/EnumerableSet.sol\":3413:3446  uint256 valueIndex = position - 1 */\n      swap1\n      pop\n        /* \"@openzeppelin/contracts/utils/structs/EnumerableSet.sol\":3460:3477  uint256 lastIndex */\n      0x00\n        /* \"@openzeppelin/contracts/utils/structs/EnumerableSet.sol\":3501:3502  1 */\n      0x01\n        /* \"@openzeppelin/contracts/utils/structs/EnumerableSet.sol\":3480:3483  set */\n      dup7\n        /* \"@openzeppelin/contracts/utils/structs/EnumerableSet.sol\":3480:3491  set._values */\n      0x00\n      add\n        /* \"@openzeppelin/contracts/utils/structs/EnumerableSet.sol\":3480:3498  set._values.length */\n      dup1\n      sload\n      swap1\n      pop\n        /* \"@openzeppelin/contracts/utils/structs/EnumerableSet.sol\":3480:3502  set._values.length - 1 */\n      tag_119\n      swap2\n      swap1\n      tag_118\n      jump\t// in\n    tag_119:\n        /* \"@openzeppelin/contracts/utils/structs/EnumerableSet.sol\":3460:3502  uint256 lastIndex = set._values.length - 1 */\n      swap1\n      pop\n        /* \"@openzeppelin/contracts/utils/structs/EnumerableSet.sol\":3535:3544  lastIndex */\n      dup1\n        /* \"@openzeppelin/contracts/utils/structs/EnumerableSet.sol\":3521:3531  valueIndex */\n      dup3\n        /* \"@openzeppelin/contracts/utils/structs/EnumerableSet.sol\":3521:3544  valueIndex != lastIndex */\n      eq\n        /* \"@openzeppelin/contracts/utils/structs/EnumerableSet.sol\":3517:3895  if (valueIndex != lastIndex) {... */\n      tag_120\n      jumpi\n        /* \"@openzeppelin/contracts/utils/structs/EnumerableSet.sol\":3564:3581  bytes32 lastValue */\n      0x00\n        /* \"@openzeppelin/contracts/utils/structs/EnumerableSet.sol\":3584:3587  set */\n      dup7\n        /* \"@openzeppelin/contracts/utils/structs/EnumerableSet.sol\":3584:3595  set._values */\n      0x00\n      add\n        /* \"@openzeppelin/contracts/utils/structs/EnumerableSet.sol\":3596:3605  lastIndex */\n      dup3\n        /* \"@openzeppelin/contracts/utils/structs/EnumerableSet.sol\":3584:3606  set._values[lastIndex] */\n      dup2\n      sload\n      dup2\n      lt\n      tag_121\n      jumpi\n      tag_122\n      tag_123\n      jump\t// in\n    tag_122:\n    tag_121:\n      swap1\n      0x00\n      mstore\n      keccak256(0x00, 0x20)\n      add\n      sload\n        /* \"@openzeppelin/contracts/utils/structs/EnumerableSet.sol\":3564:3606  bytes32 lastValue = set._values[lastIndex] */\n      swap1\n      pop\n        /* \"@openzeppelin/contracts/utils/structs/EnumerableSet.sol\":3731:3740  lastValue */\n      dup1\n        /* \"@openzeppelin/contracts/utils/structs/EnumerableSet.sol\":3705:3708  set */\n      dup8\n        /* \"@openzeppelin/contracts/utils/structs/EnumerableSet.sol\":3705:3716  set._values */\n      0x00\n      add\n        /* \"@openzeppelin/contracts/utils/structs/EnumerableSet.sol\":3717:3727  valueIndex */\n      dup5\n        /* \"@openzeppelin/contracts/utils/structs/EnumerableSet.sol\":3705:3728  set._values[valueIndex] */\n      dup2\n      sload\n      dup2\n      lt\n      tag_125\n      jumpi\n      tag_126\n      tag_123\n      jump\t// in\n    tag_126:\n    tag_125:\n      swap1\n      0x00\n      mstore\n      keccak256(0x00, 0x20)\n      add\n        /* \"@openzeppelin/contracts/utils/structs/EnumerableSet.sol\":3705:3740  set._values[valueIndex] = lastValue */\n      dup2\n      swap1\n      sstore\n      pop\n        /* \"@openzeppelin/contracts/utils/structs/EnumerableSet.sol\":3872:3880  position */\n      dup4\n        /* \"@openzeppelin/contracts/utils/structs/EnumerableSet.sol\":3844:3847  set */\n      dup8\n        /* \"@openzeppelin/contracts/utils/structs/EnumerableSet.sol\":3844:3858  set._positions */\n      0x01\n      add\n        /* \"@openzeppelin/contracts/utils/structs/EnumerableSet.sol\":3844:3869  set._positions[lastValue] */\n      0x00\n        /* \"@openzeppelin/contracts/utils/structs/EnumerableSet.sol\":3859:3868  lastValue */\n      dup4\n        /* \"@openzeppelin/contracts/utils/structs/EnumerableSet.sol\":3844:3869  set._positions[lastValue] */\n      dup2\n      mstore\n      0x20\n      add\n      swap1\n      dup2\n      mstore\n      0x20\n      add\n      0x00\n      keccak256\n        /* \"@openzeppelin/contracts/utils/structs/EnumerableSet.sol\":3844:3880  set._positions[lastValue] = position */\n      dup2\n      swap1\n      sstore\n      pop\n        /* \"@openzeppelin/contracts/utils/structs/EnumerableSet.sol\":3546:3895  {... */\n      pop\n        /* \"@openzeppelin/contracts/utils/structs/EnumerableSet.sol\":3517:3895  if (valueIndex != lastIndex) {... */\n    tag_120:\n        /* \"@openzeppelin/contracts/utils/structs/EnumerableSet.sol\":3973:3976  set */\n      dup6\n        /* \"@openzeppelin/contracts/utils/structs/EnumerableSet.sol\":3973:3984  set._values */\n      0x00\n      add\n        /* \"@openzeppelin/contracts/utils/structs/EnumerableSet.sol\":3973:3990  set._values.pop() */\n      dup1\n      sload\n      dup1\n      tag_128\n      jumpi\n      tag_129\n      tag_130\n      jump\t// in\n    tag_129:\n    tag_128:\n      0x01\n      swap1\n      sub\n      dup2\n      dup2\n      swap1\n      0x00\n      mstore\n      keccak256(0x00, 0x20)\n      add\n      0x00\n      swap1\n      sstore\n      swap1\n      sstore\n        /* \"@openzeppelin/contracts/utils/structs/EnumerableSet.sol\":4076:4079  set */\n      dup6\n        /* \"@openzeppelin/contracts/utils/structs/EnumerableSet.sol\":4076:4090  set._positions */\n      0x01\n      add\n        /* \"@openzeppelin/contracts/utils/structs/EnumerableSet.sol\":4076:4097  set._positions[value] */\n      0x00\n        /* \"@openzeppelin/contracts/utils/structs/EnumerableSet.sol\":4091:4096  value */\n      dup7\n        /* \"@openzeppelin/contracts/utils/structs/EnumerableSet.sol\":4076:4097  set._positions[value] */\n      dup2\n      mstore\n      0x20\n      add\n      swap1\n      dup2\n      mstore\n      0x20\n      add\n      0x00\n      keccak256\n        /* \"@openzeppelin/contracts/utils/structs/EnumerableSet.sol\":4069:4097  delete set._positions[value] */\n      0x00\n      swap1\n      sstore\n        /* \"@openzeppelin/contracts/utils/structs/EnumerableSet.sol\":4119:4123  true */\n      0x01\n        /* \"@openzeppelin/contracts/utils/structs/EnumerableSet.sol\":4112:4123  return true */\n      swap4\n      pop\n      pop\n      pop\n      pop\n      jump(tag_115)\n        /* \"@openzeppelin/contracts/utils/structs/EnumerableSet.sol\":3042:4177  if (position != 0) {... */\n    tag_116:\n        /* \"@openzeppelin/contracts/utils/structs/EnumerableSet.sol\":4161:4166  false */\n      0x00\n        /* \"@openzeppelin/contracts/utils/structs/EnumerableSet.sol\":4154:4166  return false */\n      swap2\n      pop\n      pop\n        /* \"@openzeppelin/contracts/utils/structs/EnumerableSet.sol\":2815:4183  function _remove(Set storage set, bytes32 value) private returns (bool) {... */\n    tag_115:\n      swap3\n      swap2\n      pop\n      pop\n      jump\t// out\n        /* \"@openzeppelin/contracts/utils/cryptography/ECDSA.sol\":2129:2895  function tryRecover(bytes32 hash, bytes memory signature) internal pure returns (address, RecoverError, bytes32) {... */\n    tag_96:\n        /* \"@openzeppelin/contracts/utils/cryptography/ECDSA.sol\":2210:2217  address */\n      0x00\n        /* \"@openzeppelin/contracts/utils/cryptography/ECDSA.sol\":2219:2231  RecoverError */\n      dup1\n        /* \"@openzeppelin/contracts/utils/cryptography/ECDSA.sol\":2233:2240  bytes32 */\n      0x00\n        /* \"@openzeppelin/contracts/utils/cryptography/ECDSA.sol\":2276:2278  65 */\n      0x41\n        /* \"@openzeppelin/contracts/utils/cryptography/ECDSA.sol\":2256:2265  signature */\n      dup5\n        /* \"@openzeppelin/contracts/utils/cryptography/ECDSA.sol\":2256:2272  signature.length */\n      mload\n        /* \"@openzeppelin/contracts/utils/cryptography/ECDSA.sol\":2256:2278  signature.length == 65 */\n      sub\n        /* \"@openzeppelin/contracts/utils/cryptography/ECDSA.sol\":2252:2889  if (signature.length == 65) {... */\n      tag_134\n      jumpi\n        /* \"@openzeppelin/contracts/utils/cryptography/ECDSA.sol\":2294:2303  bytes32 r */\n      0x00\n        /* \"@openzeppelin/contracts/utils/cryptography/ECDSA.sol\":2317:2326  bytes32 s */\n      dup1\n        /* \"@openzeppelin/contracts/utils/cryptography/ECDSA.sol\":2340:2347  uint8 v */\n      0x00\n        /* \"@openzeppelin/contracts/utils/cryptography/ECDSA.sol\":2592:2596  0x20 */\n      0x20\n        /* \"@openzeppelin/contracts/utils/cryptography/ECDSA.sol\":2581:2590  signature */\n      dup8\n        /* \"@openzeppelin/contracts/utils/cryptography/ECDSA.sol\":2577:2597  add(signature, 0x20) */\n      add\n        /* \"@openzeppelin/contracts/utils/cryptography/ECDSA.sol\":2571:2598  mload(add(signature, 0x20)) */\n      mload\n        /* \"@openzeppelin/contracts/utils/cryptography/ECDSA.sol\":2566:2598  r := mload(add(signature, 0x20)) */\n      swap3\n      pop\n        /* \"@openzeppelin/contracts/utils/cryptography/ECDSA.sol\":2641:2645  0x40 */\n      0x40\n        /* \"@openzeppelin/contracts/utils/cryptography/ECDSA.sol\":2630:2639  signature */\n      dup8\n        /* \"@openzeppelin/contracts/utils/cryptography/ECDSA.sol\":2626:2646  add(signature, 0x40) */\n      add\n        /* \"@openzeppelin/contracts/utils/cryptography/ECDSA.sol\":2620:2647  mload(add(signature, 0x40)) */\n      mload\n        /* \"@openzeppelin/contracts/utils/cryptography/ECDSA.sol\":2615:2647  s := mload(add(signature, 0x40)) */\n      swap2\n      pop\n        /* \"@openzeppelin/contracts/utils/cryptography/ECDSA.sol\":2698:2702  0x60 */\n      0x60\n        /* \"@openzeppelin/contracts/utils/cryptography/ECDSA.sol\":2687:2696  signature */\n      dup8\n        /* \"@openzeppelin/contracts/utils/cryptography/ECDSA.sol\":2683:2703  add(signature, 0x60) */\n      add\n        /* \"@openzeppelin/contracts/utils/cryptography/ECDSA.sol\":2677:2704  mload(add(signature, 0x60)) */\n      mload\n        /* \"@openzeppelin/contracts/utils/cryptography/ECDSA.sol\":2674:2675  0 */\n      0x00\n        /* \"@openzeppelin/contracts/utils/cryptography/ECDSA.sol\":2669:2705  byte(0, mload(add(signature, 0x60))) */\n      byte\n        /* \"@openzeppelin/contracts/utils/cryptography/ECDSA.sol\":2664:2705  v := byte(0, mload(add(signature, 0x60))) */\n      swap1\n      pop\n        /* \"@openzeppelin/contracts/utils/cryptography/ECDSA.sol\":2739:2764  tryRecover(hash, v, r, s) */\n      tag_135\n        /* \"@openzeppelin/contracts/utils/cryptography/ECDSA.sol\":2750:2754  hash */\n      dup9\n        /* \"@openzeppelin/contracts/utils/cryptography/ECDSA.sol\":2756:2757  v */\n      dup3\n        /* \"@openzeppelin/contracts/utils/cryptography/ECDSA.sol\":2759:2760  r */\n      dup6\n        /* \"@openzeppelin/contracts/utils/cryptography/ECDSA.sol\":2762:2763  s */\n      dup6\n        /* \"@openzeppelin/contracts/utils/cryptography/ECDSA.sol\":2739:2749  tryRecover */\n      tag_136\n        /* \"@openzeppelin/contracts/utils/cryptography/ECDSA.sol\":2739:2764  tryRecover(hash, v, r, s) */\n      jump\t// in\n    tag_135:\n        /* \"@openzeppelin/contracts/utils/cryptography/ECDSA.sol\":2732:2764  return tryRecover(hash, v, r, s) */\n      swap6\n      pop\n      swap6\n      pop\n      swap6\n      pop\n      pop\n      pop\n      pop\n      jump(tag_133)\n        /* \"@openzeppelin/contracts/utils/cryptography/ECDSA.sol\":2252:2889  if (signature.length == 65) {... */\n    tag_134:\n        /* \"@openzeppelin/contracts/utils/cryptography/ECDSA.sol\":2811:2812  0 */\n      0x00\n        /* \"@openzeppelin/contracts/utils/cryptography/ECDSA.sol\":2815:2850  RecoverError.InvalidSignatureLength */\n      0x02\n        /* \"@openzeppelin/contracts/utils/cryptography/ECDSA.sol\":2860:2869  signature */\n      dup6\n        /* \"@openzeppelin/contracts/utils/cryptography/ECDSA.sol\":2860:2876  signature.length */\n      mload\n        /* \"@openzeppelin/contracts/utils/cryptography/ECDSA.sol\":2852:2877  bytes32(signature.length) */\n      0x00\n      shl\n        /* \"@openzeppelin/contracts/utils/cryptography/ECDSA.sol\":2795:2878  return (address(0), RecoverError.InvalidSignatureLength, bytes32(signature.length)) */\n      swap3\n      pop\n      swap3\n      pop\n      swap3\n      pop\n        /* \"@openzeppelin/contracts/utils/cryptography/ECDSA.sol\":2129:2895  function tryRecover(bytes32 hash, bytes memory signature) internal pure returns (address, RecoverError, bytes32) {... */\n    tag_133:\n      swap3\n      pop\n      swap3\n      pop\n      swap3\n      jump\t// out\n        /* \"@openzeppelin/contracts/utils/cryptography/SignatureChecker.sol\":1813:2271  function isValidERC1271SignatureNow(... */\n    tag_105:\n        /* \"@openzeppelin/contracts/utils/cryptography/SignatureChecker.sol\":1956:1960  bool */\n      0x00\n        /* \"@openzeppelin/contracts/utils/cryptography/SignatureChecker.sol\":1973:1985  bool success */\n      dup1\n        /* \"@openzeppelin/contracts/utils/cryptography/SignatureChecker.sol\":1987:2006  bytes memory result */\n      0x00\n        /* \"@openzeppelin/contracts/utils/cryptography/SignatureChecker.sol\":2010:2016  signer */\n      dup6\n        /* \"@openzeppelin/contracts/utils/cryptography/SignatureChecker.sol\":2010:2027  signer.staticcall */\n      0xffffffffffffffffffffffffffffffffffffffff\n      and\n        /* \"@openzeppelin/contracts/utils/cryptography/SignatureChecker.sol\":2084:2088  hash */\n      dup6\n        /* \"@openzeppelin/contracts/utils/cryptography/SignatureChecker.sol\":2090:2099  signature */\n      dup6\n        /* \"@openzeppelin/contracts/utils/cryptography/SignatureChecker.sol\":2041:2101  abi.encodeCall(IERC1271.isValidSignature, (hash, signature)) */\n      add(0x24, mload(0x40))\n      tag_139\n      swap3\n      swap2\n      swap1\n      tag_140\n      jump\t// in\n    tag_139:\n      mload(0x40)\n      0x20\n      dup2\n      dup4\n      sub\n      sub\n      dup2\n      mstore\n      swap1\n      0x40\n      mstore\n      shl(0xe0, 0x1626ba7e)\n      0x20\n      dup3\n      add\n      dup1\n      mload\n      0xffffffffffffffffffffffffffffffffffffffffffffffffffffffff\n      dup4\n      dup2\n      dup4\n      and\n      or\n      dup4\n      mstore\n      pop\n      pop\n      pop\n      pop\n        /* \"@openzeppelin/contracts/utils/cryptography/SignatureChecker.sol\":2010:2111  signer.staticcall(... */\n      mload(0x40)\n      tag_141\n      swap2\n      swap1\n      tag_142\n      jump\t// in\n    tag_141:\n      0x00\n      mload(0x40)\n      dup1\n      dup4\n      sub\n      dup2\n      dup6\n      gas\n      staticcall\n      swap2\n      pop\n      pop\n      returndatasize\n      dup1\n      0x00\n      dup2\n      eq\n      tag_145\n      jumpi\n      mload(0x40)\n      swap2\n      pop\n      and(add(returndatasize, 0x3f), not(0x1f))\n      dup3\n      add\n      0x40\n      mstore\n      returndatasize\n      dup3\n      mstore\n      returndatasize\n      0x00\n      0x20\n      dup5\n      add\n      returndatacopy\n      jump(tag_144)\n    tag_145:\n      0x60\n      swap2\n      pop\n    tag_144:\n      pop\n        /* \"@openzeppelin/contracts/utils/cryptography/SignatureChecker.sol\":1972:2111  (bool success, bytes memory result) = signer.staticcall(... */\n      swap2\n      pop\n      swap2\n      pop\n        /* \"@openzeppelin/contracts/utils/cryptography/SignatureChecker.sol\":2129:2136  success */\n      dup2\n        /* \"@openzeppelin/contracts/utils/cryptography/SignatureChecker.sol\":2129:2171  success &&... */\n      dup1\n      iszero\n      tag_146\n      jumpi\n      pop\n        /* \"@openzeppelin/contracts/utils/cryptography/SignatureChecker.sol\":2169:2171  32 */\n      0x20\n        /* \"@openzeppelin/contracts/utils/cryptography/SignatureChecker.sol\":2152:2158  result */\n      dup2\n        /* \"@openzeppelin/contracts/utils/cryptography/SignatureChecker.sol\":2152:2165  result.length */\n      mload\n        /* \"@openzeppelin/contracts/utils/cryptography/SignatureChecker.sol\":2152:2171  result.length >= 32 */\n      lt\n      iszero\n        /* \"@openzeppelin/contracts/utils/cryptography/SignatureChecker.sol\":2129:2171  success &&... */\n    tag_146:\n        /* \"@openzeppelin/contracts/utils/cryptography/SignatureChecker.sol\":2129:2263  success &&... */\n      dup1\n      iszero\n      tag_147\n      jumpi\n      pop\n        /* \"@openzeppelin/contracts/utils/cryptography/SignatureChecker.sol\":2228:2262  IERC1271.isValidSignature.selector */\n      shl(0xe0, 0x1626ba7e)\n        /* \"@openzeppelin/contracts/utils/cryptography/SignatureChecker.sol\":2220:2263  bytes32(IERC1271.isValidSignature.selector) */\n      not(0xffffffffffffffffffffffffffffffffffffffffffffffffffffffff)\n      and\n        /* \"@openzeppelin/contracts/utils/cryptography/SignatureChecker.sol\":2198:2204  result */\n      dup2\n        /* \"@openzeppelin/contracts/utils/cryptography/SignatureChecker.sol\":2187:2216  abi.decode(result, (bytes32)) */\n      dup1\n      0x20\n      add\n      swap1\n      mload\n      dup2\n      add\n      swap1\n      tag_148\n      swap2\n      swap1\n      tag_149\n      jump\t// in\n    tag_148:\n        /* \"@openzeppelin/contracts/utils/cryptography/SignatureChecker.sol\":2187:2263  abi.decode(result, (bytes32)) == bytes32(IERC1271.isValidSignature.selector) */\n      eq\n        /* \"@openzeppelin/contracts/utils/cryptography/SignatureChecker.sol\":2129:2263  success &&... */\n    tag_147:\n        /* \"@openzeppelin/contracts/utils/cryptography/SignatureChecker.sol\":2121:2264  return (success &&... */\n      swap3\n      pop\n      pop\n      pop\n        /* \"@openzeppelin/contracts/utils/cryptography/SignatureChecker.sol\":1813:2271  function isValidERC1271SignatureNow(... */\n      swap4\n      swap3\n      pop\n      pop\n      pop\n      jump\t// out\n        /* \"@openzeppelin/contracts/utils/structs/EnumerableSet.sol\":5581:5690  function _values(Set storage set) private view returns (bytes32[] memory) {... */\n    tag_108:\n        /* \"@openzeppelin/contracts/utils/structs/EnumerableSet.sol\":5637:5653  bytes32[] memory */\n      0x60\n        /* \"@openzeppelin/contracts/utils/structs/EnumerableSet.sol\":5672:5675  set */\n      dup2\n        /* \"@openzeppelin/contracts/utils/structs/EnumerableSet.sol\":5672:5683  set._values */\n      0x00\n      add\n        /* \"@openzeppelin/contracts/utils/structs/EnumerableSet.sol\":5665:5683  return set._values */\n      dup1\n      sload\n      dup1\n      0x20\n      mul\n      0x20\n      add\n      mload(0x40)\n      swap1\n      dup2\n      add\n      0x40\n      mstore\n      dup1\n      swap3\n      swap2\n      swap1\n      dup2\n      dup2\n      mstore\n      0x20\n      add\n      dup3\n      dup1\n      sload\n      dup1\n      iszero\n      tag_151\n      jumpi\n      0x20\n      mul\n      dup3\n      add\n      swap2\n      swap1\n      0x00\n      mstore\n      keccak256(0x00, 0x20)\n      swap1\n    tag_152:\n      dup2\n      sload\n      dup2\n      mstore\n      0x20\n      add\n      swap1\n      0x01\n      add\n      swap1\n      dup1\n      dup4\n      gt\n      tag_152\n      jumpi\n    tag_151:\n      pop\n      pop\n      pop\n      pop\n      pop\n      swap1\n      pop\n        /* \"@openzeppelin/contracts/utils/structs/EnumerableSet.sol\":5581:5690  function _values(Set storage set) private view returns (bytes32[] memory) {... */\n      swap2\n      swap1\n      pop\n      jump\t// out\n        /* \"@openzeppelin/contracts/utils/cryptography/ECDSA.sol\":5140:6670  function tryRecover(... */\n    tag_136:\n        /* \"@openzeppelin/contracts/utils/cryptography/ECDSA.sol\":5266:5273  address */\n      0x00\n        /* \"@openzeppelin/contracts/utils/cryptography/ECDSA.sol\":5275:5287  RecoverError */\n      dup1\n        /* \"@openzeppelin/contracts/utils/cryptography/ECDSA.sol\":5289:5296  bytes32 */\n      0x00\n        /* \"@openzeppelin/contracts/utils/cryptography/ECDSA.sol\":6199:6265  0x7FFFFFFFFFFFFFFFFFFFFFFFFFFFFFFF5D576E7357A4501DDFE92F46681B20A0 */\n      0x7fffffffffffffffffffffffffffffff5d576e7357a4501ddfe92f46681b20a0\n        /* \"@openzeppelin/contracts/utils/cryptography/ECDSA.sol\":6194:6195  s */\n      dup5\n        /* \"@openzeppelin/contracts/utils/cryptography/ECDSA.sol\":6186:6196  uint256(s) */\n      0x00\n      shr\n        /* \"@openzeppelin/contracts/utils/cryptography/ECDSA.sol\":6186:6265  uint256(s) > 0x7FFFFFFFFFFFFFFFFFFFFFFFFFFFFFFF5D576E7357A4501DDFE92F46681B20A0 */\n      gt\n        /* \"@openzeppelin/contracts/utils/cryptography/ECDSA.sol\":6182:6346  if (uint256(s) > 0x7FFFFFFFFFFFFFFFFFFFFFFFFFFFFFFF5D576E7357A4501DDFE92F46681B20A0) {... */\n      iszero\n      tag_154\n      jumpi\n        /* \"@openzeppelin/contracts/utils/cryptography/ECDSA.sol\":6297:6298  0 */\n      0x00\n        /* \"@openzeppelin/contracts/utils/cryptography/ECDSA.sol\":6301:6331  RecoverError.InvalidSignatureS */\n      0x03\n        /* \"@openzeppelin/contracts/utils/cryptography/ECDSA.sol\":6333:6334  s */\n      dup6\n        /* \"@openzeppelin/contracts/utils/cryptography/ECDSA.sol\":6281:6335  return (address(0), RecoverError.InvalidSignatureS, s) */\n      swap3\n      pop\n      swap3\n      pop\n      swap3\n      pop\n      jump(tag_153)\n        /* \"@openzeppelin/contracts/utils/cryptography/ECDSA.sol\":6182:6346  if (uint256(s) > 0x7FFFFFFFFFFFFFFFFFFFFFFFFFFFFFFF5D576E7357A4501DDFE92F46681B20A0) {... */\n    tag_154:\n        /* \"@openzeppelin/contracts/utils/cryptography/ECDSA.sol\":6440:6454  address signer */\n      0x00\n        /* \"@openzeppelin/contracts/utils/cryptography/ECDSA.sol\":6457:6481  ecrecover(hash, v, r, s) */\n      0x01\n        /* \"@openzeppelin/contracts/utils/cryptography/ECDSA.sol\":6467:6471  hash */\n      dup9\n        /* \"@openzeppelin/contracts/utils/cryptography/ECDSA.sol\":6473:6474  v */\n      dup9\n        /* \"@openzeppelin/contracts/utils/cryptography/ECDSA.sol\":6476:6477  r */\n      dup9\n        /* \"@openzeppelin/contracts/utils/cryptography/ECDSA.sol\":6479:6480  s */\n      dup9\n        /* \"@openzeppelin/contracts/utils/cryptography/ECDSA.sol\":6457:6481  ecrecover(hash, v, r, s) */\n      mload(0x40)\n      0x00\n      dup2\n      mstore\n      0x20\n      add\n      0x40\n      mstore\n      mload(0x40)\n      tag_155\n      swap5\n      swap4\n      swap3\n      swap2\n      swap1\n      tag_156\n      jump\t// in\n    tag_155:\n      0x20\n      mload(0x40)\n      0x20\n      dup2\n      sub\n      swap1\n      dup1\n      dup5\n      sub\n      swap1\n      dup6\n      gas\n      staticcall\n      iszero\n      dup1\n      iszero\n      tag_158\n      jumpi\n      returndatasize\n      0x00\n      dup1\n      returndatacopy\n      revert(0x00, returndatasize)\n    tag_158:\n      pop\n      pop\n      pop\n      mload(sub(mload(0x40), 0x20))\n        /* \"@openzeppelin/contracts/utils/cryptography/ECDSA.sol\":6440:6481  address signer = ecrecover(hash, v, r, s) */\n      swap1\n      pop\n        /* \"@openzeppelin/contracts/utils/cryptography/ECDSA.sol\":6513:6514  0 */\n      0x00\n        /* \"@openzeppelin/contracts/utils/cryptography/ECDSA.sol\":6495:6515  signer == address(0) */\n      0xffffffffffffffffffffffffffffffffffffffff\n      and\n        /* \"@openzeppelin/contracts/utils/cryptography/ECDSA.sol\":6495:6501  signer */\n      dup2\n        /* \"@openzeppelin/contracts/utils/cryptography/ECDSA.sol\":6495:6515  signer == address(0) */\n      0xffffffffffffffffffffffffffffffffffffffff\n      and\n      sub\n        /* \"@openzeppelin/contracts/utils/cryptography/ECDSA.sol\":6491:6604  if (signer == address(0)) {... */\n      tag_159\n      jumpi\n        /* \"@openzeppelin/contracts/utils/cryptography/ECDSA.sol\":6547:6548  0 */\n      0x00\n        /* \"@openzeppelin/contracts/utils/cryptography/ECDSA.sol\":6551:6580  RecoverError.InvalidSignature */\n      0x01\n        /* \"@openzeppelin/contracts/utils/cryptography/ECDSA.sol\":6590:6591  0 */\n      0x00\n        /* \"@openzeppelin/contracts/utils/cryptography/ECDSA.sol\":6582:6592  bytes32(0) */\n      dup1\n      shl\n        /* \"@openzeppelin/contracts/utils/cryptography/ECDSA.sol\":6531:6593  return (address(0), RecoverError.InvalidSignature, bytes32(0)) */\n      swap4\n      pop\n      swap4\n      pop\n      swap4\n      pop\n      pop\n      jump(tag_153)\n        /* \"@openzeppelin/contracts/utils/cryptography/ECDSA.sol\":6491:6604  if (signer == address(0)) {... */\n    tag_159:\n        /* \"@openzeppelin/contracts/utils/cryptography/ECDSA.sol\":6622:6628  signer */\n      dup1\n        /* \"@openzeppelin/contracts/utils/cryptography/ECDSA.sol\":6630:6650  RecoverError.NoError */\n      0x00\n        /* \"@openzeppelin/contracts/utils/cryptography/ECDSA.sol\":6660:6661  0 */\n      dup1\n        /* \"@openzeppelin/contracts/utils/cryptography/ECDSA.sol\":6652:6662  bytes32(0) */\n      0x00\n      shl\n        /* \"@openzeppelin/contracts/utils/cryptography/ECDSA.sol\":6614:6663  return (signer, RecoverError.NoError, bytes32(0)) */\n      swap4\n      pop\n      swap4\n      pop\n      swap4\n      pop\n      pop\n        /* \"@openzeppelin/contracts/utils/cryptography/ECDSA.sol\":5140:6670  function tryRecover(... */\n    tag_153:\n      swap5\n      pop\n      swap5\n      pop\n      swap5\n      swap2\n      pop\n      pop\n      jump\t// out\n        /* \"#utility.yul\":7:84   */\n    tag_160:\n        /* \"#utility.yul\":44:51   */\n      0x00\n        /* \"#utility.yul\":73:78   */\n      dup2\n        /* \"#utility.yul\":62:78   */\n      swap1\n      pop\n        /* \"#utility.yul\":7:84   */\n      swap2\n      swap1\n      pop\n      jump\t// out\n        /* \"#utility.yul\":90:208   */\n    tag_161:\n        /* \"#utility.yul\":177:201   */\n      tag_234\n        /* \"#utility.yul\":195:200   */\n      dup2\n        /* \"#utility.yul\":177:201   */\n      tag_160\n      jump\t// in\n    tag_234:\n        /* \"#utility.yul\":172:175   */\n      dup3\n        /* \"#utility.yul\":165:202   */\n      mstore\n        /* \"#utility.yul\":90:208   */\n      pop\n      pop\n      jump\t// out\n        /* \"#utility.yul\":214:436   */\n    tag_11:\n        /* \"#utility.yul\":307:311   */\n      0x00\n        /* \"#utility.yul\":345:347   */\n      0x20\n        /* \"#utility.yul\":334:343   */\n      dup3\n        /* \"#utility.yul\":330:348   */\n      add\n        /* \"#utility.yul\":322:348   */\n      swap1\n      pop\n        /* \"#utility.yul\":358:429   */\n      tag_236\n        /* \"#utility.yul\":426:427   */\n      0x00\n        /* \"#utility.yul\":415:424   */\n      dup4\n        /* \"#utility.yul\":411:428   */\n      add\n        /* \"#utility.yul\":402:408   */\n      dup5\n        /* \"#utility.yul\":358:429   */\n      tag_161\n      jump\t// in\n    tag_236:\n        /* \"#utility.yul\":214:436   */\n      swap3\n      swap2\n      pop\n      pop\n      jump\t// out\n        /* \"#utility.yul\":442:517   */\n    tag_162:\n        /* \"#utility.yul\":475:481   */\n      0x00\n        /* \"#utility.yul\":508:510   */\n      0x40\n        /* \"#utility.yul\":502:511   */\n      mload\n        /* \"#utility.yul\":492:511   */\n      swap1\n      pop\n        /* \"#utility.yul\":442:517   */\n      swap1\n      jump\t// out\n        /* \"#utility.yul\":523:640   */\n    tag_163:\n        /* \"#utility.yul\":632:633   */\n      0x00\n        /* \"#utility.yul\":629:630   */\n      dup1\n        /* \"#utility.yul\":622:634   */\n      revert\n        /* \"#utility.yul\":646:763   */\n    tag_164:\n        /* \"#utility.yul\":755:756   */\n      0x00\n        /* \"#utility.yul\":752:753   */\n      dup1\n        /* \"#utility.yul\":745:757   */\n      revert\n        /* \"#utility.yul\":769:895   */\n    tag_165:\n        /* \"#utility.yul\":806:813   */\n      0x00\n        /* \"#utility.yul\":846:888   */\n      0xffffffffffffffffffffffffffffffffffffffff\n        /* \"#utility.yul\":839:844   */\n      dup3\n        /* \"#utility.yul\":835:889   */\n      and\n        /* \"#utility.yul\":824:889   */\n      swap1\n      pop\n        /* \"#utility.yul\":769:895   */\n      swap2\n      swap1\n      pop\n      jump\t// out\n        /* \"#utility.yul\":901:997   */\n    tag_166:\n        /* \"#utility.yul\":938:945   */\n      0x00\n        /* \"#utility.yul\":967:991   */\n      tag_242\n        /* \"#utility.yul\":985:990   */\n      dup3\n        /* \"#utility.yul\":967:991   */\n      tag_165\n      jump\t// in\n    tag_242:\n        /* \"#utility.yul\":956:991   */\n      swap1\n      pop\n        /* \"#utility.yul\":901:997   */\n      swap2\n      swap1\n      pop\n      jump\t// out\n        /* \"#utility.yul\":1003:1125   */\n    tag_167:\n        /* \"#utility.yul\":1076:1100   */\n      tag_244\n        /* \"#utility.yul\":1094:1099   */\n      dup2\n        /* \"#utility.yul\":1076:1100   */\n      tag_166\n      jump\t// in\n    tag_244:\n        /* \"#utility.yul\":1069:1074   */\n      dup2\n        /* \"#utility.yul\":1066:1101   */\n      eq\n        /* \"#utility.yul\":1056:1119   */\n      tag_245\n      jumpi\n        /* \"#utility.yul\":1115:1116   */\n      0x00\n        /* \"#utility.yul\":1112:1113   */\n      dup1\n        /* \"#utility.yul\":1105:1117   */\n      revert\n        /* \"#utility.yul\":1056:1119   */\n    tag_245:\n        /* \"#utility.yul\":1003:1125   */\n      pop\n      jump\t// out\n        /* \"#utility.yul\":1131:1270   */\n    tag_168:\n        /* \"#utility.yul\":1177:1182   */\n      0x00\n        /* \"#utility.yul\":1215:1221   */\n      dup2\n        /* \"#utility.yul\":1202:1222   */\n      calldataload\n        /* \"#utility.yul\":1193:1222   */\n      swap1\n      pop\n        /* \"#utility.yul\":1231:1264   */\n      tag_247\n        /* \"#utility.yul\":1258:1263   */\n      dup2\n        /* \"#utility.yul\":1231:1264   */\n      tag_167\n      jump\t// in\n    tag_247:\n        /* \"#utility.yul\":1131:1270   */\n      swap3\n      swap2\n      pop\n      pop\n      jump\t// out\n        /* \"#utility.yul\":1276:1605   */\n    tag_15:\n        /* \"#utility.yul\":1335:1341   */\n      0x00\n        /* \"#utility.yul\":1384:1386   */\n      0x20\n        /* \"#utility.yul\":1372:1381   */\n      dup3\n        /* \"#utility.yul\":1363:1370   */\n      dup5\n        /* \"#utility.yul\":1359:1382   */\n      sub\n        /* \"#utility.yul\":1355:1387   */\n      slt\n        /* \"#utility.yul\":1352:1471   */\n      iszero\n      tag_249\n      jumpi\n        /* \"#utility.yul\":1390:1469   */\n      tag_250\n      tag_163\n      jump\t// in\n    tag_250:\n        /* \"#utility.yul\":1352:1471   */\n    tag_249:\n        /* \"#utility.yul\":1510:1511   */\n      0x00\n        /* \"#utility.yul\":1535:1588   */\n      tag_251\n        /* \"#utility.yul\":1580:1587   */\n      dup5\n        /* \"#utility.yul\":1571:1577   */\n      dup3\n        /* \"#utility.yul\":1560:1569   */\n      dup6\n        /* \"#utility.yul\":1556:1578   */\n      add\n        /* \"#utility.yul\":1535:1588   */\n      tag_168\n      jump\t// in\n    tag_251:\n        /* \"#utility.yul\":1525:1588   */\n      swap2\n      pop\n        /* \"#utility.yul\":1481:1598   */\n      pop\n        /* \"#utility.yul\":1276:1605   */\n      swap3\n      swap2\n      pop\n      pop\n      jump\t// out\n        /* \"#utility.yul\":1611:1715   */\n    tag_169:\n        /* \"#utility.yul\":1656:1663   */\n      0x00\n        /* \"#utility.yul\":1685:1709   */\n      tag_253\n        /* \"#utility.yul\":1703:1708   */\n      dup3\n        /* \"#utility.yul\":1685:1709   */\n      tag_165\n      jump\t// in\n    tag_253:\n        /* \"#utility.yul\":1674:1709   */\n      swap1\n      pop\n        /* \"#utility.yul\":1611:1715   */\n      swap2\n      swap1\n      pop\n      jump\t// out\n        /* \"#utility.yul\":1721:1859   */\n    tag_170:\n        /* \"#utility.yul\":1802:1834   */\n      tag_255\n        /* \"#utility.yul\":1828:1833   */\n      dup2\n        /* \"#utility.yul\":1802:1834   */\n      tag_169\n      jump\t// in\n    tag_255:\n        /* \"#utility.yul\":1795:1800   */\n      dup2\n        /* \"#utility.yul\":1792:1835   */\n      eq\n        /* \"#utility.yul\":1782:1853   */\n      tag_256\n      jumpi\n        /* \"#utility.yul\":1849:1850   */\n      0x00\n        /* \"#utility.yul\":1846:1847   */\n      dup1\n        /* \"#utility.yul\":1839:1851   */\n      revert\n        /* \"#utility.yul\":1782:1853   */\n    tag_256:\n        /* \"#utility.yul\":1721:1859   */\n      pop\n      jump\t// out\n        /* \"#utility.yul\":1865:2020   */\n    tag_171:\n        /* \"#utility.yul\":1919:1924   */\n      0x00\n        /* \"#utility.yul\":1957:1963   */\n      dup2\n        /* \"#utility.yul\":1944:1964   */\n      calldataload\n        /* \"#utility.yul\":1935:1964   */\n      swap1\n      pop\n        /* \"#utility.yul\":1973:2014   */\n      tag_258\n        /* \"#utility.yul\":2008:2013   */\n      dup2\n        /* \"#utility.yul\":1973:2014   */\n      tag_170\n      jump\t// in\n    tag_258:\n        /* \"#utility.yul\":1865:2020   */\n      swap3\n      swap2\n      pop\n      pop\n      jump\t// out\n        /* \"#utility.yul\":2026:2148   */\n    tag_172:\n        /* \"#utility.yul\":2099:2123   */\n      tag_260\n        /* \"#utility.yul\":2117:2122   */\n      dup2\n        /* \"#utility.yul\":2099:2123   */\n      tag_160\n      jump\t// in\n    tag_260:\n        /* \"#utility.yul\":2092:2097   */\n      dup2\n        /* \"#utility.yul\":2089:2124   */\n      eq\n        /* \"#utility.yul\":2079:2142   */\n      tag_261\n      jumpi\n        /* \"#utility.yul\":2138:2139   */\n      0x00\n        /* \"#utility.yul\":2135:2136   */\n      dup1\n        /* \"#utility.yul\":2128:2140   */\n      revert\n        /* \"#utility.yul\":2079:2142   */\n    tag_261:\n        /* \"#utility.yul\":2026:2148   */\n      pop\n      jump\t// out\n        /* \"#utility.yul\":2154:2293   */\n    tag_173:\n        /* \"#utility.yul\":2200:2205   */\n      0x00\n        /* \"#utility.yul\":2238:2244   */\n      dup2\n        /* \"#utility.yul\":2225:2245   */\n      calldataload\n        /* \"#utility.yul\":2216:2245   */\n      swap1\n      pop\n        /* \"#utility.yul\":2254:2287   */\n      tag_263\n        /* \"#utility.yul\":2281:2286   */\n      dup2\n        /* \"#utility.yul\":2254:2287   */\n      tag_172\n      jump\t// in\n    tag_263:\n        /* \"#utility.yul\":2154:2293   */\n      swap3\n      swap2\n      pop\n      pop\n      jump\t// out\n        /* \"#utility.yul\":2299:2416   */\n    tag_174:\n        /* \"#utility.yul\":2408:2409   */\n      0x00\n        /* \"#utility.yul\":2405:2406   */\n      dup1\n        /* \"#utility.yul\":2398:2410   */\n      revert\n        /* \"#utility.yul\":2422:2539   */\n    tag_175:\n        /* \"#utility.yul\":2531:2532   */\n      0x00\n        /* \"#utility.yul\":2528:2529   */\n      dup1\n        /* \"#utility.yul\":2521:2533   */\n      revert\n        /* \"#utility.yul\":2545:2647   */\n    tag_176:\n        /* \"#utility.yul\":2586:2592   */\n      0x00\n        /* \"#utility.yul\":2637:2639   */\n      0x1f\n        /* \"#utility.yul\":2633:2640   */\n      not\n        /* \"#utility.yul\":2628:2630   */\n      0x1f\n        /* \"#utility.yul\":2621:2626   */\n      dup4\n        /* \"#utility.yul\":2617:2631   */\n      add\n        /* \"#utility.yul\":2613:2641   */\n      and\n        /* \"#utility.yul\":2603:2641   */\n      swap1\n      pop\n        /* \"#utility.yul\":2545:2647   */\n      swap2\n      swap1\n      pop\n      jump\t// out\n        /* \"#utility.yul\":2653:2833   */\n    tag_177:\n        /* \"#utility.yul\":2701:2778   */\n      0x4e487b7100000000000000000000000000000000000000000000000000000000\n        /* \"#utility.yul\":2698:2699   */\n      0x00\n        /* \"#utility.yul\":2691:2779   */\n      mstore\n        /* \"#utility.yul\":2798:2802   */\n      0x41\n        /* \"#utility.yul\":2795:2796   */\n      0x04\n        /* \"#utility.yul\":2788:2803   */\n      mstore\n        /* \"#utility.yul\":2822:2826   */\n      0x24\n        /* \"#utility.yul\":2819:2820   */\n      0x00\n        /* \"#utility.yul\":2812:2827   */\n      revert\n        /* \"#utility.yul\":2839:3120   */\n    tag_178:\n        /* \"#utility.yul\":2922:2949   */\n      tag_269\n        /* \"#utility.yul\":2944:2948   */\n      dup3\n        /* \"#utility.yul\":2922:2949   */\n      tag_176\n      jump\t// in\n    tag_269:\n        /* \"#utility.yul\":2914:2920   */\n      dup2\n        /* \"#utility.yul\":2910:2950   */\n      add\n        /* \"#utility.yul\":3052:3058   */\n      dup2\n        /* \"#utility.yul\":3040:3050   */\n      dup2\n        /* \"#utility.yul\":3037:3059   */\n      lt\n        /* \"#utility.yul\":3016:3034   */\n      0xffffffffffffffff\n        /* \"#utility.yul\":3004:3014   */\n      dup3\n        /* \"#utility.yul\":3001:3035   */\n      gt\n        /* \"#utility.yul\":2998:3060   */\n      or\n        /* \"#utility.yul\":2995:3083   */\n      iszero\n      tag_270\n      jumpi\n        /* \"#utility.yul\":3063:3081   */\n      tag_271\n      tag_177\n      jump\t// in\n    tag_271:\n        /* \"#utility.yul\":2995:3083   */\n    tag_270:\n        /* \"#utility.yul\":3103:3113   */\n      dup1\n        /* \"#utility.yul\":3099:3101   */\n      0x40\n        /* \"#utility.yul\":3092:3114   */\n      mstore\n        /* \"#utility.yul\":2882:3120   */\n      pop\n        /* \"#utility.yul\":2839:3120   */\n      pop\n      pop\n      jump\t// out\n        /* \"#utility.yul\":3126:3255   */\n    tag_179:\n        /* \"#utility.yul\":3160:3166   */\n      0x00\n        /* \"#utility.yul\":3187:3207   */\n      tag_273\n      tag_162\n      jump\t// in\n    tag_273:\n        /* \"#utility.yul\":3177:3207   */\n      swap1\n      pop\n        /* \"#utility.yul\":3216:3249   */\n      tag_274\n        /* \"#utility.yul\":3244:3248   */\n      dup3\n        /* \"#utility.yul\":3236:3242   */\n      dup3\n        /* \"#utility.yul\":3216:3249   */\n      tag_178\n      jump\t// in\n    tag_274:\n        /* \"#utility.yul\":3126:3255   */\n      swap2\n      swap1\n      pop\n      jump\t// out\n        /* \"#utility.yul\":3261:3568   */\n    tag_180:\n        /* \"#utility.yul\":3322:3326   */\n      0x00\n        /* \"#utility.yul\":3412:3430   */\n      0xffffffffffffffff\n        /* \"#utility.yul\":3404:3410   */\n      dup3\n        /* \"#utility.yul\":3401:3431   */\n      gt\n        /* \"#utility.yul\":3398:3454   */\n      iszero\n      tag_276\n      jumpi\n        /* \"#utility.yul\":3434:3452   */\n      tag_277\n      tag_177\n      jump\t// in\n    tag_277:\n        /* \"#utility.yul\":3398:3454   */\n    tag_276:\n        /* \"#utility.yul\":3472:3501   */\n      tag_278\n        /* \"#utility.yul\":3494:3500   */\n      dup3\n        /* \"#utility.yul\":3472:3501   */\n      tag_176\n      jump\t// in\n    tag_278:\n        /* \"#utility.yul\":3464:3501   */\n      swap1\n      pop\n        /* \"#utility.yul\":3556:3560   */\n      0x20\n        /* \"#utility.yul\":3550:3554   */\n      dup2\n        /* \"#utility.yul\":3546:3561   */\n      add\n        /* \"#utility.yul\":3538:3561   */\n      swap1\n      pop\n        /* \"#utility.yul\":3261:3568   */\n      swap2\n      swap1\n      pop\n      jump\t// out\n        /* \"#utility.yul\":3574:3722   */\n    tag_181:\n        /* \"#utility.yul\":3672:3678   */\n      dup3\n        /* \"#utility.yul\":3667:3670   */\n      dup2\n        /* \"#utility.yul\":3662:3665   */\n      dup4\n        /* \"#utility.yul\":3649:3679   */\n      calldatacopy\n        /* \"#utility.yul\":3713:3714   */\n      0x00\n        /* \"#utility.yul\":3704:3710   */\n      dup4\n        /* \"#utility.yul\":3699:3702   */\n      dup4\n        /* \"#utility.yul\":3695:3711   */\n      add\n        /* \"#utility.yul\":3688:3715   */\n      mstore\n        /* \"#utility.yul\":3574:3722   */\n      pop\n      pop\n      pop\n      jump\t// out\n        /* \"#utility.yul\":3728:4151   */\n    tag_182:\n        /* \"#utility.yul\":3805:3810   */\n      0x00\n        /* \"#utility.yul\":3830:3895   */\n      tag_281\n        /* \"#utility.yul\":3846:3894   */\n      tag_282\n        /* \"#utility.yul\":3887:3893   */\n      dup5\n        /* \"#utility.yul\":3846:3894   */\n      tag_180\n      jump\t// in\n    tag_282:\n        /* \"#utility.yul\":3830:3895   */\n      tag_179\n      jump\t// in\n    tag_281:\n        /* \"#utility.yul\":3821:3895   */\n      swap1\n      pop\n        /* \"#utility.yul\":3918:3924   */\n      dup3\n        /* \"#utility.yul\":3911:3916   */\n      dup2\n        /* \"#utility.yul\":3904:3925   */\n      mstore\n        /* \"#utility.yul\":3956:3960   */\n      0x20\n        /* \"#utility.yul\":3949:3954   */\n      dup2\n        /* \"#utility.yul\":3945:3961   */\n      add\n        /* \"#utility.yul\":3994:3997   */\n      dup5\n        /* \"#utility.yul\":3985:3991   */\n      dup5\n        /* \"#utility.yul\":3980:3983   */\n      dup5\n        /* \"#utility.yul\":3976:3992   */\n      add\n        /* \"#utility.yul\":3973:3998   */\n      gt\n        /* \"#utility.yul\":3970:4082   */\n      iszero\n      tag_283\n      jumpi\n        /* \"#utility.yul\":4001:4080   */\n      tag_284\n      tag_175\n      jump\t// in\n    tag_284:\n        /* \"#utility.yul\":3970:4082   */\n    tag_283:\n        /* \"#utility.yul\":4091:4145   */\n      tag_285\n        /* \"#utility.yul\":4138:4144   */\n      dup5\n        /* \"#utility.yul\":4133:4136   */\n      dup3\n        /* \"#utility.yul\":4128:4131   */\n      dup6\n        /* \"#utility.yul\":4091:4145   */\n      tag_181\n      jump\t// in\n    tag_285:\n        /* \"#utility.yul\":3811:4151   */\n      pop\n        /* \"#utility.yul\":3728:4151   */\n      swap4\n      swap3\n      pop\n      pop\n      pop\n      jump\t// out\n        /* \"#utility.yul\":4170:4508   */\n    tag_183:\n        /* \"#utility.yul\":4225:4230   */\n      0x00\n        /* \"#utility.yul\":4274:4277   */\n      dup3\n        /* \"#utility.yul\":4267:4271   */\n      0x1f\n        /* \"#utility.yul\":4259:4265   */\n      dup4\n        /* \"#utility.yul\":4255:4272   */\n      add\n        /* \"#utility.yul\":4251:4278   */\n      slt\n        /* \"#utility.yul\":4241:4363   */\n      tag_287\n      jumpi\n        /* \"#utility.yul\":4282:4361   */\n      tag_288\n      tag_174\n      jump\t// in\n    tag_288:\n        /* \"#utility.yul\":4241:4363   */\n    tag_287:\n        /* \"#utility.yul\":4399:4405   */\n      dup2\n        /* \"#utility.yul\":4386:4406   */\n      calldataload\n        /* \"#utility.yul\":4424:4502   */\n      tag_289\n        /* \"#utility.yul\":4498:4501   */\n      dup5\n        /* \"#utility.yul\":4490:4496   */\n      dup3\n        /* \"#utility.yul\":4483:4487   */\n      0x20\n        /* \"#utility.yul\":4475:4481   */\n      dup7\n        /* \"#utility.yul\":4471:4488   */\n      add\n        /* \"#utility.yul\":4424:4502   */\n      tag_182\n      jump\t// in\n    tag_289:\n        /* \"#utility.yul\":4415:4502   */\n      swap2\n      pop\n        /* \"#utility.yul\":4231:4508   */\n      pop\n        /* \"#utility.yul\":4170:4508   */\n      swap3\n      swap2\n      pop\n      pop\n      jump\t// out\n        /* \"#utility.yul\":4514:5327   */\n    tag_24:\n        /* \"#utility.yul\":4608:4614   */\n      0x00\n        /* \"#utility.yul\":4616:4622   */\n      dup1\n        /* \"#utility.yul\":4624:4630   */\n      0x00\n        /* \"#utility.yul\":4673:4675   */\n      0x60\n        /* \"#utility.yul\":4661:4670   */\n      dup5\n        /* \"#utility.yul\":4652:4659   */\n      dup7\n        /* \"#utility.yul\":4648:4671   */\n      sub\n        /* \"#utility.yul\":4644:4676   */\n      slt\n        /* \"#utility.yul\":4641:4760   */\n      iszero\n      tag_291\n      jumpi\n        /* \"#utility.yul\":4679:4758   */\n      tag_292\n      tag_163\n      jump\t// in\n    tag_292:\n        /* \"#utility.yul\":4641:4760   */\n    tag_291:\n        /* \"#utility.yul\":4799:4800   */\n      0x00\n        /* \"#utility.yul\":4824:4885   */\n      tag_293\n        /* \"#utility.yul\":4877:4884   */\n      dup7\n        /* \"#utility.yul\":4868:4874   */\n      dup3\n        /* \"#utility.yul\":4857:4866   */\n      dup8\n        /* \"#utility.yul\":4853:4875   */\n      add\n        /* \"#utility.yul\":4824:4885   */\n      tag_171\n      jump\t// in\n    tag_293:\n        /* \"#utility.yul\":4814:4885   */\n      swap4\n      pop\n        /* \"#utility.yul\":4770:4895   */\n      pop\n        /* \"#utility.yul\":4934:4936   */\n      0x20\n        /* \"#utility.yul\":4960:5013   */\n      tag_294\n        /* \"#utility.yul\":5005:5012   */\n      dup7\n        /* \"#utility.yul\":4996:5002   */\n      dup3\n        /* \"#utility.yul\":4985:4994   */\n      dup8\n        /* \"#utility.yul\":4981:5003   */\n      add\n        /* \"#utility.yul\":4960:5013   */\n      tag_173\n      jump\t// in\n    tag_294:\n        /* \"#utility.yul\":4950:5013   */\n      swap3\n      pop\n        /* \"#utility.yul\":4905:5023   */\n      pop\n        /* \"#utility.yul\":5090:5092   */\n      0x40\n        /* \"#utility.yul\":5079:5088   */\n      dup5\n        /* \"#utility.yul\":5075:5093   */\n      add\n        /* \"#utility.yul\":5062:5094   */\n      calldataload\n        /* \"#utility.yul\":5121:5139   */\n      0xffffffffffffffff\n        /* \"#utility.yul\":5113:5119   */\n      dup2\n        /* \"#utility.yul\":5110:5140   */\n      gt\n        /* \"#utility.yul\":5107:5224   */\n      iszero\n      tag_295\n      jumpi\n        /* \"#utility.yul\":5143:5222   */\n      tag_296\n      tag_164\n      jump\t// in\n    tag_296:\n        /* \"#utility.yul\":5107:5224   */\n    tag_295:\n        /* \"#utility.yul\":5248:5310   */\n      tag_297\n        /* \"#utility.yul\":5302:5309   */\n      dup7\n        /* \"#utility.yul\":5293:5299   */\n      dup3\n        /* \"#utility.yul\":5282:5291   */\n      dup8\n        /* \"#utility.yul\":5278:5300   */\n      add\n        /* \"#utility.yul\":5248:5310   */\n      tag_183\n      jump\t// in\n    tag_297:\n        /* \"#utility.yul\":5238:5310   */\n      swap2\n      pop\n        /* \"#utility.yul\":5033:5320   */\n      pop\n        /* \"#utility.yul\":4514:5327   */\n      swap3\n      pop\n      swap3\n      pop\n      swap3\n      jump\t// out\n        /* \"#utility.yul\":5333:5451   */\n    tag_184:\n        /* \"#utility.yul\":5420:5444   */\n      tag_299\n        /* \"#utility.yul\":5438:5443   */\n      dup2\n        /* \"#utility.yul\":5420:5444   */\n      tag_166\n      jump\t// in\n    tag_299:\n        /* \"#utility.yul\":5415:5418   */\n      dup3\n        /* \"#utility.yul\":5408:5445   */\n      mstore\n        /* \"#utility.yul\":5333:5451   */\n      pop\n      pop\n      jump\t// out\n        /* \"#utility.yul\":5457:5679   */\n    tag_30:\n        /* \"#utility.yul\":5550:5554   */\n      0x00\n        /* \"#utility.yul\":5588:5590   */\n      0x20\n        /* \"#utility.yul\":5577:5586   */\n      dup3\n        /* \"#utility.yul\":5573:5591   */\n      add\n        /* \"#utility.yul\":5565:5591   */\n      swap1\n      pop\n        /* \"#utility.yul\":5601:5672   */\n      tag_301\n        /* \"#utility.yul\":5669:5670   */\n      0x00\n        /* \"#utility.yul\":5658:5667   */\n      dup4\n        /* \"#utility.yul\":5654:5671   */\n      add\n        /* \"#utility.yul\":5645:5651   */\n      dup5\n        /* \"#utility.yul\":5601:5672   */\n      tag_184\n      jump\t// in\n    tag_301:\n        /* \"#utility.yul\":5457:5679   */\n      swap3\n      swap2\n      pop\n      pop\n      jump\t// out\n        /* \"#utility.yul\":5685:5799   */\n    tag_185:\n        /* \"#utility.yul\":5752:5758   */\n      0x00\n        /* \"#utility.yul\":5786:5791   */\n      dup2\n        /* \"#utility.yul\":5780:5792   */\n      mload\n        /* \"#utility.yul\":5770:5792   */\n      swap1\n      pop\n        /* \"#utility.yul\":5685:5799   */\n      swap2\n      swap1\n      pop\n      jump\t// out\n        /* \"#utility.yul\":5805:5989   */\n    tag_186:\n        /* \"#utility.yul\":5904:5915   */\n      0x00\n        /* \"#utility.yul\":5938:5944   */\n      dup3\n        /* \"#utility.yul\":5933:5936   */\n      dup3\n        /* \"#utility.yul\":5926:5945   */\n      mstore\n        /* \"#utility.yul\":5978:5982   */\n      0x20\n        /* \"#utility.yul\":5973:5976   */\n      dup3\n        /* \"#utility.yul\":5969:5983   */\n      add\n        /* \"#utility.yul\":5954:5983   */\n      swap1\n      pop\n        /* \"#utility.yul\":5805:5989   */\n      swap3\n      swap2\n      pop\n      pop\n      jump\t// out\n        /* \"#utility.yul\":5995:6127   */\n    tag_187:\n        /* \"#utility.yul\":6062:6066   */\n      0x00\n        /* \"#utility.yul\":6085:6088   */\n      dup2\n        /* \"#utility.yul\":6077:6088   */\n      swap1\n      pop\n        /* \"#utility.yul\":6115:6119   */\n      0x20\n        /* \"#utility.yul\":6110:6113   */\n      dup3\n        /* \"#utility.yul\":6106:6120   */\n      add\n        /* \"#utility.yul\":6098:6120   */\n      swap1\n      pop\n        /* \"#utility.yul\":5995:6127   */\n      swap2\n      swap1\n      pop\n      jump\t// out\n        /* \"#utility.yul\":6133:6241   */\n    tag_188:\n        /* \"#utility.yul\":6210:6234   */\n      tag_306\n        /* \"#utility.yul\":6228:6233   */\n      dup2\n        /* \"#utility.yul\":6210:6234   */\n      tag_166\n      jump\t// in\n    tag_306:\n        /* \"#utility.yul\":6205:6208   */\n      dup3\n        /* \"#utility.yul\":6198:6235   */\n      mstore\n        /* \"#utility.yul\":6133:6241   */\n      pop\n      pop\n      jump\t// out\n        /* \"#utility.yul\":6247:6426   */\n    tag_189:\n        /* \"#utility.yul\":6316:6326   */\n      0x00\n        /* \"#utility.yul\":6337:6383   */\n      tag_308\n        /* \"#utility.yul\":6379:6382   */\n      dup4\n        /* \"#utility.yul\":6371:6377   */\n      dup4\n        /* \"#utility.yul\":6337:6383   */\n      tag_188\n      jump\t// in\n    tag_308:\n        /* \"#utility.yul\":6415:6419   */\n      0x20\n        /* \"#utility.yul\":6410:6413   */\n      dup4\n        /* \"#utility.yul\":6406:6420   */\n      add\n        /* \"#utility.yul\":6392:6420   */\n      swap1\n      pop\n        /* \"#utility.yul\":6247:6426   */\n      swap3\n      swap2\n      pop\n      pop\n      jump\t// out\n        /* \"#utility.yul\":6432:6545   */\n    tag_190:\n        /* \"#utility.yul\":6502:6506   */\n      0x00\n        /* \"#utility.yul\":6534:6538   */\n      0x20\n        /* \"#utility.yul\":6529:6532   */\n      dup3\n        /* \"#utility.yul\":6525:6539   */\n      add\n        /* \"#utility.yul\":6517:6539   */\n      swap1\n      pop\n        /* \"#utility.yul\":6432:6545   */\n      swap2\n      swap1\n      pop\n      jump\t// out\n        /* \"#utility.yul\":6581:7313   */\n    tag_191:\n        /* \"#utility.yul\":6700:6703   */\n      0x00\n        /* \"#utility.yul\":6729:6783   */\n      tag_311\n        /* \"#utility.yul\":6777:6782   */\n      dup3\n        /* \"#utility.yul\":6729:6783   */\n      tag_185\n      jump\t// in\n    tag_311:\n        /* \"#utility.yul\":6799:6885   */\n      tag_312\n        /* \"#utility.yul\":6878:6884   */\n      dup2\n        /* \"#utility.yul\":6873:6876   */\n      dup6\n        /* \"#utility.yul\":6799:6885   */\n      tag_186\n      jump\t// in\n    tag_312:\n        /* \"#utility.yul\":6792:6885   */\n      swap4\n      pop\n        /* \"#utility.yul\":6909:6965   */\n      tag_313\n        /* \"#utility.yul\":6959:6964   */\n      dup4\n        /* \"#utility.yul\":6909:6965   */\n      tag_187\n      jump\t// in\n    tag_313:\n        /* \"#utility.yul\":6988:6995   */\n      dup1\n        /* \"#utility.yul\":7019:7020   */\n      0x00\n        /* \"#utility.yul\":7004:7288   */\n    tag_314:\n        /* \"#utility.yul\":7029:7035   */\n      dup4\n        /* \"#utility.yul\":7026:7027   */\n      dup2\n        /* \"#utility.yul\":7023:7036   */\n      lt\n        /* \"#utility.yul\":7004:7288   */\n      iszero\n      tag_316\n      jumpi\n        /* \"#utility.yul\":7105:7111   */\n      dup2\n        /* \"#utility.yul\":7099:7112   */\n      mload\n        /* \"#utility.yul\":7132:7195   */\n      tag_317\n        /* \"#utility.yul\":7191:7194   */\n      dup9\n        /* \"#utility.yul\":7176:7189   */\n      dup3\n        /* \"#utility.yul\":7132:7195   */\n      tag_189\n      jump\t// in\n    tag_317:\n        /* \"#utility.yul\":7125:7195   */\n      swap8\n      pop\n        /* \"#utility.yul\":7218:7278   */\n      tag_318\n        /* \"#utility.yul\":7271:7277   */\n      dup4\n        /* \"#utility.yul\":7218:7278   */\n      tag_190\n      jump\t// in\n    tag_318:\n        /* \"#utility.yul\":7208:7278   */\n      swap3\n      pop\n        /* \"#utility.yul\":7064:7288   */\n      pop\n        /* \"#utility.yul\":7051:7052   */\n      0x01\n        /* \"#utility.yul\":7048:7049   */\n      dup2\n        /* \"#utility.yul\":7044:7053   */\n      add\n        /* \"#utility.yul\":7039:7053   */\n      swap1\n      pop\n        /* \"#utility.yul\":7004:7288   */\n      jump(tag_314)\n    tag_316:\n        /* \"#utility.yul\":7008:7022   */\n      pop\n        /* \"#utility.yul\":7304:7307   */\n      dup6\n        /* \"#utility.yul\":7297:7307   */\n      swap4\n      pop\n        /* \"#utility.yul\":6705:7313   */\n      pop\n      pop\n      pop\n        /* \"#utility.yul\":6581:7313   */\n      swap3\n      swap2\n      pop\n      pop\n      jump\t// out\n        /* \"#utility.yul\":7319:7692   */\n    tag_35:\n        /* \"#utility.yul\":7462:7466   */\n      0x00\n        /* \"#utility.yul\":7500:7502   */\n      0x20\n        /* \"#utility.yul\":7489:7498   */\n      dup3\n        /* \"#utility.yul\":7485:7503   */\n      add\n        /* \"#utility.yul\":7477:7503   */\n      swap1\n      pop\n        /* \"#utility.yul\":7549:7558   */\n      dup2\n        /* \"#utility.yul\":7543:7547   */\n      dup2\n        /* \"#utility.yul\":7539:7559   */\n      sub\n        /* \"#utility.yul\":7535:7536   */\n      0x00\n        /* \"#utility.yul\":7524:7533   */\n      dup4\n        /* \"#utility.yul\":7520:7537   */\n      add\n        /* \"#utility.yul\":7513:7560   */\n      mstore\n        /* \"#utility.yul\":7577:7685   */\n      tag_320\n        /* \"#utility.yul\":7680:7684   */\n      dup2\n        /* \"#utility.yul\":7671:7677   */\n      dup5\n        /* \"#utility.yul\":7577:7685   */\n      tag_191\n      jump\t// in\n    tag_320:\n        /* \"#utility.yul\":7569:7685   */\n      swap1\n      pop\n        /* \"#utility.yul\":7319:7692   */\n      swap3\n      swap2\n      pop\n      pop\n      jump\t// out\n        /* \"#utility.yul\":7698:7867   */\n    tag_192:\n        /* \"#utility.yul\":7782:7793   */\n      0x00\n        /* \"#utility.yul\":7816:7822   */\n      dup3\n        /* \"#utility.yul\":7811:7814   */\n      dup3\n        /* \"#utility.yul\":7804:7823   */\n      mstore\n        /* \"#utility.yul\":7856:7860   */\n      0x20\n        /* \"#utility.yul\":7851:7854   */\n      dup3\n        /* \"#utility.yul\":7847:7861   */\n      add\n        /* \"#utility.yul\":7832:7861   */\n      swap1\n      pop\n        /* \"#utility.yul\":7698:7867   */\n      swap3\n      swap2\n      pop\n      pop\n      jump\t// out\n        /* \"#utility.yul\":7873:8045   */\n    tag_193:\n        /* \"#utility.yul\":8013:8037   */\n      0x4e6f742074686520636f6e7472616374206f776e657200000000000000000000\n        /* \"#utility.yul\":8009:8010   */\n      0x00\n        /* \"#utility.yul\":8001:8007   */\n      dup3\n        /* \"#utility.yul\":7997:8011   */\n      add\n        /* \"#utility.yul\":7990:8038   */\n      mstore\n        /* \"#utility.yul\":7873:8045   */\n      pop\n      jump\t// out\n        /* \"#utility.yul\":8051:8417   */\n    tag_194:\n        /* \"#utility.yul\":8193:8196   */\n      0x00\n        /* \"#utility.yul\":8214:8281   */\n      tag_324\n        /* \"#utility.yul\":8278:8280   */\n      0x16\n        /* \"#utility.yul\":8273:8276   */\n      dup4\n        /* \"#utility.yul\":8214:8281   */\n      tag_192\n      jump\t// in\n    tag_324:\n        /* \"#utility.yul\":8207:8281   */\n      swap2\n      pop\n        /* \"#utility.yul\":8290:8383   */\n      tag_325\n        /* \"#utility.yul\":8379:8382   */\n      dup3\n        /* \"#utility.yul\":8290:8383   */\n      tag_193\n      jump\t// in\n    tag_325:\n        /* \"#utility.yul\":8408:8410   */\n      0x20\n        /* \"#utility.yul\":8403:8406   */\n      dup3\n        /* \"#utility.yul\":8399:8411   */\n      add\n        /* \"#utility.yul\":8392:8411   */\n      swap1\n      pop\n        /* \"#utility.yul\":8051:8417   */\n      swap2\n      swap1\n      pop\n      jump\t// out\n        /* \"#utility.yul\":8423:8842   */\n    tag_39:\n        /* \"#utility.yul\":8589:8593   */\n      0x00\n        /* \"#utility.yul\":8627:8629   */\n      0x20\n        /* \"#utility.yul\":8616:8625   */\n      dup3\n        /* \"#utility.yul\":8612:8630   */\n      add\n        /* \"#utility.yul\":8604:8630   */\n      swap1\n      pop\n        /* \"#utility.yul\":8676:8685   */\n      dup2\n        /* \"#utility.yul\":8670:8674   */\n      dup2\n        /* \"#utility.yul\":8666:8686   */\n      sub\n        /* \"#utility.yul\":8662:8663   */\n      0x00\n        /* \"#utility.yul\":8651:8660   */\n      dup4\n        /* \"#utility.yul\":8647:8664   */\n      add\n        /* \"#utility.yul\":8640:8687   */\n      mstore\n        /* \"#utility.yul\":8704:8835   */\n      tag_327\n        /* \"#utility.yul\":8830:8834   */\n      dup2\n        /* \"#utility.yul\":8704:8835   */\n      tag_194\n      jump\t// in\n    tag_327:\n        /* \"#utility.yul\":8696:8835   */\n      swap1\n      pop\n        /* \"#utility.yul\":8423:8842   */\n      swap2\n      swap1\n      pop\n      jump\t// out\n        /* \"#utility.yul\":8848:9024   */\n    tag_195:\n        /* \"#utility.yul\":8988:9016   */\n      0x4164647265737320616c726561647920617574686f72697a6564000000000000\n        /* \"#utility.yul\":8984:8985   */\n      0x00\n        /* \"#utility.yul\":8976:8982   */\n      dup3\n        /* \"#utility.yul\":8972:8986   */\n      add\n        /* \"#utility.yul\":8965:9017   */\n      mstore\n        /* \"#utility.yul\":8848:9024   */\n      pop\n      jump\t// out\n        /* \"#utility.yul\":9030:9396   */\n    tag_196:\n        /* \"#utility.yul\":9172:9175   */\n      0x00\n        /* \"#utility.yul\":9193:9260   */\n      tag_330\n        /* \"#utility.yul\":9257:9259   */\n      0x1a\n        /* \"#utility.yul\":9252:9255   */\n      dup4\n        /* \"#utility.yul\":9193:9260   */\n      tag_192\n      jump\t// in\n    tag_330:\n        /* \"#utility.yul\":9186:9260   */\n      swap2\n      pop\n        /* \"#utility.yul\":9269:9362   */\n      tag_331\n        /* \"#utility.yul\":9358:9361   */\n      dup3\n        /* \"#utility.yul\":9269:9362   */\n      tag_195\n      jump\t// in\n    tag_331:\n        /* \"#utility.yul\":9387:9389   */\n      0x20\n        /* \"#utility.yul\":9382:9385   */\n      dup3\n        /* \"#utility.yul\":9378:9390   */\n      add\n        /* \"#utility.yul\":9371:9390   */\n      swap1\n      pop\n        /* \"#utility.yul\":9030:9396   */\n      swap2\n      swap1\n      pop\n      jump\t// out\n        /* \"#utility.yul\":9402:9821   */\n    tag_45:\n        /* \"#utility.yul\":9568:9572   */\n      0x00\n        /* \"#utility.yul\":9606:9608   */\n      0x20\n        /* \"#utility.yul\":9595:9604   */\n      dup3\n        /* \"#utility.yul\":9591:9609   */\n      add\n        /* \"#utility.yul\":9583:9609   */\n      swap1\n      pop\n        /* \"#utility.yul\":9655:9664   */\n      dup2\n        /* \"#utility.yul\":9649:9653   */\n      dup2\n        /* \"#utility.yul\":9645:9665   */\n      sub\n        /* \"#utility.yul\":9641:9642   */\n      0x00\n        /* \"#utility.yul\":9630:9639   */\n      dup4\n        /* \"#utility.yul\":9626:9643   */\n      add\n        /* \"#utility.yul\":9619:9666   */\n      mstore\n        /* \"#utility.yul\":9683:9814   */\n      tag_333\n        /* \"#utility.yul\":9809:9813   */\n      dup2\n        /* \"#utility.yul\":9683:9814   */\n      tag_196\n      jump\t// in\n    tag_333:\n        /* \"#utility.yul\":9675:9814   */\n      swap1\n      pop\n        /* \"#utility.yul\":9402:9821   */\n      swap2\n      swap1\n      pop\n      jump\t// out\n        /* \"#utility.yul\":9827:9999   */\n    tag_197:\n        /* \"#utility.yul\":9967:9991   */\n      0x41646472657373206e6f7420617574686f72697a656400000000000000000000\n        /* \"#utility.yul\":9963:9964   */\n      0x00\n        /* \"#utility.yul\":9955:9961   */\n      dup3\n        /* \"#utility.yul\":9951:9965   */\n      add\n        /* \"#utility.yul\":9944:9992   */\n      mstore\n        /* \"#utility.yul\":9827:9999   */\n      pop\n      jump\t// out\n        /* \"#utility.yul\":10005:10371   */\n    tag_198:\n        /* \"#utility.yul\":10147:10150   */\n      0x00\n        /* \"#utility.yul\":10168:10235   */\n      tag_336\n        /* \"#utility.yul\":10232:10234   */\n      0x16\n        /* \"#utility.yul\":10227:10230   */\n      dup4\n        /* \"#utility.yul\":10168:10235   */\n      tag_192\n      jump\t// in\n    tag_336:\n        /* \"#utility.yul\":10161:10235   */\n      swap2\n      pop\n        /* \"#utility.yul\":10244:10337   */\n      tag_337\n        /* \"#utility.yul\":10333:10336   */\n      dup3\n        /* \"#utility.yul\":10244:10337   */\n      tag_197\n      jump\t// in\n    tag_337:\n        /* \"#utility.yul\":10362:10364   */\n      0x20\n        /* \"#utility.yul\":10357:10360   */\n      dup3\n        /* \"#utility.yul\":10353:10365   */\n      add\n        /* \"#utility.yul\":10346:10365   */\n      swap1\n      pop\n        /* \"#utility.yul\":10005:10371   */\n      swap2\n      swap1\n      pop\n      jump\t// out\n        /* \"#utility.yul\":10377:10796   */\n    tag_55:\n        /* \"#utility.yul\":10543:10547   */\n      0x00\n        /* \"#utility.yul\":10581:10583   */\n      0x20\n        /* \"#utility.yul\":10570:10579   */\n      dup3\n        /* \"#utility.yul\":10566:10584   */\n      add\n        /* \"#utility.yul\":10558:10584   */\n      swap1\n      pop\n        /* \"#utility.yul\":10630:10639   */\n      dup2\n        /* \"#utility.yul\":10624:10628   */\n      dup2\n        /* \"#utility.yul\":10620:10640   */\n      sub\n        /* \"#utility.yul\":10616:10617   */\n      0x00\n        /* \"#utility.yul\":10605:10614   */\n      dup4\n        /* \"#utility.yul\":10601:10618   */\n      add\n        /* \"#utility.yul\":10594:10641   */\n      mstore\n        /* \"#utility.yul\":10658:10789   */\n      tag_339\n        /* \"#utility.yul\":10784:10788   */\n      dup2\n        /* \"#utility.yul\":10658:10789   */\n      tag_198\n      jump\t// in\n    tag_339:\n        /* \"#utility.yul\":10650:10789   */\n      swap1\n      pop\n        /* \"#utility.yul\":10377:10796   */\n      swap2\n      swap1\n      pop\n      jump\t// out\n        /* \"#utility.yul\":10802:10977   */\n    tag_199:\n        /* \"#utility.yul\":10942:10969   */\n      0x41646472657373206973206e6f7420617574686f72697a656400000000000000\n        /* \"#utility.yul\":10938:10939   */\n      0x00\n        /* \"#utility.yul\":10930:10936   */\n      dup3\n        /* \"#utility.yul\":10926:10940   */\n      add\n        /* \"#utility.yul\":10919:10970   */\n      mstore\n        /* \"#utility.yul\":10802:10977   */\n      pop\n      jump\t// out\n        /* \"#utility.yul\":10983:11349   */\n    tag_200:\n        /* \"#utility.yul\":11125:11128   */\n      0x00\n        /* \"#utility.yul\":11146:11213   */\n      tag_342\n        /* \"#utility.yul\":11210:11212   */\n      0x19\n        /* \"#utility.yul\":11205:11208   */\n      dup4\n        /* \"#utility.yul\":11146:11213   */\n      tag_192\n      jump\t// in\n    tag_342:\n        /* \"#utility.yul\":11139:11213   */\n      swap2\n      pop\n        /* \"#utility.yul\":11222:11315   */\n      tag_343\n        /* \"#utility.yul\":11311:11314   */\n      dup3\n        /* \"#utility.yul\":11222:11315   */\n      tag_199\n      jump\t// in\n    tag_343:\n        /* \"#utility.yul\":11340:11342   */\n      0x20\n        /* \"#utility.yul\":11335:11338   */\n      dup3\n        /* \"#utility.yul\":11331:11343   */\n      add\n        /* \"#utility.yul\":11324:11343   */\n      swap1\n      pop\n        /* \"#utility.yul\":10983:11349   */\n      swap2\n      swap1\n      pop\n      jump\t// out\n        /* \"#utility.yul\":11355:11774   */\n    tag_62:\n        /* \"#utility.yul\":11521:11525   */\n      0x00\n        /* \"#utility.yul\":11559:11561   */\n      0x20\n        /* \"#utility.yul\":11548:11557   */\n      dup3\n        /* \"#utility.yul\":11544:11562   */\n      add\n        /* \"#utility.yul\":11536:11562   */\n      swap1\n      pop\n        /* \"#utility.yul\":11608:11617   */\n      dup2\n        /* \"#utility.yul\":11602:11606   */\n      dup2\n        /* \"#utility.yul\":11598:11618   */\n      sub\n        /* \"#utility.yul\":11594:11595   */\n      0x00\n        /* \"#utility.yul\":11583:11592   */\n      dup4\n        /* \"#utility.yul\":11579:11596   */\n      add\n        /* \"#utility.yul\":11572:11619   */\n      mstore\n        /* \"#utility.yul\":11636:11767   */\n      tag_345\n        /* \"#utility.yul\":11762:11766   */\n      dup2\n        /* \"#utility.yul\":11636:11767   */\n      tag_200\n      jump\t// in\n    tag_345:\n        /* \"#utility.yul\":11628:11767   */\n      swap1\n      pop\n        /* \"#utility.yul\":11355:11774   */\n      swap2\n      swap1\n      pop\n      jump\t// out\n        /* \"#utility.yul\":11780:11874   */\n    tag_201:\n        /* \"#utility.yul\":11813:11821   */\n      0x00\n        /* \"#utility.yul\":11861:11866   */\n      dup2\n        /* \"#utility.yul\":11857:11859   */\n      0x60\n        /* \"#utility.yul\":11853:11867   */\n      shl\n        /* \"#utility.yul\":11832:11867   */\n      swap1\n      pop\n        /* \"#utility.yul\":11780:11874   */\n      swap2\n      swap1\n      pop\n      jump\t// out\n        /* \"#utility.yul\":11880:11974   */\n    tag_202:\n        /* \"#utility.yul\":11919:11926   */\n      0x00\n        /* \"#utility.yul\":11948:11968   */\n      tag_348\n        /* \"#utility.yul\":11962:11967   */\n      dup3\n        /* \"#utility.yul\":11948:11968   */\n      tag_201\n      jump\t// in\n    tag_348:\n        /* \"#utility.yul\":11937:11968   */\n      swap1\n      pop\n        /* \"#utility.yul\":11880:11974   */\n      swap2\n      swap1\n      pop\n      jump\t// out\n        /* \"#utility.yul\":11980:12088   */\n    tag_203:\n        /* \"#utility.yul\":12027:12034   */\n      0x00\n        /* \"#utility.yul\":12056:12082   */\n      tag_350\n        /* \"#utility.yul\":12076:12081   */\n      dup3\n        /* \"#utility.yul\":12056:12082   */\n      tag_202\n      jump\t// in\n    tag_350:\n        /* \"#utility.yul\":12045:12082   */\n      swap1\n      pop\n        /* \"#utility.yul\":11980:12088   */\n      swap2\n      swap1\n      pop\n      jump\t// out\n        /* \"#utility.yul\":12094:12283   */\n    tag_204:\n        /* \"#utility.yul\":12215:12276   */\n      tag_352\n        /* \"#utility.yul\":12243:12275   */\n      tag_353\n        /* \"#utility.yul\":12269:12274   */\n      dup3\n        /* \"#utility.yul\":12243:12275   */\n      tag_169\n      jump\t// in\n    tag_353:\n        /* \"#utility.yul\":12215:12276   */\n      tag_203\n      jump\t// in\n    tag_352:\n        /* \"#utility.yul\":12210:12213   */\n      dup3\n        /* \"#utility.yul\":12203:12277   */\n      mstore\n        /* \"#utility.yul\":12094:12283   */\n      pop\n      pop\n      jump\t// out\n        /* \"#utility.yul\":12289:12368   */\n    tag_205:\n        /* \"#utility.yul\":12328:12335   */\n      0x00\n        /* \"#utility.yul\":12357:12362   */\n      dup2\n        /* \"#utility.yul\":12346:12362   */\n      swap1\n      pop\n        /* \"#utility.yul\":12289:12368   */\n      swap2\n      swap1\n      pop\n      jump\t// out\n        /* \"#utility.yul\":12374:12531   */\n    tag_206:\n        /* \"#utility.yul\":12479:12524   */\n      tag_356\n        /* \"#utility.yul\":12499:12523   */\n      tag_357\n        /* \"#utility.yul\":12517:12522   */\n      dup3\n        /* \"#utility.yul\":12499:12523   */\n      tag_160\n      jump\t// in\n    tag_357:\n        /* \"#utility.yul\":12479:12524   */\n      tag_205\n      jump\t// in\n    tag_356:\n        /* \"#utility.yul\":12474:12477   */\n      dup3\n        /* \"#utility.yul\":12467:12525   */\n      mstore\n        /* \"#utility.yul\":12374:12531   */\n      pop\n      pop\n      jump\t// out\n        /* \"#utility.yul\":12537:12637   */\n    tag_207:\n        /* \"#utility.yul\":12576:12583   */\n      0x00\n        /* \"#utility.yul\":12605:12631   */\n      tag_359\n        /* \"#utility.yul\":12625:12630   */\n      dup3\n        /* \"#utility.yul\":12605:12631   */\n      tag_202\n      jump\t// in\n    tag_359:\n        /* \"#utility.yul\":12594:12631   */\n      swap1\n      pop\n        /* \"#utility.yul\":12537:12637   */\n      swap2\n      swap1\n      pop\n      jump\t// out\n        /* \"#utility.yul\":12643:12800   */\n    tag_208:\n        /* \"#utility.yul\":12748:12793   */\n      tag_361\n        /* \"#utility.yul\":12768:12792   */\n      tag_362\n        /* \"#utility.yul\":12786:12791   */\n      dup3\n        /* \"#utility.yul\":12768:12792   */\n      tag_166\n      jump\t// in\n    tag_362:\n        /* \"#utility.yul\":12748:12793   */\n      tag_207\n      jump\t// in\n    tag_361:\n        /* \"#utility.yul\":12743:12746   */\n      dup3\n        /* \"#utility.yul\":12736:12794   */\n      mstore\n        /* \"#utility.yul\":12643:12800   */\n      pop\n      pop\n      jump\t// out\n        /* \"#utility.yul\":12806:13376   */\n    tag_65:\n        /* \"#utility.yul\":12990:12993   */\n      0x00\n        /* \"#utility.yul\":13005:13096   */\n      tag_364\n        /* \"#utility.yul\":13092:13095   */\n      dup3\n        /* \"#utility.yul\":13083:13089   */\n      dup7\n        /* \"#utility.yul\":13005:13096   */\n      tag_204\n      jump\t// in\n    tag_364:\n        /* \"#utility.yul\":13121:13123   */\n      0x14\n        /* \"#utility.yul\":13116:13119   */\n      dup3\n        /* \"#utility.yul\":13112:13124   */\n      add\n        /* \"#utility.yul\":13105:13124   */\n      swap2\n      pop\n        /* \"#utility.yul\":13134:13209   */\n      tag_365\n        /* \"#utility.yul\":13205:13208   */\n      dup3\n        /* \"#utility.yul\":13196:13202   */\n      dup6\n        /* \"#utility.yul\":13134:13209   */\n      tag_206\n      jump\t// in\n    tag_365:\n        /* \"#utility.yul\":13234:13236   */\n      0x20\n        /* \"#utility.yul\":13229:13232   */\n      dup3\n        /* \"#utility.yul\":13225:13237   */\n      add\n        /* \"#utility.yul\":13218:13237   */\n      swap2\n      pop\n        /* \"#utility.yul\":13247:13322   */\n      tag_366\n        /* \"#utility.yul\":13318:13321   */\n      dup3\n        /* \"#utility.yul\":13309:13315   */\n      dup5\n        /* \"#utility.yul\":13247:13322   */\n      tag_208\n      jump\t// in\n    tag_366:\n        /* \"#utility.yul\":13347:13349   */\n      0x14\n        /* \"#utility.yul\":13342:13345   */\n      dup3\n        /* \"#utility.yul\":13338:13350   */\n      add\n        /* \"#utility.yul\":13331:13350   */\n      swap2\n      pop\n        /* \"#utility.yul\":13367:13370   */\n      dup2\n        /* \"#utility.yul\":13360:13370   */\n      swap1\n      pop\n        /* \"#utility.yul\":12806:13376   */\n      swap5\n      swap4\n      pop\n      pop\n      pop\n      pop\n      jump\t// out\n        /* \"#utility.yul\":13382:13549   */\n    tag_209:\n        /* \"#utility.yul\":13522:13541   */\n      0x496e76616c6964207369676e6174757265000000000000000000000000000000\n        /* \"#utility.yul\":13518:13519   */\n      0x00\n        /* \"#utility.yul\":13510:13516   */\n      dup3\n        /* \"#utility.yul\":13506:13520   */\n      add\n        /* \"#utility.yul\":13499:13542   */\n      mstore\n        /* \"#utility.yul\":13382:13549   */\n      pop\n      jump\t// out\n        /* \"#utility.yul\":13555:13921   */\n    tag_210:\n        /* \"#utility.yul\":13697:13700   */\n      0x00\n        /* \"#utility.yul\":13718:13785   */\n      tag_369\n        /* \"#utility.yul\":13782:13784   */\n      0x11\n        /* \"#utility.yul\":13777:13780   */\n      dup4\n        /* \"#utility.yul\":13718:13785   */\n      tag_192\n      jump\t// in\n    tag_369:\n        /* \"#utility.yul\":13711:13785   */\n      swap2\n      pop\n        /* \"#utility.yul\":13794:13887   */\n      tag_370\n        /* \"#utility.yul\":13883:13886   */\n      dup3\n        /* \"#utility.yul\":13794:13887   */\n      tag_209\n      jump\t// in\n    tag_370:\n        /* \"#utility.yul\":13912:13914   */\n      0x20\n        /* \"#utility.yul\":13907:13910   */\n      dup3\n        /* \"#utility.yul\":13903:13915   */\n      add\n        /* \"#utility.yul\":13896:13915   */\n      swap1\n      pop\n        /* \"#utility.yul\":13555:13921   */\n      swap2\n      swap1\n      pop\n      jump\t// out\n        /* \"#utility.yul\":13927:14346   */\n    tag_72:\n        /* \"#utility.yul\":14093:14097   */\n      0x00\n        /* \"#utility.yul\":14131:14133   */\n      0x20\n        /* \"#utility.yul\":14120:14129   */\n      dup3\n        /* \"#utility.yul\":14116:14134   */\n      add\n        /* \"#utility.yul\":14108:14134   */\n      swap1\n      pop\n        /* \"#utility.yul\":14180:14189   */\n      dup2\n        /* \"#utility.yul\":14174:14178   */\n      dup2\n        /* \"#utility.yul\":14170:14190   */\n      sub\n        /* \"#utility.yul\":14166:14167   */\n      0x00\n        /* \"#utility.yul\":14155:14164   */\n      dup4\n        /* \"#utility.yul\":14151:14168   */\n      add\n        /* \"#utility.yul\":14144:14191   */\n      mstore\n        /* \"#utility.yul\":14208:14339   */\n      tag_372\n        /* \"#utility.yul\":14334:14338   */\n      dup2\n        /* \"#utility.yul\":14208:14339   */\n      tag_210\n      jump\t// in\n    tag_372:\n        /* \"#utility.yul\":14200:14339   */\n      swap1\n      pop\n        /* \"#utility.yul\":13927:14346   */\n      swap2\n      swap1\n      pop\n      jump\t// out\n        /* \"#utility.yul\":14352:14522   */\n    tag_211:\n        /* \"#utility.yul\":14492:14514   */\n      0x496e73756666696369656e742062616c616e6365000000000000000000000000\n        /* \"#utility.yul\":14488:14489   */\n      0x00\n        /* \"#utility.yul\":14480:14486   */\n      dup3\n        /* \"#utility.yul\":14476:14490   */\n      add\n        /* \"#utility.yul\":14469:14515   */\n      mstore\n        /* \"#utility.yul\":14352:14522   */\n      pop\n      jump\t// out\n        /* \"#utility.yul\":14528:14894   */\n    tag_212:\n        /* \"#utility.yul\":14670:14673   */\n      0x00\n        /* \"#utility.yul\":14691:14758   */\n      tag_375\n        /* \"#utility.yul\":14755:14757   */\n      0x14\n        /* \"#utility.yul\":14750:14753   */\n      dup4\n        /* \"#utility.yul\":14691:14758   */\n      tag_192\n      jump\t// in\n    tag_375:\n        /* \"#utility.yul\":14684:14758   */\n      swap2\n      pop\n        /* \"#utility.yul\":14767:14860   */\n      tag_376\n        /* \"#utility.yul\":14856:14859   */\n      dup3\n        /* \"#utility.yul\":14767:14860   */\n      tag_211\n      jump\t// in\n    tag_376:\n        /* \"#utility.yul\":14885:14887   */\n      0x20\n        /* \"#utility.yul\":14880:14883   */\n      dup3\n        /* \"#utility.yul\":14876:14888   */\n      add\n        /* \"#utility.yul\":14869:14888   */\n      swap1\n      pop\n        /* \"#utility.yul\":14528:14894   */\n      swap2\n      swap1\n      pop\n      jump\t// out\n        /* \"#utility.yul\":14900:15319   */\n    tag_75:\n        /* \"#utility.yul\":15066:15070   */\n      0x00\n        /* \"#utility.yul\":15104:15106   */\n      0x20\n        /* \"#utility.yul\":15093:15102   */\n      dup3\n        /* \"#utility.yul\":15089:15107   */\n      add\n        /* \"#utility.yul\":15081:15107   */\n      swap1\n      pop\n        /* \"#utility.yul\":15153:15162   */\n      dup2\n        /* \"#utility.yul\":15147:15151   */\n      dup2\n        /* \"#utility.yul\":15143:15163   */\n      sub\n        /* \"#utility.yul\":15139:15140   */\n      0x00\n        /* \"#utility.yul\":15128:15137   */\n      dup4\n        /* \"#utility.yul\":15124:15141   */\n      add\n        /* \"#utility.yul\":15117:15164   */\n      mstore\n        /* \"#utility.yul\":15181:15312   */\n      tag_378\n        /* \"#utility.yul\":15307:15311   */\n      dup2\n        /* \"#utility.yul\":15181:15312   */\n      tag_212\n      jump\t// in\n    tag_378:\n        /* \"#utility.yul\":15173:15312   */\n      swap1\n      pop\n        /* \"#utility.yul\":14900:15319   */\n      swap2\n      swap1\n      pop\n      jump\t// out\n        /* \"#utility.yul\":15325:15473   */\n    tag_213:\n        /* \"#utility.yul\":15427:15438   */\n      0x00\n        /* \"#utility.yul\":15464:15467   */\n      dup2\n        /* \"#utility.yul\":15449:15467   */\n      swap1\n      pop\n        /* \"#utility.yul\":15325:15473   */\n      swap3\n      swap2\n      pop\n      pop\n      jump\t// out\n        /* \"#utility.yul\":15479:15693   */\n    tag_214:\n        /* \"#utility.yul\":15619:15685   */\n      0x19457468657265756d205369676e6564204d6573736167653a0a333200000000\n        /* \"#utility.yul\":15615:15616   */\n      0x00\n        /* \"#utility.yul\":15607:15613   */\n      dup3\n        /* \"#utility.yul\":15603:15617   */\n      add\n        /* \"#utility.yul\":15596:15686   */\n      mstore\n        /* \"#utility.yul\":15479:15693   */\n      pop\n      jump\t// out\n        /* \"#utility.yul\":15699:16101   */\n    tag_215:\n        /* \"#utility.yul\":15859:15862   */\n      0x00\n        /* \"#utility.yul\":15880:15965   */\n      tag_382\n        /* \"#utility.yul\":15962:15964   */\n      0x1c\n        /* \"#utility.yul\":15957:15960   */\n      dup4\n        /* \"#utility.yul\":15880:15965   */\n      tag_213\n      jump\t// in\n    tag_382:\n        /* \"#utility.yul\":15873:15965   */\n      swap2\n      pop\n        /* \"#utility.yul\":15974:16067   */\n      tag_383\n        /* \"#utility.yul\":16063:16066   */\n      dup3\n        /* \"#utility.yul\":15974:16067   */\n      tag_214\n      jump\t// in\n    tag_383:\n        /* \"#utility.yul\":16092:16094   */\n      0x1c\n        /* \"#utility.yul\":16087:16090   */\n      dup3\n        /* \"#utility.yul\":16083:16095   */\n      add\n        /* \"#utility.yul\":16076:16095   */\n      swap1\n      pop\n        /* \"#utility.yul\":15699:16101   */\n      swap2\n      swap1\n      pop\n      jump\t// out\n        /* \"#utility.yul\":16107:16184   */\n    tag_216:\n        /* \"#utility.yul\":16144:16151   */\n      0x00\n        /* \"#utility.yul\":16173:16178   */\n      dup2\n        /* \"#utility.yul\":16162:16178   */\n      swap1\n      pop\n        /* \"#utility.yul\":16107:16184   */\n      swap2\n      swap1\n      pop\n      jump\t// out\n        /* \"#utility.yul\":16190:16269   */\n    tag_217:\n        /* \"#utility.yul\":16229:16236   */\n      0x00\n        /* \"#utility.yul\":16258:16263   */\n      dup2\n        /* \"#utility.yul\":16247:16263   */\n      swap1\n      pop\n        /* \"#utility.yul\":16190:16269   */\n      swap2\n      swap1\n      pop\n      jump\t// out\n        /* \"#utility.yul\":16275:16432   */\n    tag_218:\n        /* \"#utility.yul\":16380:16425   */\n      tag_387\n        /* \"#utility.yul\":16400:16424   */\n      tag_388\n        /* \"#utility.yul\":16418:16423   */\n      dup3\n        /* \"#utility.yul\":16400:16424   */\n      tag_216\n      jump\t// in\n    tag_388:\n        /* \"#utility.yul\":16380:16425   */\n      tag_217\n      jump\t// in\n    tag_387:\n        /* \"#utility.yul\":16375:16378   */\n      dup3\n        /* \"#utility.yul\":16368:16426   */\n      mstore\n        /* \"#utility.yul\":16275:16432   */\n      pop\n      pop\n      jump\t// out\n        /* \"#utility.yul\":16438:16960   */\n    tag_93:\n        /* \"#utility.yul\":16651:16654   */\n      0x00\n        /* \"#utility.yul\":16673:16821   */\n      tag_390\n        /* \"#utility.yul\":16817:16820   */\n      dup3\n        /* \"#utility.yul\":16673:16821   */\n      tag_215\n      jump\t// in\n    tag_390:\n        /* \"#utility.yul\":16666:16821   */\n      swap2\n      pop\n        /* \"#utility.yul\":16831:16906   */\n      tag_391\n        /* \"#utility.yul\":16902:16905   */\n      dup3\n        /* \"#utility.yul\":16893:16899   */\n      dup5\n        /* \"#utility.yul\":16831:16906   */\n      tag_218\n      jump\t// in\n    tag_391:\n        /* \"#utility.yul\":16931:16933   */\n      0x20\n        /* \"#utility.yul\":16926:16929   */\n      dup3\n        /* \"#utility.yul\":16922:16934   */\n      add\n        /* \"#utility.yul\":16915:16934   */\n      swap2\n      pop\n        /* \"#utility.yul\":16951:16954   */\n      dup2\n        /* \"#utility.yul\":16944:16954   */\n      swap1\n      pop\n        /* \"#utility.yul\":16438:16960   */\n      swap3\n      swap2\n      pop\n      pop\n      jump\t// out\n        /* \"#utility.yul\":16966:17146   */\n    tag_99:\n        /* \"#utility.yul\":17014:17091   */\n      0x4e487b7100000000000000000000000000000000000000000000000000000000\n        /* \"#utility.yul\":17011:17012   */\n      0x00\n        /* \"#utility.yul\":17004:17092   */\n      mstore\n        /* \"#utility.yul\":17111:17115   */\n      0x21\n        /* \"#utility.yul\":17108:17109   */\n      0x04\n        /* \"#utility.yul\":17101:17116   */\n      mstore\n        /* \"#utility.yul\":17135:17139   */\n      0x24\n        /* \"#utility.yul\":17132:17133   */\n      0x00\n        /* \"#utility.yul\":17125:17140   */\n      revert\n        /* \"#utility.yul\":17152:17332   */\n    tag_219:\n        /* \"#utility.yul\":17200:17277   */\n      0x4e487b7100000000000000000000000000000000000000000000000000000000\n        /* \"#utility.yul\":17197:17198   */\n      0x00\n        /* \"#utility.yul\":17190:17278   */\n      mstore\n        /* \"#utility.yul\":17297:17301   */\n      0x11\n        /* \"#utility.yul\":17294:17295   */\n      0x04\n        /* \"#utility.yul\":17287:17302   */\n      mstore\n        /* \"#utility.yul\":17321:17325   */\n      0x24\n        /* \"#utility.yul\":17318:17319   */\n      0x00\n        /* \"#utility.yul\":17311:17326   */\n      revert\n        /* \"#utility.yul\":17338:17532   */\n    tag_118:\n        /* \"#utility.yul\":17378:17382   */\n      0x00\n        /* \"#utility.yul\":17398:17418   */\n      tag_395\n        /* \"#utility.yul\":17416:17417   */\n      dup3\n        /* \"#utility.yul\":17398:17418   */\n      tag_160\n      jump\t// in\n    tag_395:\n        /* \"#utility.yul\":17393:17418   */\n      swap2\n      pop\n        /* \"#utility.yul\":17432:17452   */\n      tag_396\n        /* \"#utility.yul\":17450:17451   */\n      dup4\n        /* \"#utility.yul\":17432:17452   */\n      tag_160\n      jump\t// in\n    tag_396:\n        /* \"#utility.yul\":17427:17452   */\n      swap3\n      pop\n        /* \"#utility.yul\":17476:17477   */\n      dup3\n        /* \"#utility.yul\":17473:17474   */\n      dup3\n        /* \"#utility.yul\":17469:17478   */\n      sub\n        /* \"#utility.yul\":17461:17478   */\n      swap1\n      pop\n        /* \"#utility.yul\":17500:17501   */\n      dup2\n        /* \"#utility.yul\":17494:17498   */\n      dup2\n        /* \"#utility.yul\":17491:17502   */\n      gt\n        /* \"#utility.yul\":17488:17525   */\n      iszero\n      tag_397\n      jumpi\n        /* \"#utility.yul\":17505:17523   */\n      tag_398\n      tag_219\n      jump\t// in\n    tag_398:\n        /* \"#utility.yul\":17488:17525   */\n    tag_397:\n        /* \"#utility.yul\":17338:17532   */\n      swap3\n      swap2\n      pop\n      pop\n      jump\t// out\n        /* \"#utility.yul\":17538:17718   */\n    tag_123:\n        /* \"#utility.yul\":17586:17663   */\n      0x4e487b7100000000000000000000000000000000000000000000000000000000\n        /* \"#utility.yul\":17583:17584   */\n      0x00\n        /* \"#utility.yul\":17576:17664   */\n      mstore\n        /* \"#utility.yul\":17683:17687   */\n      0x32\n        /* \"#utility.yul\":17680:17681   */\n      0x04\n        /* \"#utility.yul\":17673:17688   */\n      mstore\n        /* \"#utility.yul\":17707:17711   */\n      0x24\n        /* \"#utility.yul\":17704:17705   */\n      0x00\n        /* \"#utility.yul\":17697:17712   */\n      revert\n        /* \"#utility.yul\":17724:17904   */\n    tag_130:\n        /* \"#utility.yul\":17772:17849   */\n      0x4e487b7100000000000000000000000000000000000000000000000000000000\n        /* \"#utility.yul\":17769:17770   */\n      0x00\n        /* \"#utility.yul\":17762:17850   */\n      mstore\n        /* \"#utility.yul\":17869:17873   */\n      0x31\n        /* \"#utility.yul\":17866:17867   */\n      0x04\n        /* \"#utility.yul\":17859:17874   */\n      mstore\n        /* \"#utility.yul\":17893:17897   */\n      0x24\n        /* \"#utility.yul\":17890:17891   */\n      0x00\n        /* \"#utility.yul\":17883:17898   */\n      revert\n        /* \"#utility.yul\":17910:18028   */\n    tag_220:\n        /* \"#utility.yul\":17997:18021   */\n      tag_402\n        /* \"#utility.yul\":18015:18020   */\n      dup2\n        /* \"#utility.yul\":17997:18021   */\n      tag_216\n      jump\t// in\n    tag_402:\n        /* \"#utility.yul\":17992:17995   */\n      dup3\n        /* \"#utility.yul\":17985:18022   */\n      mstore\n        /* \"#utility.yul\":17910:18028   */\n      pop\n      pop\n      jump\t// out\n        /* \"#utility.yul\":18034:18132   */\n    tag_221:\n        /* \"#utility.yul\":18085:18091   */\n      0x00\n        /* \"#utility.yul\":18119:18124   */\n      dup2\n        /* \"#utility.yul\":18113:18125   */\n      mload\n        /* \"#utility.yul\":18103:18125   */\n      swap1\n      pop\n        /* \"#utility.yul\":18034:18132   */\n      swap2\n      swap1\n      pop\n      jump\t// out\n        /* \"#utility.yul\":18138:18306   */\n    tag_222:\n        /* \"#utility.yul\":18221:18232   */\n      0x00\n        /* \"#utility.yul\":18255:18261   */\n      dup3\n        /* \"#utility.yul\":18250:18253   */\n      dup3\n        /* \"#utility.yul\":18243:18262   */\n      mstore\n        /* \"#utility.yul\":18295:18299   */\n      0x20\n        /* \"#utility.yul\":18290:18293   */\n      dup3\n        /* \"#utility.yul\":18286:18300   */\n      add\n        /* \"#utility.yul\":18271:18300   */\n      swap1\n      pop\n        /* \"#utility.yul\":18138:18306   */\n      swap3\n      swap2\n      pop\n      pop\n      jump\t// out\n        /* \"#utility.yul\":18312:18451   */\n    tag_223:\n        /* \"#utility.yul\":18401:18407   */\n      dup3\n        /* \"#utility.yul\":18396:18399   */\n      dup2\n        /* \"#utility.yul\":18391:18394   */\n      dup4\n        /* \"#utility.yul\":18385:18408   */\n      mcopy\n        /* \"#utility.yul\":18442:18443   */\n      0x00\n        /* \"#utility.yul\":18433:18439   */\n      dup4\n        /* \"#utility.yul\":18428:18431   */\n      dup4\n        /* \"#utility.yul\":18424:18440   */\n      add\n        /* \"#utility.yul\":18417:18444   */\n      mstore\n        /* \"#utility.yul\":18312:18451   */\n      pop\n      pop\n      pop\n      jump\t// out\n        /* \"#utility.yul\":18457:18830   */\n    tag_224:\n        /* \"#utility.yul\":18543:18546   */\n      0x00\n        /* \"#utility.yul\":18571:18609   */\n      tag_407\n        /* \"#utility.yul\":18603:18608   */\n      dup3\n        /* \"#utility.yul\":18571:18609   */\n      tag_221\n      jump\t// in\n    tag_407:\n        /* \"#utility.yul\":18625:18695   */\n      tag_408\n        /* \"#utility.yul\":18688:18694   */\n      dup2\n        /* \"#utility.yul\":18683:18686   */\n      dup6\n        /* \"#utility.yul\":18625:18695   */\n      tag_222\n      jump\t// in\n    tag_408:\n        /* \"#utility.yul\":18618:18695   */\n      swap4\n      pop\n        /* \"#utility.yul\":18704:18769   */\n      tag_409\n        /* \"#utility.yul\":18762:18768   */\n      dup2\n        /* \"#utility.yul\":18757:18760   */\n      dup6\n        /* \"#utility.yul\":18750:18754   */\n      0x20\n        /* \"#utility.yul\":18743:18748   */\n      dup7\n        /* \"#utility.yul\":18739:18755   */\n      add\n        /* \"#utility.yul\":18704:18769   */\n      tag_223\n      jump\t// in\n    tag_409:\n        /* \"#utility.yul\":18794:18823   */\n      tag_410\n        /* \"#utility.yul\":18816:18822   */\n      dup2\n        /* \"#utility.yul\":18794:18823   */\n      tag_176\n      jump\t// in\n    tag_410:\n        /* \"#utility.yul\":18789:18792   */\n      dup5\n        /* \"#utility.yul\":18785:18824   */\n      add\n        /* \"#utility.yul\":18778:18824   */\n      swap2\n      pop\n        /* \"#utility.yul\":18547:18830   */\n      pop\n        /* \"#utility.yul\":18457:18830   */\n      swap3\n      swap2\n      pop\n      pop\n      jump\t// out\n        /* \"#utility.yul\":18836:19255   */\n    tag_140:\n        /* \"#utility.yul\":18975:18979   */\n      0x00\n        /* \"#utility.yul\":19013:19015   */\n      0x40\n        /* \"#utility.yul\":19002:19011   */\n      dup3\n        /* \"#utility.yul\":18998:19016   */\n      add\n        /* \"#utility.yul\":18990:19016   */\n      swap1\n      pop\n        /* \"#utility.yul\":19026:19097   */\n      tag_412\n        /* \"#utility.yul\":19094:19095   */\n      0x00\n        /* \"#utility.yul\":19083:19092   */\n      dup4\n        /* \"#utility.yul\":19079:19096   */\n      add\n        /* \"#utility.yul\":19070:19076   */\n      dup6\n        /* \"#utility.yul\":19026:19097   */\n      tag_220\n      jump\t// in\n    tag_412:\n        /* \"#utility.yul\":19144:19153   */\n      dup2\n        /* \"#utility.yul\":19138:19142   */\n      dup2\n        /* \"#utility.yul\":19134:19154   */\n      sub\n        /* \"#utility.yul\":19129:19131   */\n      0x20\n        /* \"#utility.yul\":19118:19127   */\n      dup4\n        /* \"#utility.yul\":19114:19132   */\n      add\n        /* \"#utility.yul\":19107:19155   */\n      mstore\n        /* \"#utility.yul\":19172:19248   */\n      tag_413\n        /* \"#utility.yul\":19243:19247   */\n      dup2\n        /* \"#utility.yul\":19234:19240   */\n      dup5\n        /* \"#utility.yul\":19172:19248   */\n      tag_224\n      jump\t// in\n    tag_413:\n        /* \"#utility.yul\":19164:19248   */\n      swap1\n      pop\n        /* \"#utility.yul\":18836:19255   */\n      swap4\n      swap3\n      pop\n      pop\n      pop\n      jump\t// out\n        /* \"#utility.yul\":19261:19408   */\n    tag_225:\n        /* \"#utility.yul\":19362:19373   */\n      0x00\n        /* \"#utility.yul\":19399:19402   */\n      dup2\n        /* \"#utility.yul\":19384:19402   */\n      swap1\n      pop\n        /* \"#utility.yul\":19261:19408   */\n      swap3\n      swap2\n      pop\n      pop\n      jump\t// out\n        /* \"#utility.yul\":19414:19800   */\n    tag_226:\n        /* \"#utility.yul\":19518:19521   */\n      0x00\n        /* \"#utility.yul\":19546:19584   */\n      tag_416\n        /* \"#utility.yul\":19578:19583   */\n      dup3\n        /* \"#utility.yul\":19546:19584   */\n      tag_221\n      jump\t// in\n    tag_416:\n        /* \"#utility.yul\":19600:19688   */\n      tag_417\n        /* \"#utility.yul\":19681:19687   */\n      dup2\n        /* \"#utility.yul\":19676:19679   */\n      dup6\n        /* \"#utility.yul\":19600:19688   */\n      tag_225\n      jump\t// in\n    tag_417:\n        /* \"#utility.yul\":19593:19688   */\n      swap4\n      pop\n        /* \"#utility.yul\":19697:19762   */\n      tag_418\n        /* \"#utility.yul\":19755:19761   */\n      dup2\n        /* \"#utility.yul\":19750:19753   */\n      dup6\n        /* \"#utility.yul\":19743:19747   */\n      0x20\n        /* \"#utility.yul\":19736:19741   */\n      dup7\n        /* \"#utility.yul\":19732:19748   */\n      add\n        /* \"#utility.yul\":19697:19762   */\n      tag_223\n      jump\t// in\n    tag_418:\n        /* \"#utility.yul\":19787:19793   */\n      dup1\n        /* \"#utility.yul\":19782:19785   */\n      dup5\n        /* \"#utility.yul\":19778:19794   */\n      add\n        /* \"#utility.yul\":19771:19794   */\n      swap2\n      pop\n        /* \"#utility.yul\":19522:19800   */\n      pop\n        /* \"#utility.yul\":19414:19800   */\n      swap3\n      swap2\n      pop\n      pop\n      jump\t// out\n        /* \"#utility.yul\":19806:20077   */\n    tag_142:\n        /* \"#utility.yul\":19936:19939   */\n      0x00\n        /* \"#utility.yul\":19958:20051   */\n      tag_420\n        /* \"#utility.yul\":20047:20050   */\n      dup3\n        /* \"#utility.yul\":20038:20044   */\n      dup5\n        /* \"#utility.yul\":19958:20051   */\n      tag_226\n      jump\t// in\n    tag_420:\n        /* \"#utility.yul\":19951:20051   */\n      swap2\n      pop\n        /* \"#utility.yul\":20068:20071   */\n      dup2\n        /* \"#utility.yul\":20061:20071   */\n      swap1\n      pop\n        /* \"#utility.yul\":19806:20077   */\n      swap3\n      swap2\n      pop\n      pop\n      jump\t// out\n        /* \"#utility.yul\":20083:20205   */\n    tag_227:\n        /* \"#utility.yul\":20156:20180   */\n      tag_422\n        /* \"#utility.yul\":20174:20179   */\n      dup2\n        /* \"#utility.yul\":20156:20180   */\n      tag_216\n      jump\t// in\n    tag_422:\n        /* \"#utility.yul\":20149:20154   */\n      dup2\n        /* \"#utility.yul\":20146:20181   */\n      eq\n        /* \"#utility.yul\":20136:20199   */\n      tag_423\n      jumpi\n        /* \"#utility.yul\":20195:20196   */\n      0x00\n        /* \"#utility.yul\":20192:20193   */\n      dup1\n        /* \"#utility.yul\":20185:20197   */\n      revert\n        /* \"#utility.yul\":20136:20199   */\n    tag_423:\n        /* \"#utility.yul\":20083:20205   */\n      pop\n      jump\t// out\n        /* \"#utility.yul\":20211:20354   */\n    tag_228:\n        /* \"#utility.yul\":20268:20273   */\n      0x00\n        /* \"#utility.yul\":20299:20305   */\n      dup2\n        /* \"#utility.yul\":20293:20306   */\n      mload\n        /* \"#utility.yul\":20284:20306   */\n      swap1\n      pop\n        /* \"#utility.yul\":20315:20348   */\n      tag_425\n        /* \"#utility.yul\":20342:20347   */\n      dup2\n        /* \"#utility.yul\":20315:20348   */\n      tag_227\n      jump\t// in\n    tag_425:\n        /* \"#utility.yul\":20211:20354   */\n      swap3\n      swap2\n      pop\n      pop\n      jump\t// out\n        /* \"#utility.yul\":20360:20711   */\n    tag_149:\n        /* \"#utility.yul\":20430:20436   */\n      0x00\n        /* \"#utility.yul\":20479:20481   */\n      0x20\n        /* \"#utility.yul\":20467:20476   */\n      dup3\n        /* \"#utility.yul\":20458:20465   */\n      dup5\n        /* \"#utility.yul\":20454:20477   */\n      sub\n        /* \"#utility.yul\":20450:20482   */\n      slt\n        /* \"#utility.yul\":20447:20566   */\n      iszero\n      tag_427\n      jumpi\n        /* \"#utility.yul\":20485:20564   */\n      tag_428\n      tag_163\n      jump\t// in\n    tag_428:\n        /* \"#utility.yul\":20447:20566   */\n    tag_427:\n        /* \"#utility.yul\":20605:20606   */\n      0x00\n        /* \"#utility.yul\":20630:20694   */\n      tag_429\n        /* \"#utility.yul\":20686:20693   */\n      dup5\n        /* \"#utility.yul\":20677:20683   */\n      dup3\n        /* \"#utility.yul\":20666:20675   */\n      dup6\n        /* \"#utility.yul\":20662:20684   */\n      add\n        /* \"#utility.yul\":20630:20694   */\n      tag_228\n      jump\t// in\n    tag_429:\n        /* \"#utility.yul\":20620:20694   */\n      swap2\n      pop\n        /* \"#utility.yul\":20576:20704   */\n      pop\n        /* \"#utility.yul\":20360:20711   */\n      swap3\n      swap2\n      pop\n      pop\n      jump\t// out\n        /* \"#utility.yul\":20717:20803   */\n    tag_229:\n        /* \"#utility.yul\":20752:20759   */\n      0x00\n        /* \"#utility.yul\":20792:20796   */\n      0xff\n        /* \"#utility.yul\":20785:20790   */\n      dup3\n        /* \"#utility.yul\":20781:20797   */\n      and\n        /* \"#utility.yul\":20770:20797   */\n      swap1\n      pop\n        /* \"#utility.yul\":20717:20803   */\n      swap2\n      swap1\n      pop\n      jump\t// out\n        /* \"#utility.yul\":20809:20921   */\n    tag_230:\n        /* \"#utility.yul\":20892:20914   */\n      tag_432\n        /* \"#utility.yul\":20908:20913   */\n      dup2\n        /* \"#utility.yul\":20892:20914   */\n      tag_229\n      jump\t// in\n    tag_432:\n        /* \"#utility.yul\":20887:20890   */\n      dup3\n        /* \"#utility.yul\":20880:20915   */\n      mstore\n        /* \"#utility.yul\":20809:20921   */\n      pop\n      pop\n      jump\t// out\n        /* \"#utility.yul\":20927:21472   */\n    tag_156:\n        /* \"#utility.yul\":21100:21104   */\n      0x00\n        /* \"#utility.yul\":21138:21141   */\n      0x80\n        /* \"#utility.yul\":21127:21136   */\n      dup3\n        /* \"#utility.yul\":21123:21142   */\n      add\n        /* \"#utility.yul\":21115:21142   */\n      swap1\n      pop\n        /* \"#utility.yul\":21152:21223   */\n      tag_434\n        /* \"#utility.yul\":21220:21221   */\n      0x00\n        /* \"#utility.yul\":21209:21218   */\n      dup4\n        /* \"#utility.yul\":21205:21222   */\n      add\n        /* \"#utility.yul\":21196:21202   */\n      dup8\n        /* \"#utility.yul\":21152:21223   */\n      tag_220\n      jump\t// in\n    tag_434:\n        /* \"#utility.yul\":21233:21301   */\n      tag_435\n        /* \"#utility.yul\":21297:21299   */\n      0x20\n        /* \"#utility.yul\":21286:21295   */\n      dup4\n        /* \"#utility.yul\":21282:21300   */\n      add\n        /* \"#utility.yul\":21273:21279   */\n      dup7\n        /* \"#utility.yul\":21233:21301   */\n      tag_230\n      jump\t// in\n    tag_435:\n        /* \"#utility.yul\":21311:21383   */\n      tag_436\n        /* \"#utility.yul\":21379:21381   */\n      0x40\n        /* \"#utility.yul\":21368:21377   */\n      dup4\n        /* \"#utility.yul\":21364:21382   */\n      add\n        /* \"#utility.yul\":21355:21361   */\n      dup6\n        /* \"#utility.yul\":21311:21383   */\n      tag_220\n      jump\t// in\n    tag_436:\n        /* \"#utility.yul\":21393:21465   */\n      tag_437\n        /* \"#utility.yul\":21461:21463   */\n      0x60\n        /* \"#utility.yul\":21450:21459   */\n      dup4\n        /* \"#utility.yul\":21446:21464   */\n      add\n        /* \"#utility.yul\":21437:21443   */\n      dup5\n        /* \"#utility.yul\":21393:21465   */\n      tag_220\n      jump\t// in\n    tag_437:\n        /* \"#utility.yul\":20927:21472   */\n      swap6\n      swap5\n      pop\n      pop\n      pop\n      pop\n      pop\n      jump\t// out\n\n    auxdata: 0xa2646970667358221220fd0b45de8b9918f33b5815666b87b966428bbde5958b8432c526a991a9ba5cf564736f6c634300081a0033\n}\n",
				"bytecode": {
					"linkReferences": {},
					"object": "6080604052348015600e575f80fd5b50335f806101000a81548173ffffffffffffffffffffffffffffffffffffffff021916908373ffffffffffffffffffffffffffffffffffffffff1602179055506116038061005b5f395ff3fe60806040526004361061004d575f3560e01c806338eada1c146100a65780634ba79dfe146100ce578063710ba507146100f65780638da5cb5b1461011e578063a39fac1214610148576100a2565b366100a2573373ffffffffffffffffffffffffffffffffffffffff167f9073c8b000f3c19584b4624c84cd2e8efd408fd18038ceac9e492b911c3b7073346040516100989190610ba0565b60405180910390a2005b5f80fd5b3480156100b1575f80fd5b506100cc60048036038101906100c79190610c24565b610172565b005b3480156100d9575f80fd5b506100f460048036038101906100ef9190610c24565b6102ae565b005b348015610101575f80fd5b5061011c60048036038101906101179190610df0565b6103e9565b005b348015610129575f80fd5b506101326105bb565b60405161013f9190610e6b565b60405180910390f35b348015610153575f80fd5b5061015c6105de565b6040516101699190610f3b565b60405180910390f35b5f8054906101000a900473ffffffffffffffffffffffffffffffffffffffff1673ffffffffffffffffffffffffffffffffffffffff163373ffffffffffffffffffffffffffffffffffffffff16146101ff576040517f08c379a00000000000000000000000000000000000000000000000000000000081526004016101f690610fb5565b60405180910390fd5b6102138160016105ef90919063ffffffff16565b15610253576040517f08c379a000000000000000000000000000000000000000000000000000000000815260040161024a9061101d565b60405180910390fd5b61026781600161061c90919063ffffffff16565b508073ffffffffffffffffffffffffffffffffffffffff167fa226db3f664042183ee0281230bba26cbf7b5057e50aee7f25a175ff45ce4d7f60405160405180910390a250565b5f8054906101000a900473ffffffffffffffffffffffffffffffffffffffff1673ffffffffffffffffffffffffffffffffffffffff163373ffffffffffffffffffffffffffffffffffffffff161461033b576040517f08c379a000000000000000000000000000000000000000000000000000000000815260040161033290610fb5565b60405180910390fd5b61034f8160016105ef90919063ffffffff16565b61038e576040517f08c379a000000000000000000000000000000000000000000000000000000000815260040161038590611085565b60405180910390fd5b6103a281600161064990919063ffffffff16565b508073ffffffffffffffffffffffffffffffffffffffff167f24a12366c02e13fe4a9e03d86a8952e85bb74a456c16e4a18b6d8295700b74bb60405160405180910390a250565b6103fd3360016105ef90919063ffffffff16565b61043c576040517f08c379a0000000000000000000000000000000000000000000000000000000008152600401610433906110ed565b60405180910390fd5b5f83833060405160200161045293929190611198565b6040516020818303038152906040528051906020012090505f61047482610676565b90506104a05f8054906101000a900473ffffffffffffffffffffffffffffffffffffffff1682856106a5565b6104df576040517f08c379a00000000000000000000000000000000000000000000000000000000081526004016104d69061121e565b60405180910390fd5b83471015610522576040517f08c379a000000000000000000000000000000000000000000000000000000000815260040161051990611286565b60405180910390fd5b8473ffffffffffffffffffffffffffffffffffffffff166108fc8590811502906040515f60405180830381858888f19350505050158015610565573d5f803e3d5ffd5b508473ffffffffffffffffffffffffffffffffffffffff167f50275da561a32900110589fe9c87283690860c474e12dbfd1a79b8c1868693ce856040516105ac9190610ba0565b60405180910390a25050505050565b5f8054906101000a900473ffffffffffffffffffffffffffffffffffffffff1681565b60606105ea6001610732565b905090565b5f610614835f018373ffffffffffffffffffffffffffffffffffffffff165f1b610751565b905092915050565b5f610641835f018373ffffffffffffffffffffffffffffffffffffffff165f1b610771565b905092915050565b5f61066e835f018373ffffffffffffffffffffffffffffffffffffffff165f1b6107d8565b905092915050565b5f816040516020016106889190611321565b604051602081830303815290604052805190602001209050919050565b5f805f6106b285856108d4565b50915091505f60038111156106ca576106c9611346565b5b8160038111156106dd576106dc611346565b5b14801561071557508573ffffffffffffffffffffffffffffffffffffffff168273ffffffffffffffffffffffffffffffffffffffff16145b806107275750610726868686610929565b5b925050509392505050565b60605f610740835f01610a48565b905060608190508092505050919050565b5f80836001015f8481526020019081526020015f20541415905092915050565b5f61077c8383610751565b6107ce57825f0182908060018154018082558091505060019003905f5260205f20015f9091909190915055825f0180549050836001015f8481526020019081526020015f2081905550600190506107d2565b5f90505b92915050565b5f80836001015f8481526020019081526020015f205490505f81146108c9575f60018261080591906113a0565b90505f6001865f018054905061081b91906113a0565b9050808214610881575f865f01828154811061083a576108396113d3565b5b905f5260205f200154905080875f01848154811061085b5761085a6113d3565b5b905f5260205f20018190555083876001015f8381526020019081526020015f2081905550505b855f0180548061089457610893611400565b5b600190038181905f5260205f20015f90559055856001015f8681526020019081526020015f205f9055600193505050506108ce565b5f9150505b92915050565b5f805f6041845103610914575f805f602087015192506040870151915060608701515f1a905061090688828585610aa1565b955095509550505050610922565b5f600285515f1b9250925092505b9250925092565b5f805f8573ffffffffffffffffffffffffffffffffffffffff16858560405160240161095692919061149c565b604051602081830303815290604052631626ba7e60e01b6020820180517bffffffffffffffffffffffffffffffffffffffffffffffffffffffff83818316178352505050506040516109a89190611504565b5f60405180830381855afa9150503d805f81146109e0576040519150601f19603f3d011682016040523d82523d5f602084013e6109e5565b606091505b50915091508180156109f957506020815110155b8015610a3d5750631626ba7e60e01b7bffffffffffffffffffffffffffffffffffffffffffffffffffffffff191681806020019051810190610a3b9190611544565b145b925050509392505050565b6060815f01805480602002602001604051908101604052809291908181526020018280548015610a9557602002820191905f5260205f20905b815481526020019060010190808311610a81575b50505050509050919050565b5f805f7f7fffffffffffffffffffffffffffffff5d576e7357a4501ddfe92f46681b20a0845f1c1115610add575f600385925092509250610b7e565b5f6001888888886040515f8152602001604052604051610b00949392919061158a565b6020604051602081039080840390855afa158015610b20573d5f803e3d5ffd5b5050506020604051035190505f73ffffffffffffffffffffffffffffffffffffffff168173ffffffffffffffffffffffffffffffffffffffff1603610b71575f60015f801b93509350935050610b7e565b805f805f1b935093509350505b9450945094915050565b5f819050919050565b610b9a81610b88565b82525050565b5f602082019050610bb35f830184610b91565b92915050565b5f604051905090565b5f80fd5b5f80fd5b5f73ffffffffffffffffffffffffffffffffffffffff82169050919050565b5f610bf382610bca565b9050919050565b610c0381610be9565b8114610c0d575f80fd5b50565b5f81359050610c1e81610bfa565b92915050565b5f60208284031215610c3957610c38610bc2565b5b5f610c4684828501610c10565b91505092915050565b5f610c5982610bca565b9050919050565b610c6981610c4f565b8114610c73575f80fd5b50565b5f81359050610c8481610c60565b92915050565b610c9381610b88565b8114610c9d575f80fd5b50565b5f81359050610cae81610c8a565b92915050565b5f80fd5b5f80fd5b5f601f19601f8301169050919050565b7f4e487b71000000000000000000000000000000000000000000000000000000005f52604160045260245ffd5b610d0282610cbc565b810181811067ffffffffffffffff82111715610d2157610d20610ccc565b5b80604052505050565b5f610d33610bb9565b9050610d3f8282610cf9565b919050565b5f67ffffffffffffffff821115610d5e57610d5d610ccc565b5b610d6782610cbc565b9050602081019050919050565b828183375f83830152505050565b5f610d94610d8f84610d44565b610d2a565b905082815260208101848484011115610db057610daf610cb8565b5b610dbb848285610d74565b509392505050565b5f82601f830112610dd757610dd6610cb4565b5b8135610de7848260208601610d82565b91505092915050565b5f805f60608486031215610e0757610e06610bc2565b5b5f610e1486828701610c76565b9350506020610e2586828701610ca0565b925050604084013567ffffffffffffffff811115610e4657610e45610bc6565b5b610e5286828701610dc3565b9150509250925092565b610e6581610be9565b82525050565b5f602082019050610e7e5f830184610e5c565b92915050565b5f81519050919050565b5f82825260208201905092915050565b5f819050602082019050919050565b610eb681610be9565b82525050565b5f610ec78383610ead565b60208301905092915050565b5f602082019050919050565b5f610ee982610e84565b610ef38185610e8e565b9350610efe83610e9e565b805f5b83811015610f2e578151610f158882610ebc565b9750610f2083610ed3565b925050600181019050610f01565b5085935050505092915050565b5f6020820190508181035f830152610f538184610edf565b905092915050565b5f82825260208201905092915050565b7f4e6f742074686520636f6e7472616374206f776e6572000000000000000000005f82015250565b5f610f9f601683610f5b565b9150610faa82610f6b565b602082019050919050565b5f6020820190508181035f830152610fcc81610f93565b9050919050565b7f4164647265737320616c726561647920617574686f72697a65640000000000005f82015250565b5f611007601a83610f5b565b915061101282610fd3565b602082019050919050565b5f6020820190508181035f83015261103481610ffb565b9050919050565b7f41646472657373206e6f7420617574686f72697a6564000000000000000000005f82015250565b5f61106f601683610f5b565b915061107a8261103b565b602082019050919050565b5f6020820190508181035f83015261109c81611063565b9050919050565b7f41646472657373206973206e6f7420617574686f72697a6564000000000000005f82015250565b5f6110d7601983610f5b565b91506110e2826110a3565b602082019050919050565b5f6020820190508181035f830152611104816110cb565b9050919050565b5f8160601b9050919050565b5f6111218261110b565b9050919050565b5f61113282611117565b9050919050565b61114a61114582610c4f565b611128565b82525050565b5f819050919050565b61116a61116582610b88565b611150565b82525050565b5f61117a82611117565b9050919050565b61119261118d82610be9565b611170565b82525050565b5f6111a38286611139565b6014820191506111b38285611159565b6020820191506111c38284611181565b601482019150819050949350505050565b7f496e76616c6964207369676e61747572650000000000000000000000000000005f82015250565b5f611208601183610f5b565b9150611213826111d4565b602082019050919050565b5f6020820190508181035f830152611235816111fc565b9050919050565b7f496e73756666696369656e742062616c616e63650000000000000000000000005f82015250565b5f611270601483610f5b565b915061127b8261123c565b602082019050919050565b5f6020820190508181035f83015261129d81611264565b9050919050565b5f81905092915050565b7f19457468657265756d205369676e6564204d6573736167653a0a3332000000005f82015250565b5f6112e2601c836112a4565b91506112ed826112ae565b601c82019050919050565b5f819050919050565b5f819050919050565b61131b611316826112f8565b611301565b82525050565b5f61132b826112d6565b9150611337828461130a565b60208201915081905092915050565b7f4e487b71000000000000000000000000000000000000000000000000000000005f52602160045260245ffd5b7f4e487b71000000000000000000000000000000000000000000000000000000005f52601160045260245ffd5b5f6113aa82610b88565b91506113b583610b88565b92508282039050818111156113cd576113cc611373565b5b92915050565b7f4e487b71000000000000000000000000000000000000000000000000000000005f52603260045260245ffd5b7f4e487b71000000000000000000000000000000000000000000000000000000005f52603160045260245ffd5b611436816112f8565b82525050565b5f81519050919050565b5f82825260208201905092915050565b8281835e5f83830152505050565b5f61146e8261143c565b6114788185611446565b9350611488818560208601611456565b61149181610cbc565b840191505092915050565b5f6040820190506114af5f83018561142d565b81810360208301526114c18184611464565b90509392505050565b5f81905092915050565b5f6114de8261143c565b6114e881856114ca565b93506114f8818560208601611456565b80840191505092915050565b5f61150f82846114d4565b915081905092915050565b611523816112f8565b811461152d575f80fd5b50565b5f8151905061153e8161151a565b92915050565b5f6020828403121561155957611558610bc2565b5b5f61156684828501611530565b91505092915050565b5f60ff82169050919050565b6115848161156f565b82525050565b5f60808201905061159d5f83018761142d565b6115aa602083018661157b565b6115b7604083018561142d565b6115c4606083018461142d565b9594505050505056fea2646970667358221220fd0b45de8b9918f33b5815666b87b966428bbde5958b8432c526a991a9ba5cf564736f6c634300081a0033",
					"opcodes": "PUSH1 0x80 PUSH1 0x40 MSTORE CALLVALUE DUP1 ISZERO PUSH1 0xE JUMPI PUSH0 DUP1 REVERT JUMPDEST POP CALLER PUSH0 DUP1 PUSH2 0x100 EXP DUP2 SLOAD DUP2 PUSH20 0xFFFFFFFFFFFFFFFFFFFFFFFFFFFFFFFFFFFFFFFF MUL NOT AND SWAP1 DUP4 PUSH20 0xFFFFFFFFFFFFFFFFFFFFFFFFFFFFFFFFFFFFFFFF AND MUL OR SWAP1 SSTORE POP PUSH2 0x1603 DUP1 PUSH2 0x5B PUSH0 CODECOPY PUSH0 RETURN INVALID PUSH1 0x80 PUSH1 0x40 MSTORE PUSH1 0x4 CALLDATASIZE LT PUSH2 0x4D JUMPI PUSH0 CALLDATALOAD PUSH1 0xE0 SHR DUP1 PUSH4 0x38EADA1C EQ PUSH2 0xA6 JUMPI DUP1 PUSH4 0x4BA79DFE EQ PUSH2 0xCE JUMPI DUP1 PUSH4 0x710BA507 EQ PUSH2 0xF6 JUMPI DUP1 PUSH4 0x8DA5CB5B EQ PUSH2 0x11E JUMPI DUP1 PUSH4 0xA39FAC12 EQ PUSH2 0x148 JUMPI PUSH2 0xA2 JUMP JUMPDEST CALLDATASIZE PUSH2 0xA2 JUMPI CALLER PUSH20 0xFFFFFFFFFFFFFFFFFFFFFFFFFFFFFFFFFFFFFFFF AND PUSH32 0x9073C8B000F3C19584B4624C84CD2E8EFD408FD18038CEAC9E492B911C3B7073 CALLVALUE PUSH1 0x40 MLOAD PUSH2 0x98 SWAP2 SWAP1 PUSH2 0xBA0 JUMP JUMPDEST PUSH1 0x40 MLOAD DUP1 SWAP2 SUB SWAP1 LOG2 STOP JUMPDEST PUSH0 DUP1 REVERT JUMPDEST CALLVALUE DUP1 ISZERO PUSH2 0xB1 JUMPI PUSH0 DUP1 REVERT JUMPDEST POP PUSH2 0xCC PUSH1 0x4 DUP1 CALLDATASIZE SUB DUP2 ADD SWAP1 PUSH2 0xC7 SWAP2 SWAP1 PUSH2 0xC24 JUMP JUMPDEST PUSH2 0x172 JUMP JUMPDEST STOP JUMPDEST CALLVALUE DUP1 ISZERO PUSH2 0xD9 JUMPI PUSH0 DUP1 REVERT JUMPDEST POP PUSH2 0xF4 PUSH1 0x4 DUP1 CALLDATASIZE SUB DUP2 ADD SWAP1 PUSH2 0xEF SWAP2 SWAP1 PUSH2 0xC24 JUMP JUMPDEST PUSH2 0x2AE JUMP JUMPDEST STOP JUMPDEST CALLVALUE DUP1 ISZERO PUSH2 0x101 JUMPI PUSH0 DUP1 REVERT JUMPDEST POP PUSH2 0x11C PUSH1 0x4 DUP1 CALLDATASIZE SUB DUP2 ADD SWAP1 PUSH2 0x117 SWAP2 SWAP1 PUSH2 0xDF0 JUMP JUMPDEST PUSH2 0x3E9 JUMP JUMPDEST STOP JUMPDEST CALLVALUE DUP1 ISZERO PUSH2 0x129 JUMPI PUSH0 DUP1 REVERT JUMPDEST POP PUSH2 0x132 PUSH2 0x5BB JUMP JUMPDEST PUSH1 0x40 MLOAD PUSH2 0x13F SWAP2 SWAP1 PUSH2 0xE6B JUMP JUMPDEST PUSH1 0x40 MLOAD DUP1 SWAP2 SUB SWAP1 RETURN JUMPDEST CALLVALUE DUP1 ISZERO PUSH2 0x153 JUMPI PUSH0 DUP1 REVERT JUMPDEST POP PUSH2 0x15C PUSH2 0x5DE JUMP JUMPDEST PUSH1 0x40 MLOAD PUSH2 0x169 SWAP2 SWAP1 PUSH2 0xF3B JUMP JUMPDEST PUSH1 0x40 MLOAD DUP1 SWAP2 SUB SWAP1 RETURN JUMPDEST PUSH0 DUP1 SLOAD SWAP1 PUSH2 0x100 EXP SWAP1 DIV PUSH20 0xFFFFFFFFFFFFFFFFFFFFFFFFFFFFFFFFFFFFFFFF AND PUSH20 0xFFFFFFFFFFFFFFFFFFFFFFFFFFFFFFFFFFFFFFFF AND CALLER PUSH20 0xFFFFFFFFFFFFFFFFFFFFFFFFFFFFFFFFFFFFFFFF AND EQ PUSH2 0x1FF JUMPI PUSH1 0x40 MLOAD PUSH32 0x8C379A000000000000000000000000000000000000000000000000000000000 DUP2 MSTORE PUSH1 0x4 ADD PUSH2 0x1F6 SWAP1 PUSH2 0xFB5 JUMP JUMPDEST PUSH1 0x40 MLOAD DUP1 SWAP2 SUB SWAP1 REVERT JUMPDEST PUSH2 0x213 DUP2 PUSH1 0x1 PUSH2 0x5EF SWAP1 SWAP2 SWAP1 PUSH4 0xFFFFFFFF AND JUMP JUMPDEST ISZERO PUSH2 0x253 JUMPI PUSH1 0x40 MLOAD PUSH32 0x8C379A000000000000000000000000000000000000000000000000000000000 DUP2 MSTORE PUSH1 0x4 ADD PUSH2 0x24A SWAP1 PUSH2 0x101D JUMP JUMPDEST PUSH1 0x40 MLOAD DUP1 SWAP2 SUB SWAP1 REVERT JUMPDEST PUSH2 0x267 DUP2 PUSH1 0x1 PUSH2 0x61C SWAP1 SWAP2 SWAP1 PUSH4 0xFFFFFFFF AND JUMP JUMPDEST POP DUP1 PUSH20 0xFFFFFFFFFFFFFFFFFFFFFFFFFFFFFFFFFFFFFFFF AND PUSH32 0xA226DB3F664042183EE0281230BBA26CBF7B5057E50AEE7F25A175FF45CE4D7F PUSH1 0x40 MLOAD PUSH1 0x40 MLOAD DUP1 SWAP2 SUB SWAP1 LOG2 POP JUMP JUMPDEST PUSH0 DUP1 SLOAD SWAP1 PUSH2 0x100 EXP SWAP1 DIV PUSH20 0xFFFFFFFFFFFFFFFFFFFFFFFFFFFFFFFFFFFFFFFF AND PUSH20 0xFFFFFFFFFFFFFFFFFFFFFFFFFFFFFFFFFFFFFFFF AND CALLER PUSH20 0xFFFFFFFFFFFFFFFFFFFFFFFFFFFFFFFFFFFFFFFF AND EQ PUSH2 0x33B JUMPI PUSH1 0x40 MLOAD PUSH32 0x8C379A000000000000000000000000000000000000000000000000000000000 DUP2 MSTORE PUSH1 0x4 ADD PUSH2 0x332 SWAP1 PUSH2 0xFB5 JUMP JUMPDEST PUSH1 0x40 MLOAD DUP1 SWAP2 SUB SWAP1 REVERT JUMPDEST PUSH2 0x34F DUP2 PUSH1 0x1 PUSH2 0x5EF SWAP1 SWAP2 SWAP1 PUSH4 0xFFFFFFFF AND JUMP JUMPDEST PUSH2 0x38E JUMPI PUSH1 0x40 MLOAD PUSH32 0x8C379A000000000000000000000000000000000000000000000000000000000 DUP2 MSTORE PUSH1 0x4 ADD PUSH2 0x385 SWAP1 PUSH2 0x1085 JUMP JUMPDEST PUSH1 0x40 MLOAD DUP1 SWAP2 SUB SWAP1 REVERT JUMPDEST PUSH2 0x3A2 DUP2 PUSH1 0x1 PUSH2 0x649 SWAP1 SWAP2 SWAP1 PUSH4 0xFFFFFFFF AND JUMP JUMPDEST POP DUP1 PUSH20 0xFFFFFFFFFFFFFFFFFFFFFFFFFFFFFFFFFFFFFFFF AND PUSH32 0x24A12366C02E13FE4A9E03D86A8952E85BB74A456C16E4A18B6D8295700B74BB PUSH1 0x40 MLOAD PUSH1 0x40 MLOAD DUP1 SWAP2 SUB SWAP1 LOG2 POP JUMP JUMPDEST PUSH2 0x3FD CALLER PUSH1 0x1 PUSH2 0x5EF SWAP1 SWAP2 SWAP1 PUSH4 0xFFFFFFFF AND JUMP JUMPDEST PUSH2 0x43C JUMPI PUSH1 0x40 MLOAD PUSH32 0x8C379A000000000000000000000000000000000000000000000000000000000 DUP2 MSTORE PUSH1 0x4 ADD PUSH2 0x433 SWAP1 PUSH2 0x10ED JUMP JUMPDEST PUSH1 0x40 MLOAD DUP1 SWAP2 SUB SWAP1 REVERT JUMPDEST PUSH0 DUP4 DUP4 ADDRESS PUSH1 0x40 MLOAD PUSH1 0x20 ADD PUSH2 0x452 SWAP4 SWAP3 SWAP2 SWAP1 PUSH2 0x1198 JUMP JUMPDEST PUSH1 0x40 MLOAD PUSH1 0x20 DUP2 DUP4 SUB SUB DUP2 MSTORE SWAP1 PUSH1 0x40 MSTORE DUP1 MLOAD SWAP1 PUSH1 0x20 ADD KECCAK256 SWAP1 POP PUSH0 PUSH2 0x474 DUP3 PUSH2 0x676 JUMP JUMPDEST SWAP1 POP PUSH2 0x4A0 PUSH0 DUP1 SLOAD SWAP1 PUSH2 0x100 EXP SWAP1 DIV PUSH20 0xFFFFFFFFFFFFFFFFFFFFFFFFFFFFFFFFFFFFFFFF AND DUP3 DUP6 PUSH2 0x6A5 JUMP JUMPDEST PUSH2 0x4DF JUMPI PUSH1 0x40 MLOAD PUSH32 0x8C379A000000000000000000000000000000000000000000000000000000000 DUP2 MSTORE PUSH1 0x4 ADD PUSH2 0x4D6 SWAP1 PUSH2 0x121E JUMP JUMPDEST PUSH1 0x40 MLOAD DUP1 SWAP2 SUB SWAP1 REVERT JUMPDEST DUP4 SELFBALANCE LT ISZERO PUSH2 0x522 JUMPI PUSH1 0x40 MLOAD PUSH32 0x8C379A000000000000000000000000000000000000000000000000000000000 DUP2 MSTORE PUSH1 0x4 ADD PUSH2 0x519 SWAP1 PUSH2 0x1286 JUMP JUMPDEST PUSH1 0x40 MLOAD DUP1 SWAP2 SUB SWAP1 REVERT JUMPDEST DUP5 PUSH20 0xFFFFFFFFFFFFFFFFFFFFFFFFFFFFFFFFFFFFFFFF AND PUSH2 0x8FC DUP6 SWAP1 DUP2 ISZERO MUL SWAP1 PUSH1 0x40 MLOAD PUSH0 PUSH1 0x40 MLOAD DUP1 DUP4 SUB DUP2 DUP6 DUP9 DUP9 CALL SWAP4 POP POP POP POP ISZERO DUP1 ISZERO PUSH2 0x565 JUMPI RETURNDATASIZE PUSH0 DUP1 RETURNDATACOPY RETURNDATASIZE PUSH0 REVERT JUMPDEST POP DUP5 PUSH20 0xFFFFFFFFFFFFFFFFFFFFFFFFFFFFFFFFFFFFFFFF AND PUSH32 0x50275DA561A32900110589FE9C87283690860C474E12DBFD1A79B8C1868693CE DUP6 PUSH1 0x40 MLOAD PUSH2 0x5AC SWAP2 SWAP1 PUSH2 0xBA0 JUMP JUMPDEST PUSH1 0x40 MLOAD DUP1 SWAP2 SUB SWAP1 LOG2 POP POP POP POP POP JUMP JUMPDEST PUSH0 DUP1 SLOAD SWAP1 PUSH2 0x100 EXP SWAP1 DIV PUSH20 0xFFFFFFFFFFFFFFFFFFFFFFFFFFFFFFFFFFFFFFFF AND DUP2 JUMP JUMPDEST PUSH1 0x60 PUSH2 0x5EA PUSH1 0x1 PUSH2 0x732 JUMP JUMPDEST SWAP1 POP SWAP1 JUMP JUMPDEST PUSH0 PUSH2 0x614 DUP4 PUSH0 ADD DUP4 PUSH20 0xFFFFFFFFFFFFFFFFFFFFFFFFFFFFFFFFFFFFFFFF AND PUSH0 SHL PUSH2 0x751 JUMP JUMPDEST SWAP1 POP SWAP3 SWAP2 POP POP JUMP JUMPDEST PUSH0 PUSH2 0x641 DUP4 PUSH0 ADD DUP4 PUSH20 0xFFFFFFFFFFFFFFFFFFFFFFFFFFFFFFFFFFFFFFFF AND PUSH0 SHL PUSH2 0x771 JUMP JUMPDEST SWAP1 POP SWAP3 SWAP2 POP POP JUMP JUMPDEST PUSH0 PUSH2 0x66E DUP4 PUSH0 ADD DUP4 PUSH20 0xFFFFFFFFFFFFFFFFFFFFFFFFFFFFFFFFFFFFFFFF AND PUSH0 SHL PUSH2 0x7D8 JUMP JUMPDEST SWAP1 POP SWAP3 SWAP2 POP POP JUMP JUMPDEST PUSH0 DUP2 PUSH1 0x40 MLOAD PUSH1 0x20 ADD PUSH2 0x688 SWAP2 SWAP1 PUSH2 0x1321 JUMP JUMPDEST PUSH1 0x40 MLOAD PUSH1 0x20 DUP2 DUP4 SUB SUB DUP2 MSTORE SWAP1 PUSH1 0x40 MSTORE DUP1 MLOAD SWAP1 PUSH1 0x20 ADD KECCAK256 SWAP1 POP SWAP2 SWAP1 POP JUMP JUMPDEST PUSH0 DUP1 PUSH0 PUSH2 0x6B2 DUP6 DUP6 PUSH2 0x8D4 JUMP JUMPDEST POP SWAP2 POP SWAP2 POP PUSH0 PUSH1 0x3 DUP2 GT ISZERO PUSH2 0x6CA JUMPI PUSH2 0x6C9 PUSH2 0x1346 JUMP JUMPDEST JUMPDEST DUP2 PUSH1 0x3 DUP2 GT ISZERO PUSH2 0x6DD JUMPI PUSH2 0x6DC PUSH2 0x1346 JUMP JUMPDEST JUMPDEST EQ DUP1 ISZERO PUSH2 0x715 JUMPI POP DUP6 PUSH20 0xFFFFFFFFFFFFFFFFFFFFFFFFFFFFFFFFFFFFFFFF AND DUP3 PUSH20 0xFFFFFFFFFFFFFFFFFFFFFFFFFFFFFFFFFFFFFFFF AND EQ JUMPDEST DUP1 PUSH2 0x727 JUMPI POP PUSH2 0x726 DUP7 DUP7 DUP7 PUSH2 0x929 JUMP JUMPDEST JUMPDEST SWAP3 POP POP POP SWAP4 SWAP3 POP POP POP JUMP JUMPDEST PUSH1 0x60 PUSH0 PUSH2 0x740 DUP4 PUSH0 ADD PUSH2 0xA48 JUMP JUMPDEST SWAP1 POP PUSH1 0x60 DUP2 SWAP1 POP DUP1 SWAP3 POP POP POP SWAP2 SWAP1 POP JUMP JUMPDEST PUSH0 DUP1 DUP4 PUSH1 0x1 ADD PUSH0 DUP5 DUP2 MSTORE PUSH1 0x20 ADD SWAP1 DUP2 MSTORE PUSH1 0x20 ADD PUSH0 KECCAK256 SLOAD EQ ISZERO SWAP1 POP SWAP3 SWAP2 POP POP JUMP JUMPDEST PUSH0 PUSH2 0x77C DUP4 DUP4 PUSH2 0x751 JUMP JUMPDEST PUSH2 0x7CE JUMPI DUP3 PUSH0 ADD DUP3 SWAP1 DUP1 PUSH1 0x1 DUP2 SLOAD ADD DUP1 DUP3 SSTORE DUP1 SWAP2 POP POP PUSH1 0x1 SWAP1 SUB SWAP1 PUSH0 MSTORE PUSH1 0x20 PUSH0 KECCAK256 ADD PUSH0 SWAP1 SWAP2 SWAP1 SWAP2 SWAP1 SWAP2 POP SSTORE DUP3 PUSH0 ADD DUP1 SLOAD SWAP1 POP DUP4 PUSH1 0x1 ADD PUSH0 DUP5 DUP2 MSTORE PUSH1 0x20 ADD SWAP1 DUP2 MSTORE PUSH1 0x20 ADD PUSH0 KECCAK256 DUP2 SWAP1 SSTORE POP PUSH1 0x1 SWAP1 POP PUSH2 0x7D2 JUMP JUMPDEST PUSH0 SWAP1 POP JUMPDEST SWAP3 SWAP2 POP POP JUMP JUMPDEST PUSH0 DUP1 DUP4 PUSH1 0x1 ADD PUSH0 DUP5 DUP2 MSTORE PUSH1 0x20 ADD SWAP1 DUP2 MSTORE PUSH1 0x20 ADD PUSH0 KECCAK256 SLOAD SWAP1 POP PUSH0 DUP2 EQ PUSH2 0x8C9 JUMPI PUSH0 PUSH1 0x1 DUP3 PUSH2 0x805 SWAP2 SWAP1 PUSH2 0x13A0 JUMP JUMPDEST SWAP1 POP PUSH0 PUSH1 0x1 DUP7 PUSH0 ADD DUP1 SLOAD SWAP1 POP PUSH2 0x81B SWAP2 SWAP1 PUSH2 0x13A0 JUMP JUMPDEST SWAP1 POP DUP1 DUP3 EQ PUSH2 0x881 JUMPI PUSH0 DUP7 PUSH0 ADD DUP3 DUP2 SLOAD DUP2 LT PUSH2 0x83A JUMPI PUSH2 0x839 PUSH2 0x13D3 JUMP JUMPDEST JUMPDEST SWAP1 PUSH0 MSTORE PUSH1 0x20 PUSH0 KECCAK256 ADD SLOAD SWAP1 POP DUP1 DUP8 PUSH0 ADD DUP5 DUP2 SLOAD DUP2 LT PUSH2 0x85B JUMPI PUSH2 0x85A PUSH2 0x13D3 JUMP JUMPDEST JUMPDEST SWAP1 PUSH0 MSTORE PUSH1 0x20 PUSH0 KECCAK256 ADD DUP2 SWAP1 SSTORE POP DUP4 DUP8 PUSH1 0x1 ADD PUSH0 DUP4 DUP2 MSTORE PUSH1 0x20 ADD SWAP1 DUP2 MSTORE PUSH1 0x20 ADD PUSH0 KECCAK256 DUP2 SWAP1 SSTORE POP POP JUMPDEST DUP6 PUSH0 ADD DUP1 SLOAD DUP1 PUSH2 0x894 JUMPI PUSH2 0x893 PUSH2 0x1400 JUMP JUMPDEST JUMPDEST PUSH1 0x1 SWAP1 SUB DUP2 DUP2 SWAP1 PUSH0 MSTORE PUSH1 0x20 PUSH0 KECCAK256 ADD PUSH0 SWAP1 SSTORE SWAP1 SSTORE DUP6 PUSH1 0x1 ADD PUSH0 DUP7 DUP2 MSTORE PUSH1 0x20 ADD SWAP1 DUP2 MSTORE PUSH1 0x20 ADD PUSH0 KECCAK256 PUSH0 SWAP1 SSTORE PUSH1 0x1 SWAP4 POP POP POP POP PUSH2 0x8CE JUMP JUMPDEST PUSH0 SWAP2 POP POP JUMPDEST SWAP3 SWAP2 POP POP JUMP JUMPDEST PUSH0 DUP1 PUSH0 PUSH1 0x41 DUP5 MLOAD SUB PUSH2 0x914 JUMPI PUSH0 DUP1 PUSH0 PUSH1 0x20 DUP8 ADD MLOAD SWAP3 POP PUSH1 0x40 DUP8 ADD MLOAD SWAP2 POP PUSH1 0x60 DUP8 ADD MLOAD PUSH0 BYTE SWAP1 POP PUSH2 0x906 DUP9 DUP3 DUP6 DUP6 PUSH2 0xAA1 JUMP JUMPDEST SWAP6 POP SWAP6 POP SWAP6 POP POP POP POP PUSH2 0x922 JUMP JUMPDEST PUSH0 PUSH1 0x2 DUP6 MLOAD PUSH0 SHL SWAP3 POP SWAP3 POP SWAP3 POP JUMPDEST SWAP3 POP SWAP3 POP SWAP3 JUMP JUMPDEST PUSH0 DUP1 PUSH0 DUP6 PUSH20 0xFFFFFFFFFFFFFFFFFFFFFFFFFFFFFFFFFFFFFFFF AND DUP6 DUP6 PUSH1 0x40 MLOAD PUSH1 0x24 ADD PUSH2 0x956 SWAP3 SWAP2 SWAP1 PUSH2 0x149C JUMP JUMPDEST PUSH1 0x40 MLOAD PUSH1 0x20 DUP2 DUP4 SUB SUB DUP2 MSTORE SWAP1 PUSH1 0x40 MSTORE PUSH4 0x1626BA7E PUSH1 0xE0 SHL PUSH1 0x20 DUP3 ADD DUP1 MLOAD PUSH28 0xFFFFFFFFFFFFFFFFFFFFFFFFFFFFFFFFFFFFFFFFFFFFFFFFFFFFFFFF DUP4 DUP2 DUP4 AND OR DUP4 MSTORE POP POP POP POP PUSH1 0x40 MLOAD PUSH2 0x9A8 SWAP2 SWAP1 PUSH2 0x1504 JUMP JUMPDEST PUSH0 PUSH1 0x40 MLOAD DUP1 DUP4 SUB DUP2 DUP6 GAS STATICCALL SWAP2 POP POP RETURNDATASIZE DUP1 PUSH0 DUP2 EQ PUSH2 0x9E0 JUMPI PUSH1 0x40 MLOAD SWAP2 POP PUSH1 0x1F NOT PUSH1 0x3F RETURNDATASIZE ADD AND DUP3 ADD PUSH1 0x40 MSTORE RETURNDATASIZE DUP3 MSTORE RETURNDATASIZE PUSH0 PUSH1 0x20 DUP5 ADD RETURNDATACOPY PUSH2 0x9E5 JUMP JUMPDEST PUSH1 0x60 SWAP2 POP JUMPDEST POP SWAP2 POP SWAP2 POP DUP2 DUP1 ISZERO PUSH2 0x9F9 JUMPI POP PUSH1 0x20 DUP2 MLOAD LT ISZERO JUMPDEST DUP1 ISZERO PUSH2 0xA3D JUMPI POP PUSH4 0x1626BA7E PUSH1 0xE0 SHL PUSH28 0xFFFFFFFFFFFFFFFFFFFFFFFFFFFFFFFFFFFFFFFFFFFFFFFFFFFFFFFF NOT AND DUP2 DUP1 PUSH1 0x20 ADD SWAP1 MLOAD DUP2 ADD SWAP1 PUSH2 0xA3B SWAP2 SWAP1 PUSH2 0x1544 JUMP JUMPDEST EQ JUMPDEST SWAP3 POP POP POP SWAP4 SWAP3 POP POP POP JUMP JUMPDEST PUSH1 0x60 DUP2 PUSH0 ADD DUP1 SLOAD DUP1 PUSH1 0x20 MUL PUSH1 0x20 ADD PUSH1 0x40 MLOAD SWAP1 DUP2 ADD PUSH1 0x40 MSTORE DUP1 SWAP3 SWAP2 SWAP1 DUP2 DUP2 MSTORE PUSH1 0x20 ADD DUP3 DUP1 SLOAD DUP1 ISZERO PUSH2 0xA95 JUMPI PUSH1 0x20 MUL DUP3 ADD SWAP2 SWAP1 PUSH0 MSTORE PUSH1 0x20 PUSH0 KECCAK256 SWAP1 JUMPDEST DUP2 SLOAD DUP2 MSTORE PUSH1 0x20 ADD SWAP1 PUSH1 0x1 ADD SWAP1 DUP1 DUP4 GT PUSH2 0xA81 JUMPI JUMPDEST POP POP POP POP POP SWAP1 POP SWAP2 SWAP1 POP JUMP JUMPDEST PUSH0 DUP1 PUSH0 PUSH32 0x7FFFFFFFFFFFFFFFFFFFFFFFFFFFFFFF5D576E7357A4501DDFE92F46681B20A0 DUP5 PUSH0 SHR GT ISZERO PUSH2 0xADD JUMPI PUSH0 PUSH1 0x3 DUP6 SWAP3 POP SWAP3 POP SWAP3 POP PUSH2 0xB7E JUMP JUMPDEST PUSH0 PUSH1 0x1 DUP9 DUP9 DUP9 DUP9 PUSH1 0x40 MLOAD PUSH0 DUP2 MSTORE PUSH1 0x20 ADD PUSH1 0x40 MSTORE PUSH1 0x40 MLOAD PUSH2 0xB00 SWAP5 SWAP4 SWAP3 SWAP2 SWAP1 PUSH2 0x158A JUMP JUMPDEST PUSH1 0x20 PUSH1 0x40 MLOAD PUSH1 0x20 DUP2 SUB SWAP1 DUP1 DUP5 SUB SWAP1 DUP6 GAS STATICCALL ISZERO DUP1 ISZERO PUSH2 0xB20 JUMPI RETURNDATASIZE PUSH0 DUP1 RETURNDATACOPY RETURNDATASIZE PUSH0 REVERT JUMPDEST POP POP POP PUSH1 0x20 PUSH1 0x40 MLOAD SUB MLOAD SWAP1 POP PUSH0 PUSH20 0xFFFFFFFFFFFFFFFFFFFFFFFFFFFFFFFFFFFFFFFF AND DUP2 PUSH20 0xFFFFFFFFFFFFFFFFFFFFFFFFFFFFFFFFFFFFFFFF AND SUB PUSH2 0xB71 JUMPI PUSH0 PUSH1 0x1 PUSH0 DUP1 SHL SWAP4 POP SWAP4 POP SWAP4 POP POP PUSH2 0xB7E JUMP JUMPDEST DUP1 PUSH0 DUP1 PUSH0 SHL SWAP4 POP SWAP4 POP SWAP4 POP POP JUMPDEST SWAP5 POP SWAP5 POP SWAP5 SWAP2 POP POP JUMP JUMPDEST PUSH0 DUP2 SWAP1 POP SWAP2 SWAP1 POP JUMP JUMPDEST PUSH2 0xB9A DUP2 PUSH2 0xB88 JUMP JUMPDEST DUP3 MSTORE POP POP JUMP JUMPDEST PUSH0 PUSH1 0x20 DUP3 ADD SWAP1 POP PUSH2 0xBB3 PUSH0 DUP4 ADD DUP5 PUSH2 0xB91 JUMP JUMPDEST SWAP3 SWAP2 POP POP JUMP JUMPDEST PUSH0 PUSH1 0x40 MLOAD SWAP1 POP SWAP1 JUMP JUMPDEST PUSH0 DUP1 REVERT JUMPDEST PUSH0 DUP1 REVERT JUMPDEST PUSH0 PUSH20 0xFFFFFFFFFFFFFFFFFFFFFFFFFFFFFFFFFFFFFFFF DUP3 AND SWAP1 POP SWAP2 SWAP1 POP JUMP JUMPDEST PUSH0 PUSH2 0xBF3 DUP3 PUSH2 0xBCA JUMP JUMPDEST SWAP1 POP SWAP2 SWAP1 POP JUMP JUMPDEST PUSH2 0xC03 DUP2 PUSH2 0xBE9 JUMP JUMPDEST DUP2 EQ PUSH2 0xC0D JUMPI PUSH0 DUP1 REVERT JUMPDEST POP JUMP JUMPDEST PUSH0 DUP2 CALLDATALOAD SWAP1 POP PUSH2 0xC1E DUP2 PUSH2 0xBFA JUMP JUMPDEST SWAP3 SWAP2 POP POP JUMP JUMPDEST PUSH0 PUSH1 0x20 DUP3 DUP5 SUB SLT ISZERO PUSH2 0xC39 JUMPI PUSH2 0xC38 PUSH2 0xBC2 JUMP JUMPDEST JUMPDEST PUSH0 PUSH2 0xC46 DUP5 DUP3 DUP6 ADD PUSH2 0xC10 JUMP JUMPDEST SWAP2 POP POP SWAP3 SWAP2 POP POP JUMP JUMPDEST PUSH0 PUSH2 0xC59 DUP3 PUSH2 0xBCA JUMP JUMPDEST SWAP1 POP SWAP2 SWAP1 POP JUMP JUMPDEST PUSH2 0xC69 DUP2 PUSH2 0xC4F JUMP JUMPDEST DUP2 EQ PUSH2 0xC73 JUMPI PUSH0 DUP1 REVERT JUMPDEST POP JUMP JUMPDEST PUSH0 DUP2 CALLDATALOAD SWAP1 POP PUSH2 0xC84 DUP2 PUSH2 0xC60 JUMP JUMPDEST SWAP3 SWAP2 POP POP JUMP JUMPDEST PUSH2 0xC93 DUP2 PUSH2 0xB88 JUMP JUMPDEST DUP2 EQ PUSH2 0xC9D JUMPI PUSH0 DUP1 REVERT JUMPDEST POP JUMP JUMPDEST PUSH0 DUP2 CALLDATALOAD SWAP1 POP PUSH2 0xCAE DUP2 PUSH2 0xC8A JUMP JUMPDEST SWAP3 SWAP2 POP POP JUMP JUMPDEST PUSH0 DUP1 REVERT JUMPDEST PUSH0 DUP1 REVERT JUMPDEST PUSH0 PUSH1 0x1F NOT PUSH1 0x1F DUP4 ADD AND SWAP1 POP SWAP2 SWAP1 POP JUMP JUMPDEST PUSH32 0x4E487B7100000000000000000000000000000000000000000000000000000000 PUSH0 MSTORE PUSH1 0x41 PUSH1 0x4 MSTORE PUSH1 0x24 PUSH0 REVERT JUMPDEST PUSH2 0xD02 DUP3 PUSH2 0xCBC JUMP JUMPDEST DUP2 ADD DUP2 DUP2 LT PUSH8 0xFFFFFFFFFFFFFFFF DUP3 GT OR ISZERO PUSH2 0xD21 JUMPI PUSH2 0xD20 PUSH2 0xCCC JUMP JUMPDEST JUMPDEST DUP1 PUSH1 0x40 MSTORE POP POP POP JUMP JUMPDEST PUSH0 PUSH2 0xD33 PUSH2 0xBB9 JUMP JUMPDEST SWAP1 POP PUSH2 0xD3F DUP3 DUP3 PUSH2 0xCF9 JUMP JUMPDEST SWAP2 SWAP1 POP JUMP JUMPDEST PUSH0 PUSH8 0xFFFFFFFFFFFFFFFF DUP3 GT ISZERO PUSH2 0xD5E JUMPI PUSH2 0xD5D PUSH2 0xCCC JUMP JUMPDEST JUMPDEST PUSH2 0xD67 DUP3 PUSH2 0xCBC JUMP JUMPDEST SWAP1 POP PUSH1 0x20 DUP2 ADD SWAP1 POP SWAP2 SWAP1 POP JUMP JUMPDEST DUP3 DUP2 DUP4 CALLDATACOPY PUSH0 DUP4 DUP4 ADD MSTORE POP POP POP JUMP JUMPDEST PUSH0 PUSH2 0xD94 PUSH2 0xD8F DUP5 PUSH2 0xD44 JUMP JUMPDEST PUSH2 0xD2A JUMP JUMPDEST SWAP1 POP DUP3 DUP2 MSTORE PUSH1 0x20 DUP2 ADD DUP5 DUP5 DUP5 ADD GT ISZERO PUSH2 0xDB0 JUMPI PUSH2 0xDAF PUSH2 0xCB8 JUMP JUMPDEST JUMPDEST PUSH2 0xDBB DUP5 DUP3 DUP6 PUSH2 0xD74 JUMP JUMPDEST POP SWAP4 SWAP3 POP POP POP JUMP JUMPDEST PUSH0 DUP3 PUSH1 0x1F DUP4 ADD SLT PUSH2 0xDD7 JUMPI PUSH2 0xDD6 PUSH2 0xCB4 JUMP JUMPDEST JUMPDEST DUP2 CALLDATALOAD PUSH2 0xDE7 DUP5 DUP3 PUSH1 0x20 DUP7 ADD PUSH2 0xD82 JUMP JUMPDEST SWAP2 POP POP SWAP3 SWAP2 POP POP JUMP JUMPDEST PUSH0 DUP1 PUSH0 PUSH1 0x60 DUP5 DUP7 SUB SLT ISZERO PUSH2 0xE07 JUMPI PUSH2 0xE06 PUSH2 0xBC2 JUMP JUMPDEST JUMPDEST PUSH0 PUSH2 0xE14 DUP7 DUP3 DUP8 ADD PUSH2 0xC76 JUMP JUMPDEST SWAP4 POP POP PUSH1 0x20 PUSH2 0xE25 DUP7 DUP3 DUP8 ADD PUSH2 0xCA0 JUMP JUMPDEST SWAP3 POP POP PUSH1 0x40 DUP5 ADD CALLDATALOAD PUSH8 0xFFFFFFFFFFFFFFFF DUP2 GT ISZERO PUSH2 0xE46 JUMPI PUSH2 0xE45 PUSH2 0xBC6 JUMP JUMPDEST JUMPDEST PUSH2 0xE52 DUP7 DUP3 DUP8 ADD PUSH2 0xDC3 JUMP JUMPDEST SWAP2 POP POP SWAP3 POP SWAP3 POP SWAP3 JUMP JUMPDEST PUSH2 0xE65 DUP2 PUSH2 0xBE9 JUMP JUMPDEST DUP3 MSTORE POP POP JUMP JUMPDEST PUSH0 PUSH1 0x20 DUP3 ADD SWAP1 POP PUSH2 0xE7E PUSH0 DUP4 ADD DUP5 PUSH2 0xE5C JUMP JUMPDEST SWAP3 SWAP2 POP POP JUMP JUMPDEST PUSH0 DUP2 MLOAD SWAP1 POP SWAP2 SWAP1 POP JUMP JUMPDEST PUSH0 DUP3 DUP3 MSTORE PUSH1 0x20 DUP3 ADD SWAP1 POP SWAP3 SWAP2 POP POP JUMP JUMPDEST PUSH0 DUP2 SWAP1 POP PUSH1 0x20 DUP3 ADD SWAP1 POP SWAP2 SWAP1 POP JUMP JUMPDEST PUSH2 0xEB6 DUP2 PUSH2 0xBE9 JUMP JUMPDEST DUP3 MSTORE POP POP JUMP JUMPDEST PUSH0 PUSH2 0xEC7 DUP4 DUP4 PUSH2 0xEAD JUMP JUMPDEST PUSH1 0x20 DUP4 ADD SWAP1 POP SWAP3 SWAP2 POP POP JUMP JUMPDEST PUSH0 PUSH1 0x20 DUP3 ADD SWAP1 POP SWAP2 SWAP1 POP JUMP JUMPDEST PUSH0 PUSH2 0xEE9 DUP3 PUSH2 0xE84 JUMP JUMPDEST PUSH2 0xEF3 DUP2 DUP6 PUSH2 0xE8E JUMP JUMPDEST SWAP4 POP PUSH2 0xEFE DUP4 PUSH2 0xE9E JUMP JUMPDEST DUP1 PUSH0 JUMPDEST DUP4 DUP2 LT ISZERO PUSH2 0xF2E JUMPI DUP2 MLOAD PUSH2 0xF15 DUP9 DUP3 PUSH2 0xEBC JUMP JUMPDEST SWAP8 POP PUSH2 0xF20 DUP4 PUSH2 0xED3 JUMP JUMPDEST SWAP3 POP POP PUSH1 0x1 DUP2 ADD SWAP1 POP PUSH2 0xF01 JUMP JUMPDEST POP DUP6 SWAP4 POP POP POP POP SWAP3 SWAP2 POP POP JUMP JUMPDEST PUSH0 PUSH1 0x20 DUP3 ADD SWAP1 POP DUP2 DUP2 SUB PUSH0 DUP4 ADD MSTORE PUSH2 0xF53 DUP2 DUP5 PUSH2 0xEDF JUMP JUMPDEST SWAP1 POP SWAP3 SWAP2 POP POP JUMP JUMPDEST PUSH0 DUP3 DUP3 MSTORE PUSH1 0x20 DUP3 ADD SWAP1 POP SWAP3 SWAP2 POP POP JUMP JUMPDEST PUSH32 0x4E6F742074686520636F6E7472616374206F776E657200000000000000000000 PUSH0 DUP3 ADD MSTORE POP JUMP JUMPDEST PUSH0 PUSH2 0xF9F PUSH1 0x16 DUP4 PUSH2 0xF5B JUMP JUMPDEST SWAP2 POP PUSH2 0xFAA DUP3 PUSH2 0xF6B JUMP JUMPDEST PUSH1 0x20 DUP3 ADD SWAP1 POP SWAP2 SWAP1 POP JUMP JUMPDEST PUSH0 PUSH1 0x20 DUP3 ADD SWAP1 POP DUP2 DUP2 SUB PUSH0 DUP4 ADD MSTORE PUSH2 0xFCC DUP2 PUSH2 0xF93 JUMP JUMPDEST SWAP1 POP SWAP2 SWAP1 POP JUMP JUMPDEST PUSH32 0x4164647265737320616C726561647920617574686F72697A6564000000000000 PUSH0 DUP3 ADD MSTORE POP JUMP JUMPDEST PUSH0 PUSH2 0x1007 PUSH1 0x1A DUP4 PUSH2 0xF5B JUMP JUMPDEST SWAP2 POP PUSH2 0x1012 DUP3 PUSH2 0xFD3 JUMP JUMPDEST PUSH1 0x20 DUP3 ADD SWAP1 POP SWAP2 SWAP1 POP JUMP JUMPDEST PUSH0 PUSH1 0x20 DUP3 ADD SWAP1 POP DUP2 DUP2 SUB PUSH0 DUP4 ADD MSTORE PUSH2 0x1034 DUP2 PUSH2 0xFFB JUMP JUMPDEST SWAP1 POP SWAP2 SWAP1 POP JUMP JUMPDEST PUSH32 0x41646472657373206E6F7420617574686F72697A656400000000000000000000 PUSH0 DUP3 ADD MSTORE POP JUMP JUMPDEST PUSH0 PUSH2 0x106F PUSH1 0x16 DUP4 PUSH2 0xF5B JUMP JUMPDEST SWAP2 POP PUSH2 0x107A DUP3 PUSH2 0x103B JUMP JUMPDEST PUSH1 0x20 DUP3 ADD SWAP1 POP SWAP2 SWAP1 POP JUMP JUMPDEST PUSH0 PUSH1 0x20 DUP3 ADD SWAP1 POP DUP2 DUP2 SUB PUSH0 DUP4 ADD MSTORE PUSH2 0x109C DUP2 PUSH2 0x1063 JUMP JUMPDEST SWAP1 POP SWAP2 SWAP1 POP JUMP JUMPDEST PUSH32 0x41646472657373206973206E6F7420617574686F72697A656400000000000000 PUSH0 DUP3 ADD MSTORE POP JUMP JUMPDEST PUSH0 PUSH2 0x10D7 PUSH1 0x19 DUP4 PUSH2 0xF5B JUMP JUMPDEST SWAP2 POP PUSH2 0x10E2 DUP3 PUSH2 0x10A3 JUMP JUMPDEST PUSH1 0x20 DUP3 ADD SWAP1 POP SWAP2 SWAP1 POP JUMP JUMPDEST PUSH0 PUSH1 0x20 DUP3 ADD SWAP1 POP DUP2 DUP2 SUB PUSH0 DUP4 ADD MSTORE PUSH2 0x1104 DUP2 PUSH2 0x10CB JUMP JUMPDEST SWAP1 POP SWAP2 SWAP1 POP JUMP JUMPDEST PUSH0 DUP2 PUSH1 0x60 SHL SWAP1 POP SWAP2 SWAP1 POP JUMP JUMPDEST PUSH0 PUSH2 0x1121 DUP3 PUSH2 0x110B JUMP JUMPDEST SWAP1 POP SWAP2 SWAP1 POP JUMP JUMPDEST PUSH0 PUSH2 0x1132 DUP3 PUSH2 0x1117 JUMP JUMPDEST SWAP1 POP SWAP2 SWAP1 POP JUMP JUMPDEST PUSH2 0x114A PUSH2 0x1145 DUP3 PUSH2 0xC4F JUMP JUMPDEST PUSH2 0x1128 JUMP JUMPDEST DUP3 MSTORE POP POP JUMP JUMPDEST PUSH0 DUP2 SWAP1 POP SWAP2 SWAP1 POP JUMP JUMPDEST PUSH2 0x116A PUSH2 0x1165 DUP3 PUSH2 0xB88 JUMP JUMPDEST PUSH2 0x1150 JUMP JUMPDEST DUP3 MSTORE POP POP JUMP JUMPDEST PUSH0 PUSH2 0x117A DUP3 PUSH2 0x1117 JUMP JUMPDEST SWAP1 POP SWAP2 SWAP1 POP JUMP JUMPDEST PUSH2 0x1192 PUSH2 0x118D DUP3 PUSH2 0xBE9 JUMP JUMPDEST PUSH2 0x1170 JUMP JUMPDEST DUP3 MSTORE POP POP JUMP JUMPDEST PUSH0 PUSH2 0x11A3 DUP3 DUP7 PUSH2 0x1139 JUMP JUMPDEST PUSH1 0x14 DUP3 ADD SWAP2 POP PUSH2 0x11B3 DUP3 DUP6 PUSH2 0x1159 JUMP JUMPDEST PUSH1 0x20 DUP3 ADD SWAP2 POP PUSH2 0x11C3 DUP3 DUP5 PUSH2 0x1181 JUMP JUMPDEST PUSH1 0x14 DUP3 ADD SWAP2 POP DUP2 SWAP1 POP SWAP5 SWAP4 POP POP POP POP JUMP JUMPDEST PUSH32 0x496E76616C6964207369676E6174757265000000000000000000000000000000 PUSH0 DUP3 ADD MSTORE POP JUMP JUMPDEST PUSH0 PUSH2 0x1208 PUSH1 0x11 DUP4 PUSH2 0xF5B JUMP JUMPDEST SWAP2 POP PUSH2 0x1213 DUP3 PUSH2 0x11D4 JUMP JUMPDEST PUSH1 0x20 DUP3 ADD SWAP1 POP SWAP2 SWAP1 POP JUMP JUMPDEST PUSH0 PUSH1 0x20 DUP3 ADD SWAP1 POP DUP2 DUP2 SUB PUSH0 DUP4 ADD MSTORE PUSH2 0x1235 DUP2 PUSH2 0x11FC JUMP JUMPDEST SWAP1 POP SWAP2 SWAP1 POP JUMP JUMPDEST PUSH32 0x496E73756666696369656E742062616C616E6365000000000000000000000000 PUSH0 DUP3 ADD MSTORE POP JUMP JUMPDEST PUSH0 PUSH2 0x1270 PUSH1 0x14 DUP4 PUSH2 0xF5B JUMP JUMPDEST SWAP2 POP PUSH2 0x127B DUP3 PUSH2 0x123C JUMP JUMPDEST PUSH1 0x20 DUP3 ADD SWAP1 POP SWAP2 SWAP1 POP JUMP JUMPDEST PUSH0 PUSH1 0x20 DUP3 ADD SWAP1 POP DUP2 DUP2 SUB PUSH0 DUP4 ADD MSTORE PUSH2 0x129D DUP2 PUSH2 0x1264 JUMP JUMPDEST SWAP1 POP SWAP2 SWAP1 POP JUMP JUMPDEST PUSH0 DUP2 SWAP1 POP SWAP3 SWAP2 POP POP JUMP JUMPDEST PUSH32 0x19457468657265756D205369676E6564204D6573736167653A0A333200000000 PUSH0 DUP3 ADD MSTORE POP JUMP JUMPDEST PUSH0 PUSH2 0x12E2 PUSH1 0x1C DUP4 PUSH2 0x12A4 JUMP JUMPDEST SWAP2 POP PUSH2 0x12ED DUP3 PUSH2 0x12AE JUMP JUMPDEST PUSH1 0x1C DUP3 ADD SWAP1 POP SWAP2 SWAP1 POP JUMP JUMPDEST PUSH0 DUP2 SWAP1 POP SWAP2 SWAP1 POP JUMP JUMPDEST PUSH0 DUP2 SWAP1 POP SWAP2 SWAP1 POP JUMP JUMPDEST PUSH2 0x131B PUSH2 0x1316 DUP3 PUSH2 0x12F8 JUMP JUMPDEST PUSH2 0x1301 JUMP JUMPDEST DUP3 MSTORE POP POP JUMP JUMPDEST PUSH0 PUSH2 0x132B DUP3 PUSH2 0x12D6 JUMP JUMPDEST SWAP2 POP PUSH2 0x1337 DUP3 DUP5 PUSH2 0x130A JUMP JUMPDEST PUSH1 0x20 DUP3 ADD SWAP2 POP DUP2 SWAP1 POP SWAP3 SWAP2 POP POP JUMP JUMPDEST PUSH32 0x4E487B7100000000000000000000000000000000000000000000000000000000 PUSH0 MSTORE PUSH1 0x21 PUSH1 0x4 MSTORE PUSH1 0x24 PUSH0 REVERT JUMPDEST PUSH32 0x4E487B7100000000000000000000000000000000000000000000000000000000 PUSH0 MSTORE PUSH1 0x11 PUSH1 0x4 MSTORE PUSH1 0x24 PUSH0 REVERT JUMPDEST PUSH0 PUSH2 0x13AA DUP3 PUSH2 0xB88 JUMP JUMPDEST SWAP2 POP PUSH2 0x13B5 DUP4 PUSH2 0xB88 JUMP JUMPDEST SWAP3 POP DUP3 DUP3 SUB SWAP1 POP DUP2 DUP2 GT ISZERO PUSH2 0x13CD JUMPI PUSH2 0x13CC PUSH2 0x1373 JUMP JUMPDEST JUMPDEST SWAP3 SWAP2 POP POP JUMP JUMPDEST PUSH32 0x4E487B7100000000000000000000000000000000000000000000000000000000 PUSH0 MSTORE PUSH1 0x32 PUSH1 0x4 MSTORE PUSH1 0x24 PUSH0 REVERT JUMPDEST PUSH32 0x4E487B7100000000000000000000000000000000000000000000000000000000 PUSH0 MSTORE PUSH1 0x31 PUSH1 0x4 MSTORE PUSH1 0x24 PUSH0 REVERT JUMPDEST PUSH2 0x1436 DUP2 PUSH2 0x12F8 JUMP JUMPDEST DUP3 MSTORE POP POP JUMP JUMPDEST PUSH0 DUP2 MLOAD SWAP1 POP SWAP2 SWAP1 POP JUMP JUMPDEST PUSH0 DUP3 DUP3 MSTORE PUSH1 0x20 DUP3 ADD SWAP1 POP SWAP3 SWAP2 POP POP JUMP JUMPDEST DUP3 DUP2 DUP4 MCOPY PUSH0 DUP4 DUP4 ADD MSTORE POP POP POP JUMP JUMPDEST PUSH0 PUSH2 0x146E DUP3 PUSH2 0x143C JUMP JUMPDEST PUSH2 0x1478 DUP2 DUP6 PUSH2 0x1446 JUMP JUMPDEST SWAP4 POP PUSH2 0x1488 DUP2 DUP6 PUSH1 0x20 DUP7 ADD PUSH2 0x1456 JUMP JUMPDEST PUSH2 0x1491 DUP2 PUSH2 0xCBC JUMP JUMPDEST DUP5 ADD SWAP2 POP POP SWAP3 SWAP2 POP POP JUMP JUMPDEST PUSH0 PUSH1 0x40 DUP3 ADD SWAP1 POP PUSH2 0x14AF PUSH0 DUP4 ADD DUP6 PUSH2 0x142D JUMP JUMPDEST DUP2 DUP2 SUB PUSH1 0x20 DUP4 ADD MSTORE PUSH2 0x14C1 DUP2 DUP5 PUSH2 0x1464 JUMP JUMPDEST SWAP1 POP SWAP4 SWAP3 POP POP POP JUMP JUMPDEST PUSH0 DUP2 SWAP1 POP SWAP3 SWAP2 POP POP JUMP JUMPDEST PUSH0 PUSH2 0x14DE DUP3 PUSH2 0x143C JUMP JUMPDEST PUSH2 0x14E8 DUP2 DUP6 PUSH2 0x14CA JUMP JUMPDEST SWAP4 POP PUSH2 0x14F8 DUP2 DUP6 PUSH1 0x20 DUP7 ADD PUSH2 0x1456 JUMP JUMPDEST DUP1 DUP5 ADD SWAP2 POP POP SWAP3 SWAP2 POP POP JUMP JUMPDEST PUSH0 PUSH2 0x150F DUP3 DUP5 PUSH2 0x14D4 JUMP JUMPDEST SWAP2 POP DUP2 SWAP1 POP SWAP3 SWAP2 POP POP JUMP JUMPDEST PUSH2 0x1523 DUP2 PUSH2 0x12F8 JUMP JUMPDEST DUP2 EQ PUSH2 0x152D JUMPI PUSH0 DUP1 REVERT JUMPDEST POP JUMP JUMPDEST PUSH0 DUP2 MLOAD SWAP1 POP PUSH2 0x153E DUP2 PUSH2 0x151A JUMP JUMPDEST SWAP3 SWAP2 POP POP JUMP JUMPDEST PUSH0 PUSH1 0x20 DUP3 DUP5 SUB SLT ISZERO PUSH2 0x1559 JUMPI PUSH2 0x1558 PUSH2 0xBC2 JUMP JUMPDEST JUMPDEST PUSH0 PUSH2 0x1566 DUP5 DUP3 DUP6 ADD PUSH2 0x1530 JUMP JUMPDEST SWAP2 POP POP SWAP3 SWAP2 POP POP JUMP JUMPDEST PUSH0 PUSH1 0xFF DUP3 AND SWAP1 POP SWAP2 SWAP1 POP JUMP JUMPDEST PUSH2 0x1584 DUP2 PUSH2 0x156F JUMP JUMPDEST DUP3 MSTORE POP POP JUMP JUMPDEST PUSH0 PUSH1 0x80 DUP3 ADD SWAP1 POP PUSH2 0x159D PUSH0 DUP4 ADD DUP8 PUSH2 0x142D JUMP JUMPDEST PUSH2 0x15AA PUSH1 0x20 DUP4 ADD DUP7 PUSH2 0x157B JUMP JUMPDEST PUSH2 0x15B7 PUSH1 0x40 DUP4 ADD DUP6 PUSH2 0x142D JUMP JUMPDEST PUSH2 0x15C4 PUSH1 0x60 DUP4 ADD DUP5 PUSH2 0x142D JUMP JUMPDEST SWAP6 SWAP5 POP POP POP POP POP JUMP INVALID LOG2 PUSH5 0x6970667358 0x22 SLT KECCAK256 REVERT SIGNEXTEND GASLIMIT 0xDE DUP12 SWAP10 XOR RETURN EXTCODESIZE PC ISZERO PUSH7 0x6B87B966428BBD 0xE5 SWAP6 DUP12 DUP5 ORIGIN 0xC5 0x26 0xA9 SWAP2 0xA9 0xBA TLOAD CREATE2 PUSH5 0x736F6C6343 STOP ADDMOD BYTE STOP CALLER "
				},
				"gasEstimates": {
					"creation": {
						"codeDepositCost": "1127000",
						"executionCost": "25437",
						"totalCost": "1152437"
					},
					"external": {
						"addAddress(address)": "infinite",
						"getAddresses()": "infinite",
						"owner()": "2549",
						"removeAddress(address)": "infinite",
						"sendCoins(address,uint256,bytes)": "infinite"
					},
					"internal": {
						"prefixed(bytes32)": "infinite"
					}
				},
				"methodIdentifiers": {
					"addAddress(address)": "38eada1c",
					"getAddresses()": "a39fac12",
					"owner()": "8da5cb5b",
					"removeAddress(address)": "4ba79dfe",
					"sendCoins(address,uint256,bytes)": "710ba507"
				}
			},
			"storageLayout": {
				"storage": [
					{
						"astId": 1085,
						"contract": "contracts/task.sol:SafeExchange",
						"label": "owner",
						"offset": 0,
						"slot": "0",
						"type": "t_address"
					},
					{
						"astId": 1088,
						"contract": "contracts/task.sol:SafeExchange",
						"label": "authorizedAddresses",
						"offset": 0,
						"slot": "1",
						"type": "t_struct(AddressSet)788_storage"
					}
				],
				"types": {
					"t_address": {
						"encoding": "inplace",
						"label": "address",
						"numberOfBytes": "20"
					},
					"t_array(t_bytes32)dyn_storage": {
						"base": "t_bytes32",
						"encoding": "dynamic_array",
						"label": "bytes32[]",
						"numberOfBytes": "32"
					},
					"t_bytes32": {
						"encoding": "inplace",
						"label": "bytes32",
						"numberOfBytes": "32"
					},
					"t_mapping(t_bytes32,t_uint256)": {
						"encoding": "mapping",
						"key": "t_bytes32",
						"label": "mapping(bytes32 => uint256)",
						"numberOfBytes": "32",
						"value": "t_uint256"
					},
					"t_struct(AddressSet)788_storage": {
						"encoding": "inplace",
						"label": "struct EnumerableSet.AddressSet",
						"members": [
							{
								"astId": 787,
								"contract": "contracts/task.sol:SafeExchange",
								"label": "_inner",
								"offset": 0,
								"slot": "0",
								"type": "t_struct(Set)473_storage"
							}
						],
						"numberOfBytes": "64"
					},
					"t_struct(Set)473_storage": {
						"encoding": "inplace",
						"label": "struct EnumerableSet.Set",
						"members": [
							{
								"astId": 468,
								"contract": "contracts/task.sol:SafeExchange",
								"label": "_values",
								"offset": 0,
								"slot": "0",
								"type": "t_array(t_bytes32)dyn_storage"
							},
							{
								"astId": 472,
								"contract": "contracts/task.sol:SafeExchange",
								"label": "_positions",
								"offset": 0,
								"slot": "1",
								"type": "t_mapping(t_bytes32,t_uint256)"
							}
						],
						"numberOfBytes": "64"
					},
					"t_uint256": {
						"encoding": "inplace",
						"label": "uint256",
						"numberOfBytes": "32"
					}
				}
			},
			"userdoc": {
				"kind": "user",
				"methods": {},
				"version": 1
			}
		}
	}
}