{
	"data": {
		"bytecode": {
			"linkReferences": {},
			"object": "6080604052348015600e575f80fd5b50335f806101000a81548173ffffffffffffffffffffffffffffffffffffffff021916908373ffffffffffffffffffffffffffffffffffffffff1602179055506116038061005b5f395ff3fe60806040526004361061004d575f3560e01c806338eada1c146100a65780634ba79dfe146100ce578063710ba507146100f65780638da5cb5b1461011e578063a39fac1214610148576100a2565b366100a2573373ffffffffffffffffffffffffffffffffffffffff167f9073c8b000f3c19584b4624c84cd2e8efd408fd18038ceac9e492b911c3b7073346040516100989190610ba0565b60405180910390a2005b5f80fd5b3480156100b1575f80fd5b506100cc60048036038101906100c79190610c24565b610172565b005b3480156100d9575f80fd5b506100f460048036038101906100ef9190610c24565b6102ae565b005b348015610101575f80fd5b5061011c60048036038101906101179190610df0565b6103e9565b005b348015610129575f80fd5b506101326105bb565b60405161013f9190610e6b565b60405180910390f35b348015610153575f80fd5b5061015c6105de565b6040516101699190610f3b565b60405180910390f35b5f8054906101000a900473ffffffffffffffffffffffffffffffffffffffff1673ffffffffffffffffffffffffffffffffffffffff163373ffffffffffffffffffffffffffffffffffffffff16146101ff576040517f08c379a00000000000000000000000000000000000000000000000000000000081526004016101f690610fb5565b60405180910390fd5b6102138160016105ef90919063ffffffff16565b15610253576040517f08c379a000000000000000000000000000000000000000000000000000000000815260040161024a9061101d565b60405180910390fd5b61026781600161061c90919063ffffffff16565b508073ffffffffffffffffffffffffffffffffffffffff167fa226db3f664042183ee0281230bba26cbf7b5057e50aee7f25a175ff45ce4d7f60405160405180910390a250565b5f8054906101000a900473ffffffffffffffffffffffffffffffffffffffff1673ffffffffffffffffffffffffffffffffffffffff163373ffffffffffffffffffffffffffffffffffffffff161461033b576040517f08c379a000000000000000000000000000000000000000000000000000000000815260040161033290610fb5565b60405180910390fd5b61034f8160016105ef90919063ffffffff16565b61038e576040517f08c379a000000000000000000000000000000000000000000000000000000000815260040161038590611085565b60405180910390fd5b6103a281600161064990919063ffffffff16565b508073ffffffffffffffffffffffffffffffffffffffff167f24a12366c02e13fe4a9e03d86a8952e85bb74a456c16e4a18b6d8295700b74bb60405160405180910390a250565b6103fd3360016105ef90919063ffffffff16565b61043c576040517f08c379a0000000000000000000000000000000000000000000000000000000008152600401610433906110ed565b60405180910390fd5b5f83833060405160200161045293929190611198565b6040516020818303038152906040528051906020012090505f61047482610676565b90506104a05f8054906101000a900473ffffffffffffffffffffffffffffffffffffffff1682856106a5565b6104df576040517f08c379a00000000000000000000000000000000000000000000000000000000081526004016104d69061121e565b60405180910390fd5b83471015610522576040517f08c379a000000000000000000000000000000000000000000000000000000000815260040161051990611286565b60405180910390fd5b8473ffffffffffffffffffffffffffffffffffffffff166108fc8590811502906040515f60405180830381858888f19350505050158015610565573d5f803e3d5ffd5b508473ffffffffffffffffffffffffffffffffffffffff167f50275da561a32900110589fe9c87283690860c474e12dbfd1a79b8c1868693ce856040516105ac9190610ba0565b60405180910390a25050505050565b5f8054906101000a900473ffffffffffffffffffffffffffffffffffffffff1681565b60606105ea6001610732565b905090565b5f610614835f018373ffffffffffffffffffffffffffffffffffffffff165f1b610751565b905092915050565b5f610641835f018373ffffffffffffffffffffffffffffffffffffffff165f1b610771565b905092915050565b5f61066e835f018373ffffffffffffffffffffffffffffffffffffffff165f1b6107d8565b905092915050565b5f816040516020016106889190611321565b604051602081830303815290604052805190602001209050919050565b5f805f6106b285856108d4565b50915091505f60038111156106ca576106c9611346565b5b8160038111156106dd576106dc611346565b5b14801561071557508573ffffffffffffffffffffffffffffffffffffffff168273ffffffffffffffffffffffffffffffffffffffff16145b806107275750610726868686610929565b5b925050509392505050565b60605f610740835f01610a48565b905060608190508092505050919050565b5f80836001015f8481526020019081526020015f20541415905092915050565b5f61077c8383610751565b6107ce57825f0182908060018154018082558091505060019003905f5260205f20015f9091909190915055825f0180549050836001015f8481526020019081526020015f2081905550600190506107d2565b5f90505b92915050565b5f80836001015f8481526020019081526020015f205490505f81146108c9575f60018261080591906113a0565b90505f6001865f018054905061081b91906113a0565b9050808214610881575f865f01828154811061083a576108396113d3565b5b905f5260205f200154905080875f01848154811061085b5761085a6113d3565b5b905f5260205f20018190555083876001015f8381526020019081526020015f2081905550505b855f0180548061089457610893611400565b5b600190038181905f5260205f20015f90559055856001015f8681526020019081526020015f205f9055600193505050506108ce565b5f9150505b92915050565b5f805f6041845103610914575f805f602087015192506040870151915060608701515f1a905061090688828585610aa1565b955095509550505050610922565b5f600285515f1b9250925092505b9250925092565b5f805f8573ffffffffffffffffffffffffffffffffffffffff16858560405160240161095692919061149c565b604051602081830303815290604052631626ba7e60e01b6020820180517bffffffffffffffffffffffffffffffffffffffffffffffffffffffff83818316178352505050506040516109a89190611504565b5f60405180830381855afa9150503d805f81146109e0576040519150601f19603f3d011682016040523d82523d5f602084013e6109e5565b606091505b50915091508180156109f957506020815110155b8015610a3d5750631626ba7e60e01b7bffffffffffffffffffffffffffffffffffffffffffffffffffffffff191681806020019051810190610a3b9190611544565b145b925050509392505050565b6060815f01805480602002602001604051908101604052809291908181526020018280548015610a9557602002820191905f5260205f20905b815481526020019060010190808311610a81575b50505050509050919050565b5f805f7f7fffffffffffffffffffffffffffffff5d576e7357a4501ddfe92f46681b20a0845f1c1115610add575f600385925092509250610b7e565b5f6001888888886040515f8152602001604052604051610b00949392919061158a565b6020604051602081039080840390855afa158015610b20573d5f803e3d5ffd5b5050506020604051035190505f73ffffffffffffffffffffffffffffffffffffffff168173ffffffffffffffffffffffffffffffffffffffff1603610b71575f60015f801b93509350935050610b7e565b805f805f1b935093509350505b9450945094915050565b5f819050919050565b610b9a81610b88565b82525050565b5f602082019050610bb35f830184610b91565b92915050565b5f604051905090565b5f80fd5b5f80fd5b5f73ffffffffffffffffffffffffffffffffffffffff82169050919050565b5f610bf382610bca565b9050919050565b610c0381610be9565b8114610c0d575f80fd5b50565b5f81359050610c1e81610bfa565b92915050565b5f60208284031215610c3957610c38610bc2565b5b5f610c4684828501610c10565b91505092915050565b5f610c5982610bca565b9050919050565b610c6981610c4f565b8114610c73575f80fd5b50565b5f81359050610c8481610c60565b92915050565b610c9381610b88565b8114610c9d575f80fd5b50565b5f81359050610cae81610c8a565b92915050565b5f80fd5b5f80fd5b5f601f19601f8301169050919050565b7f4e487b71000000000000000000000000000000000000000000000000000000005f52604160045260245ffd5b610d0282610cbc565b810181811067ffffffffffffffff82111715610d2157610d20610ccc565b5b80604052505050565b5f610d33610bb9565b9050610d3f8282610cf9565b919050565b5f67ffffffffffffffff821115610d5e57610d5d610ccc565b5b610d6782610cbc565b9050602081019050919050565b828183375f83830152505050565b5f610d94610d8f84610d44565b610d2a565b905082815260208101848484011115610db057610daf610cb8565b5b610dbb848285610d74565b509392505050565b5f82601f830112610dd757610dd6610cb4565b5b8135610de7848260208601610d82565b91505092915050565b5f805f60608486031215610e0757610e06610bc2565b5b5f610e1486828701610c76565b9350506020610e2586828701610ca0565b925050604084013567ffffffffffffffff811115610e4657610e45610bc6565b5b610e5286828701610dc3565b9150509250925092565b610e6581610be9565b82525050565b5f602082019050610e7e5f830184610e5c565b92915050565b5f81519050919050565b5f82825260208201905092915050565b5f819050602082019050919050565b610eb681610be9565b82525050565b5f610ec78383610ead565b60208301905092915050565b5f602082019050919050565b5f610ee982610e84565b610ef38185610e8e565b9350610efe83610e9e565b805f5b83811015610f2e578151610f158882610ebc565b9750610f2083610ed3565b925050600181019050610f01565b5085935050505092915050565b5f6020820190508181035f830152610f538184610edf565b905092915050565b5f82825260208201905092915050565b7f4e6f742074686520636f6e7472616374206f776e6572000000000000000000005f82015250565b5f610f9f601683610f5b565b9150610faa82610f6b565b602082019050919050565b5f6020820190508181035f830152610fcc81610f93565b9050919050565b7f4164647265737320616c726561647920617574686f72697a65640000000000005f82015250565b5f611007601a83610f5b565b915061101282610fd3565b602082019050919050565b5f6020820190508181035f83015261103481610ffb565b9050919050565b7f41646472657373206e6f7420617574686f72697a6564000000000000000000005f82015250565b5f61106f601683610f5b565b915061107a8261103b565b602082019050919050565b5f6020820190508181035f83015261109c81611063565b9050919050565b7f41646472657373206973206e6f7420617574686f72697a6564000000000000005f82015250565b5f6110d7601983610f5b565b91506110e2826110a3565b602082019050919050565b5f6020820190508181035f830152611104816110cb565b9050919050565b5f8160601b9050919050565b5f6111218261110b565b9050919050565b5f61113282611117565b9050919050565b61114a61114582610c4f565b611128565b82525050565b5f819050919050565b61116a61116582610b88565b611150565b82525050565b5f61117a82611117565b9050919050565b61119261118d82610be9565b611170565b82525050565b5f6111a38286611139565b6014820191506111b38285611159565b6020820191506111c38284611181565b601482019150819050949350505050565b7f496e76616c6964207369676e61747572650000000000000000000000000000005f82015250565b5f611208601183610f5b565b9150611213826111d4565b602082019050919050565b5f6020820190508181035f830152611235816111fc565b9050919050565b7f496e73756666696369656e742062616c616e63650000000000000000000000005f82015250565b5f611270601483610f5b565b915061127b8261123c565b602082019050919050565b5f6020820190508181035f83015261129d81611264565b9050919050565b5f81905092915050565b7f19457468657265756d205369676e6564204d6573736167653a0a3332000000005f82015250565b5f6112e2601c836112a4565b91506112ed826112ae565b601c82019050919050565b5f819050919050565b5f819050919050565b61131b611316826112f8565b611301565b82525050565b5f61132b826112d6565b9150611337828461130a565b60208201915081905092915050565b7f4e487b71000000000000000000000000000000000000000000000000000000005f52602160045260245ffd5b7f4e487b71000000000000000000000000000000000000000000000000000000005f52601160045260245ffd5b5f6113aa82610b88565b91506113b583610b88565b92508282039050818111156113cd576113cc611373565b5b92915050565b7f4e487b71000000000000000000000000000000000000000000000000000000005f52603260045260245ffd5b7f4e487b71000000000000000000000000000000000000000000000000000000005f52603160045260245ffd5b611436816112f8565b82525050565b5f81519050919050565b5f82825260208201905092915050565b8281835e5f83830152505050565b5f61146e8261143c565b6114788185611446565b9350611488818560208601611456565b61149181610cbc565b840191505092915050565b5f6040820190506114af5f83018561142d565b81810360208301526114c18184611464565b90509392505050565b5f81905092915050565b5f6114de8261143c565b6114e881856114ca565b93506114f8818560208601611456565b80840191505092915050565b5f61150f82846114d4565b915081905092915050565b611523816112f8565b811461152d575f80fd5b50565b5f8151905061153e8161151a565b92915050565b5f6020828403121561155957611558610bc2565b5b5f61156684828501611530565b91505092915050565b5f60ff82169050919050565b6115848161156f565b82525050565b5f60808201905061159d5f83018761142d565b6115aa602083018661157b565b6115b7604083018561142d565b6115c4606083018461142d565b9594505050505056fea2646970667358221220fd0b45de8b9918f33b5815666b87b966428bbde5958b8432c526a991a9ba5cf564736f6c634300081a0033",
			"opcodes": "PUSH1 0x80 PUSH1 0x40 MSTORE CALLVALUE DUP1 ISZERO PUSH1 0xE JUMPI PUSH0 DUP1 REVERT JUMPDEST POP CALLER PUSH0 DUP1 PUSH2 0x100 EXP DUP2 SLOAD DUP2 PUSH20 0xFFFFFFFFFFFFFFFFFFFFFFFFFFFFFFFFFFFFFFFF MUL NOT AND SWAP1 DUP4 PUSH20 0xFFFFFFFFFFFFFFFFFFFFFFFFFFFFFFFFFFFFFFFF AND MUL OR SWAP1 SSTORE POP PUSH2 0x1603 DUP1 PUSH2 0x5B PUSH0 CODECOPY PUSH0 RETURN INVALID PUSH1 0x80 PUSH1 0x40 MSTORE PUSH1 0x4 CALLDATASIZE LT PUSH2 0x4D JUMPI PUSH0 CALLDATALOAD PUSH1 0xE0 SHR DUP1 PUSH4 0x38EADA1C EQ PUSH2 0xA6 JUMPI DUP1 PUSH4 0x4BA79DFE EQ PUSH2 0xCE JUMPI DUP1 PUSH4 0x710BA507 EQ PUSH2 0xF6 JUMPI DUP1 PUSH4 0x8DA5CB5B EQ PUSH2 0x11E JUMPI DUP1 PUSH4 0xA39FAC12 EQ PUSH2 0x148 JUMPI PUSH2 0xA2 JUMP JUMPDEST CALLDATASIZE PUSH2 0xA2 JUMPI CALLER PUSH20 0xFFFFFFFFFFFFFFFFFFFFFFFFFFFFFFFFFFFFFFFF AND PUSH32 0x9073C8B000F3C19584B4624C84CD2E8EFD408FD18038CEAC9E492B911C3B7073 CALLVALUE PUSH1 0x40 MLOAD PUSH2 0x98 SWAP2 SWAP1 PUSH2 0xBA0 JUMP JUMPDEST PUSH1 0x40 MLOAD DUP1 SWAP2 SUB SWAP1 LOG2 STOP JUMPDEST PUSH0 DUP1 REVERT JUMPDEST CALLVALUE DUP1 ISZERO PUSH2 0xB1 JUMPI PUSH0 DUP1 REVERT JUMPDEST POP PUSH2 0xCC PUSH1 0x4 DUP1 CALLDATASIZE SUB DUP2 ADD SWAP1 PUSH2 0xC7 SWAP2 SWAP1 PUSH2 0xC24 JUMP JUMPDEST PUSH2 0x172 JUMP JUMPDEST STOP JUMPDEST CALLVALUE DUP1 ISZERO PUSH2 0xD9 JUMPI PUSH0 DUP1 REVERT JUMPDEST POP PUSH2 0xF4 PUSH1 0x4 DUP1 CALLDATASIZE SUB DUP2 ADD SWAP1 PUSH2 0xEF SWAP2 SWAP1 PUSH2 0xC24 JUMP JUMPDEST PUSH2 0x2AE JUMP JUMPDEST STOP JUMPDEST CALLVALUE DUP1 ISZERO PUSH2 0x101 JUMPI PUSH0 DUP1 REVERT JUMPDEST POP PUSH2 0x11C PUSH1 0x4 DUP1 CALLDATASIZE SUB DUP2 ADD SWAP1 PUSH2 0x117 SWAP2 SWAP1 PUSH2 0xDF0 JUMP JUMPDEST PUSH2 0x3E9 JUMP JUMPDEST STOP JUMPDEST CALLVALUE DUP1 ISZERO PUSH2 0x129 JUMPI PUSH0 DUP1 REVERT JUMPDEST POP PUSH2 0x132 PUSH2 0x5BB JUMP JUMPDEST PUSH1 0x40 MLOAD PUSH2 0x13F SWAP2 SWAP1 PUSH2 0xE6B JUMP JUMPDEST PUSH1 0x40 MLOAD DUP1 SWAP2 SUB SWAP1 RETURN JUMPDEST CALLVALUE DUP1 ISZERO PUSH2 0x153 JUMPI PUSH0 DUP1 REVERT JUMPDEST POP PUSH2 0x15C PUSH2 0x5DE JUMP JUMPDEST PUSH1 0x40 MLOAD PUSH2 0x169 SWAP2 SWAP1 PUSH2 0xF3B JUMP JUMPDEST PUSH1 0x40 MLOAD DUP1 SWAP2 SUB SWAP1 RETURN JUMPDEST PUSH0 DUP1 SLOAD SWAP1 PUSH2 0x100 EXP SWAP1 DIV PUSH20 0xFFFFFFFFFFFFFFFFFFFFFFFFFFFFFFFFFFFFFFFF AND PUSH20 0xFFFFFFFFFFFFFFFFFFFFFFFFFFFFFFFFFFFFFFFF AND CALLER PUSH20 0xFFFFFFFFFFFFFFFFFFFFFFFFFFFFFFFFFFFFFFFF AND EQ PUSH2 0x1FF JUMPI PUSH1 0x40 MLOAD PUSH32 0x8C379A000000000000000000000000000000000000000000000000000000000 DUP2 MSTORE PUSH1 0x4 ADD PUSH2 0x1F6 SWAP1 PUSH2 0xFB5 JUMP JUMPDEST PUSH1 0x40 MLOAD DUP1 SWAP2 SUB SWAP1 REVERT JUMPDEST PUSH2 0x213 DUP2 PUSH1 0x1 PUSH2 0x5EF SWAP1 SWAP2 SWAP1 PUSH4 0xFFFFFFFF AND JUMP JUMPDEST ISZERO PUSH2 0x253 JUMPI PUSH1 0x40 MLOAD PUSH32 0x8C379A000000000000000000000000000000000000000000000000000000000 DUP2 MSTORE PUSH1 0x4 ADD PUSH2 0x24A SWAP1 PUSH2 0x101D JUMP JUMPDEST PUSH1 0x40 MLOAD DUP1 SWAP2 SUB SWAP1 REVERT JUMPDEST PUSH2 0x267 DUP2 PUSH1 0x1 PUSH2 0x61C SWAP1 SWAP2 SWAP1 PUSH4 0xFFFFFFFF AND JUMP JUMPDEST POP DUP1 PUSH20 0xFFFFFFFFFFFFFFFFFFFFFFFFFFFFFFFFFFFFFFFF AND PUSH32 0xA226DB3F664042183EE0281230BBA26CBF7B5057E50AEE7F25A175FF45CE4D7F PUSH1 0x40 MLOAD PUSH1 0x40 MLOAD DUP1 SWAP2 SUB SWAP1 LOG2 POP JUMP JUMPDEST PUSH0 DUP1 SLOAD SWAP1 PUSH2 0x100 EXP SWAP1 DIV PUSH20 0xFFFFFFFFFFFFFFFFFFFFFFFFFFFFFFFFFFFFFFFF AND PUSH20 0xFFFFFFFFFFFFFFFFFFFFFFFFFFFFFFFFFFFFFFFF AND CALLER PUSH20 0xFFFFFFFFFFFFFFFFFFFFFFFFFFFFFFFFFFFFFFFF AND EQ PUSH2 0x33B JUMPI PUSH1 0x40 MLOAD PUSH32 0x8C379A000000000000000000000000000000000000000000000000000000000 DUP2 MSTORE PUSH1 0x4 ADD PUSH2 0x332 SWAP1 PUSH2 0xFB5 JUMP JUMPDEST PUSH1 0x40 MLOAD DUP1 SWAP2 SUB SWAP1 REVERT JUMPDEST PUSH2 0x34F DUP2 PUSH1 0x1 PUSH2 0x5EF SWAP1 SWAP2 SWAP1 PUSH4 0xFFFFFFFF AND JUMP JUMPDEST PUSH2 0x38E JUMPI PUSH1 0x40 MLOAD PUSH32 0x8C379A000000000000000000000000000000000000000000000000000000000 DUP2 MSTORE PUSH1 0x4 ADD PUSH2 0x385 SWAP1 PUSH2 0x1085 JUMP JUMPDEST PUSH1 0x40 MLOAD DUP1 SWAP2 SUB SWAP1 REVERT JUMPDEST PUSH2 0x3A2 DUP2 PUSH1 0x1 PUSH2 0x649 SWAP1 SWAP2 SWAP1 PUSH4 0xFFFFFFFF AND JUMP JUMPDEST POP DUP1 PUSH20 0xFFFFFFFFFFFFFFFFFFFFFFFFFFFFFFFFFFFFFFFF AND PUSH32 0x24A12366C02E13FE4A9E03D86A8952E85BB74A456C16E4A18B6D8295700B74BB PUSH1 0x40 MLOAD PUSH1 0x40 MLOAD DUP1 SWAP2 SUB SWAP1 LOG2 POP JUMP JUMPDEST PUSH2 0x3FD CALLER PUSH1 0x1 PUSH2 0x5EF SWAP1 SWAP2 SWAP1 PUSH4 0xFFFFFFFF AND JUMP JUMPDEST PUSH2 0x43C JUMPI PUSH1 0x40 MLOAD PUSH32 0x8C379A000000000000000000000000000000000000000000000000000000000 DUP2 MSTORE PUSH1 0x4 ADD PUSH2 0x433 SWAP1 PUSH2 0x10ED JUMP JUMPDEST PUSH1 0x40 MLOAD DUP1 SWAP2 SUB SWAP1 REVERT JUMPDEST PUSH0 DUP4 DUP4 ADDRESS PUSH1 0x40 MLOAD PUSH1 0x20 ADD PUSH2 0x452 SWAP4 SWAP3 SWAP2 SWAP1 PUSH2 0x1198 JUMP JUMPDEST PUSH1 0x40 MLOAD PUSH1 0x20 DUP2 DUP4 SUB SUB DUP2 MSTORE SWAP1 PUSH1 0x40 MSTORE DUP1 MLOAD SWAP1 PUSH1 0x20 ADD KECCAK256 SWAP1 POP PUSH0 PUSH2 0x474 DUP3 PUSH2 0x676 JUMP JUMPDEST SWAP1 POP PUSH2 0x4A0 PUSH0 DUP1 SLOAD SWAP1 PUSH2 0x100 EXP SWAP1 DIV PUSH20 0xFFFFFFFFFFFFFFFFFFFFFFFFFFFFFFFFFFFFFFFF AND DUP3 DUP6 PUSH2 0x6A5 JUMP JUMPDEST PUSH2 0x4DF JUMPI PUSH1 0x40 MLOAD PUSH32 0x8C379A000000000000000000000000000000000000000000000000000000000 DUP2 MSTORE PUSH1 0x4 ADD PUSH2 0x4D6 SWAP1 PUSH2 0x121E JUMP JUMPDEST PUSH1 0x40 MLOAD DUP1 SWAP2 SUB SWAP1 REVERT JUMPDEST DUP4 SELFBALANCE LT ISZERO PUSH2 0x522 JUMPI PUSH1 0x40 MLOAD PUSH32 0x8C379A000000000000000000000000000000000000000000000000000000000 DUP2 MSTORE PUSH1 0x4 ADD PUSH2 0x519 SWAP1 PUSH2 0x1286 JUMP JUMPDEST PUSH1 0x40 MLOAD DUP1 SWAP2 SUB SWAP1 REVERT JUMPDEST DUP5 PUSH20 0xFFFFFFFFFFFFFFFFFFFFFFFFFFFFFFFFFFFFFFFF AND PUSH2 0x8FC DUP6 SWAP1 DUP2 ISZERO MUL SWAP1 PUSH1 0x40 MLOAD PUSH0 PUSH1 0x40 MLOAD DUP1 DUP4 SUB DUP2 DUP6 DUP9 DUP9 CALL SWAP4 POP POP POP POP ISZERO DUP1 ISZERO PUSH2 0x565 JUMPI RETURNDATASIZE PUSH0 DUP1 RETURNDATACOPY RETURNDATASIZE PUSH0 REVERT JUMPDEST POP DUP5 PUSH20 0xFFFFFFFFFFFFFFFFFFFFFFFFFFFFFFFFFFFFFFFF AND PUSH32 0x50275DA561A32900110589FE9C87283690860C474E12DBFD1A79B8C1868693CE DUP6 PUSH1 0x40 MLOAD PUSH2 0x5AC SWAP2 SWAP1 PUSH2 0xBA0 JUMP JUMPDEST PUSH1 0x40 MLOAD DUP1 SWAP2 SUB SWAP1 LOG2 POP POP POP POP POP JUMP JUMPDEST PUSH0 DUP1 SLOAD SWAP1 PUSH2 0x100 EXP SWAP1 DIV PUSH20 0xFFFFFFFFFFFFFFFFFFFFFFFFFFFFFFFFFFFFFFFF AND DUP2 JUMP JUMPDEST PUSH1 0x60 PUSH2 0x5EA PUSH1 0x1 PUSH2 0x732 JUMP JUMPDEST SWAP1 POP SWAP1 JUMP JUMPDEST PUSH0 PUSH2 0x614 DUP4 PUSH0 ADD DUP4 PUSH20 0xFFFFFFFFFFFFFFFFFFFFFFFFFFFFFFFFFFFFFFFF AND PUSH0 SHL PUSH2 0x751 JUMP JUMPDEST SWAP1 POP SWAP3 SWAP2 POP POP JUMP JUMPDEST PUSH0 PUSH2 0x641 DUP4 PUSH0 ADD DUP4 PUSH20 0xFFFFFFFFFFFFFFFFFFFFFFFFFFFFFFFFFFFFFFFF AND PUSH0 SHL PUSH2 0x771 JUMP JUMPDEST SWAP1 POP SWAP3 SWAP2 POP POP JUMP JUMPDEST PUSH0 PUSH2 0x66E DUP4 PUSH0 ADD DUP4 PUSH20 0xFFFFFFFFFFFFFFFFFFFFFFFFFFFFFFFFFFFFFFFF AND PUSH0 SHL PUSH2 0x7D8 JUMP JUMPDEST SWAP1 POP SWAP3 SWAP2 POP POP JUMP JUMPDEST PUSH0 DUP2 PUSH1 0x40 MLOAD PUSH1 0x20 ADD PUSH2 0x688 SWAP2 SWAP1 PUSH2 0x1321 JUMP JUMPDEST PUSH1 0x40 MLOAD PUSH1 0x20 DUP2 DUP4 SUB SUB DUP2 MSTORE SWAP1 PUSH1 0x40 MSTORE DUP1 MLOAD SWAP1 PUSH1 0x20 ADD KECCAK256 SWAP1 POP SWAP2 SWAP1 POP JUMP JUMPDEST PUSH0 DUP1 PUSH0 PUSH2 0x6B2 DUP6 DUP6 PUSH2 0x8D4 JUMP JUMPDEST POP SWAP2 POP SWAP2 POP PUSH0 PUSH1 0x3 DUP2 GT ISZERO PUSH2 0x6CA JUMPI PUSH2 0x6C9 PUSH2 0x1346 JUMP JUMPDEST JUMPDEST DUP2 PUSH1 0x3 DUP2 GT ISZERO PUSH2 0x6DD JUMPI PUSH2 0x6DC PUSH2 0x1346 JUMP JUMPDEST JUMPDEST EQ DUP1 ISZERO PUSH2 0x715 JUMPI POP DUP6 PUSH20 0xFFFFFFFFFFFFFFFFFFFFFFFFFFFFFFFFFFFFFFFF AND DUP3 PUSH20 0xFFFFFFFFFFFFFFFFFFFFFFFFFFFFFFFFFFFFFFFF AND EQ JUMPDEST DUP1 PUSH2 0x727 JUMPI POP PUSH2 0x726 DUP7 DUP7 DUP7 PUSH2 0x929 JUMP JUMPDEST JUMPDEST SWAP3 POP POP POP SWAP4 SWAP3 POP POP POP JUMP JUMPDEST PUSH1 0x60 PUSH0 PUSH2 0x740 DUP4 PUSH0 ADD PUSH2 0xA48 JUMP JUMPDEST SWAP1 POP PUSH1 0x60 DUP2 SWAP1 POP DUP1 SWAP3 POP POP POP SWAP2 SWAP1 POP JUMP JUMPDEST PUSH0 DUP1 DUP4 PUSH1 0x1 ADD PUSH0 DUP5 DUP2 MSTORE PUSH1 0x20 ADD SWAP1 DUP2 MSTORE PUSH1 0x20 ADD PUSH0 KECCAK256 SLOAD EQ ISZERO SWAP1 POP SWAP3 SWAP2 POP POP JUMP JUMPDEST PUSH0 PUSH2 0x77C DUP4 DUP4 PUSH2 0x751 JUMP JUMPDEST PUSH2 0x7CE JUMPI DUP3 PUSH0 ADD DUP3 SWAP1 DUP1 PUSH1 0x1 DUP2 SLOAD ADD DUP1 DUP3 SSTORE DUP1 SWAP2 POP POP PUSH1 0x1 SWAP1 SUB SWAP1 PUSH0 MSTORE PUSH1 0x20 PUSH0 KECCAK256 ADD PUSH0 SWAP1 SWAP2 SWAP1 SWAP2 SWAP1 SWAP2 POP SSTORE DUP3 PUSH0 ADD DUP1 SLOAD SWAP1 POP DUP4 PUSH1 0x1 ADD PUSH0 DUP5 DUP2 MSTORE PUSH1 0x20 ADD SWAP1 DUP2 MSTORE PUSH1 0x20 ADD PUSH0 KECCAK256 DUP2 SWAP1 SSTORE POP PUSH1 0x1 SWAP1 POP PUSH2 0x7D2 JUMP JUMPDEST PUSH0 SWAP1 POP JUMPDEST SWAP3 SWAP2 POP POP JUMP JUMPDEST PUSH0 DUP1 DUP4 PUSH1 0x1 ADD PUSH0 DUP5 DUP2 MSTORE PUSH1 0x20 ADD SWAP1 DUP2 MSTORE PUSH1 0x20 ADD PUSH0 KECCAK256 SLOAD SWAP1 POP PUSH0 DUP2 EQ PUSH2 0x8C9 JUMPI PUSH0 PUSH1 0x1 DUP3 PUSH2 0x805 SWAP2 SWAP1 PUSH2 0x13A0 JUMP JUMPDEST SWAP1 POP PUSH0 PUSH1 0x1 DUP7 PUSH0 ADD DUP1 SLOAD SWAP1 POP PUSH2 0x81B SWAP2 SWAP1 PUSH2 0x13A0 JUMP JUMPDEST SWAP1 POP DUP1 DUP3 EQ PUSH2 0x881 JUMPI PUSH0 DUP7 PUSH0 ADD DUP3 DUP2 SLOAD DUP2 LT PUSH2 0x83A JUMPI PUSH2 0x839 PUSH2 0x13D3 JUMP JUMPDEST JUMPDEST SWAP1 PUSH0 MSTORE PUSH1 0x20 PUSH0 KECCAK256 ADD SLOAD SWAP1 POP DUP1 DUP8 PUSH0 ADD DUP5 DUP2 SLOAD DUP2 LT PUSH2 0x85B JUMPI PUSH2 0x85A PUSH2 0x13D3 JUMP JUMPDEST JUMPDEST SWAP1 PUSH0 MSTORE PUSH1 0x20 PUSH0 KECCAK256 ADD DUP2 SWAP1 SSTORE POP DUP4 DUP8 PUSH1 0x1 ADD PUSH0 DUP4 DUP2 MSTORE PUSH1 0x20 ADD SWAP1 DUP2 MSTORE PUSH1 0x20 ADD PUSH0 KECCAK256 DUP2 SWAP1 SSTORE POP POP JUMPDEST DUP6 PUSH0 ADD DUP1 SLOAD DUP1 PUSH2 0x894 JUMPI PUSH2 0x893 PUSH2 0x1400 JUMP JUMPDEST JUMPDEST PUSH1 0x1 SWAP1 SUB DUP2 DUP2 SWAP1 PUSH0 MSTORE PUSH1 0x20 PUSH0 KECCAK256 ADD PUSH0 SWAP1 SSTORE SWAP1 SSTORE DUP6 PUSH1 0x1 ADD PUSH0 DUP7 DUP2 MSTORE PUSH1 0x20 ADD SWAP1 DUP2 MSTORE PUSH1 0x20 ADD PUSH0 KECCAK256 PUSH0 SWAP1 SSTORE PUSH1 0x1 SWAP4 POP POP POP POP PUSH2 0x8CE JUMP JUMPDEST PUSH0 SWAP2 POP POP JUMPDEST SWAP3 SWAP2 POP POP JUMP JUMPDEST PUSH0 DUP1 PUSH0 PUSH1 0x41 DUP5 MLOAD SUB PUSH2 0x914 JUMPI PUSH0 DUP1 PUSH0 PUSH1 0x20 DUP8 ADD MLOAD SWAP3 POP PUSH1 0x40 DUP8 ADD MLOAD SWAP2 POP PUSH1 0x60 DUP8 ADD MLOAD PUSH0 BYTE SWAP1 POP PUSH2 0x906 DUP9 DUP3 DUP6 DUP6 PUSH2 0xAA1 JUMP JUMPDEST SWAP6 POP SWAP6 POP SWAP6 POP POP POP POP PUSH2 0x922 JUMP JUMPDEST PUSH0 PUSH1 0x2 DUP6 MLOAD PUSH0 SHL SWAP3 POP SWAP3 POP SWAP3 POP JUMPDEST SWAP3 POP SWAP3 POP SWAP3 JUMP JUMPDEST PUSH0 DUP1 PUSH0 DUP6 PUSH20 0xFFFFFFFFFFFFFFFFFFFFFFFFFFFFFFFFFFFFFFFF AND DUP6 DUP6 PUSH1 0x40 MLOAD PUSH1 0x24 ADD PUSH2 0x956 SWAP3 SWAP2 SWAP1 PUSH2 0x149C JUMP JUMPDEST PUSH1 0x40 MLOAD PUSH1 0x20 DUP2 DUP4 SUB SUB DUP2 MSTORE SWAP1 PUSH1 0x40 MSTORE PUSH4 0x1626BA7E PUSH1 0xE0 SHL PUSH1 0x20 DUP3 ADD DUP1 MLOAD PUSH28 0xFFFFFFFFFFFFFFFFFFFFFFFFFFFFFFFFFFFFFFFFFFFFFFFFFFFFFFFF DUP4 DUP2 DUP4 AND OR DUP4 MSTORE POP POP POP POP PUSH1 0x40 MLOAD PUSH2 0x9A8 SWAP2 SWAP1 PUSH2 0x1504 JUMP JUMPDEST PUSH0 PUSH1 0x40 MLOAD DUP1 DUP4 SUB DUP2 DUP6 GAS STATICCALL SWAP2 POP POP RETURNDATASIZE DUP1 PUSH0 DUP2 EQ PUSH2 0x9E0 JUMPI PUSH1 0x40 MLOAD SWAP2 POP PUSH1 0x1F NOT PUSH1 0x3F RETURNDATASIZE ADD AND DUP3 ADD PUSH1 0x40 MSTORE RETURNDATASIZE DUP3 MSTORE RETURNDATASIZE PUSH0 PUSH1 0x20 DUP5 ADD RETURNDATACOPY PUSH2 0x9E5 JUMP JUMPDEST PUSH1 0x60 SWAP2 POP JUMPDEST POP SWAP2 POP SWAP2 POP DUP2 DUP1 ISZERO PUSH2 0x9F9 JUMPI POP PUSH1 0x20 DUP2 MLOAD LT ISZERO JUMPDEST DUP1 ISZERO PUSH2 0xA3D JUMPI POP PUSH4 0x1626BA7E PUSH1 0xE0 SHL PUSH28 0xFFFFFFFFFFFFFFFFFFFFFFFFFFFFFFFFFFFFFFFFFFFFFFFFFFFFFFFF NOT AND DUP2 DUP1 PUSH1 0x20 ADD SWAP1 MLOAD DUP2 ADD SWAP1 PUSH2 0xA3B SWAP2 SWAP1 PUSH2 0x1544 JUMP JUMPDEST EQ JUMPDEST SWAP3 POP POP POP SWAP4 SWAP3 POP POP POP JUMP JUMPDEST PUSH1 0x60 DUP2 PUSH0 ADD DUP1 SLOAD DUP1 PUSH1 0x20 MUL PUSH1 0x20 ADD PUSH1 0x40 MLOAD SWAP1 DUP2 ADD PUSH1 0x40 MSTORE DUP1 SWAP3 SWAP2 SWAP1 DUP2 DUP2 MSTORE PUSH1 0x20 ADD DUP3 DUP1 SLOAD DUP1 ISZERO PUSH2 0xA95 JUMPI PUSH1 0x20 MUL DUP3 ADD SWAP2 SWAP1 PUSH0 MSTORE PUSH1 0x20 PUSH0 KECCAK256 SWAP1 JUMPDEST DUP2 SLOAD DUP2 MSTORE PUSH1 0x20 ADD SWAP1 PUSH1 0x1 ADD SWAP1 DUP1 DUP4 GT PUSH2 0xA81 JUMPI JUMPDEST POP POP POP POP POP SWAP1 POP SWAP2 SWAP1 POP JUMP JUMPDEST PUSH0 DUP1 PUSH0 PUSH32 0x7FFFFFFFFFFFFFFFFFFFFFFFFFFFFFFF5D576E7357A4501DDFE92F46681B20A0 DUP5 PUSH0 SHR GT ISZERO PUSH2 0xADD JUMPI PUSH0 PUSH1 0x3 DUP6 SWAP3 POP SWAP3 POP SWAP3 POP PUSH2 0xB7E JUMP JUMPDEST PUSH0 PUSH1 0x1 DUP9 DUP9 DUP9 DUP9 PUSH1 0x40 MLOAD PUSH0 DUP2 MSTORE PUSH1 0x20 ADD PUSH1 0x40 MSTORE PUSH1 0x40 MLOAD PUSH2 0xB00 SWAP5 SWAP4 SWAP3 SWAP2 SWAP1 PUSH2 0x158A JUMP JUMPDEST PUSH1 0x20 PUSH1 0x40 MLOAD PUSH1 0x20 DUP2 SUB SWAP1 DUP1 DUP5 SUB SWAP1 DUP6 GAS STATICCALL ISZERO DUP1 ISZERO PUSH2 0xB20 JUMPI RETURNDATASIZE PUSH0 DUP1 RETURNDATACOPY RETURNDATASIZE PUSH0 REVERT JUMPDEST POP POP POP PUSH1 0x20 PUSH1 0x40 MLOAD SUB MLOAD SWAP1 POP PUSH0 PUSH20 0xFFFFFFFFFFFFFFFFFFFFFFFFFFFFFFFFFFFFFFFF AND DUP2 PUSH20 0xFFFFFFFFFFFFFFFFFFFFFFFFFFFFFFFFFFFFFFFF AND SUB PUSH2 0xB71 JUMPI PUSH0 PUSH1 0x1 PUSH0 DUP1 SHL SWAP4 POP SWAP4 POP SWAP4 POP POP PUSH2 0xB7E JUMP JUMPDEST DUP1 PUSH0 DUP1 PUSH0 SHL SWAP4 POP SWAP4 POP SWAP4 POP POP JUMPDEST SWAP5 POP SWAP5 POP SWAP5 SWAP2 POP POP JUMP JUMPDEST PUSH0 DUP2 SWAP1 POP SWAP2 SWAP1 POP JUMP JUMPDEST PUSH2 0xB9A DUP2 PUSH2 0xB88 JUMP JUMPDEST DUP3 MSTORE POP POP JUMP JUMPDEST PUSH0 PUSH1 0x20 DUP3 ADD SWAP1 POP PUSH2 0xBB3 PUSH0 DUP4 ADD DUP5 PUSH2 0xB91 JUMP JUMPDEST SWAP3 SWAP2 POP POP JUMP JUMPDEST PUSH0 PUSH1 0x40 MLOAD SWAP1 POP SWAP1 JUMP JUMPDEST PUSH0 DUP1 REVERT JUMPDEST PUSH0 DUP1 REVERT JUMPDEST PUSH0 PUSH20 0xFFFFFFFFFFFFFFFFFFFFFFFFFFFFFFFFFFFFFFFF DUP3 AND SWAP1 POP SWAP2 SWAP1 POP JUMP JUMPDEST PUSH0 PUSH2 0xBF3 DUP3 PUSH2 0xBCA JUMP JUMPDEST SWAP1 POP SWAP2 SWAP1 POP JUMP JUMPDEST PUSH2 0xC03 DUP2 PUSH2 0xBE9 JUMP JUMPDEST DUP2 EQ PUSH2 0xC0D JUMPI PUSH0 DUP1 REVERT JUMPDEST POP JUMP JUMPDEST PUSH0 DUP2 CALLDATALOAD SWAP1 POP PUSH2 0xC1E DUP2 PUSH2 0xBFA JUMP JUMPDEST SWAP3 SWAP2 POP POP JUMP JUMPDEST PUSH0 PUSH1 0x20 DUP3 DUP5 SUB SLT ISZERO PUSH2 0xC39 JUMPI PUSH2 0xC38 PUSH2 0xBC2 JUMP JUMPDEST JUMPDEST PUSH0 PUSH2 0xC46 DUP5 DUP3 DUP6 ADD PUSH2 0xC10 JUMP JUMPDEST SWAP2 POP POP SWAP3 SWAP2 POP POP JUMP JUMPDEST PUSH0 PUSH2 0xC59 DUP3 PUSH2 0xBCA JUMP JUMPDEST SWAP1 POP SWAP2 SWAP1 POP JUMP JUMPDEST PUSH2 0xC69 DUP2 PUSH2 0xC4F JUMP JUMPDEST DUP2 EQ PUSH2 0xC73 JUMPI PUSH0 DUP1 REVERT JUMPDEST POP JUMP JUMPDEST PUSH0 DUP2 CALLDATALOAD SWAP1 POP PUSH2 0xC84 DUP2 PUSH2 0xC60 JUMP JUMPDEST SWAP3 SWAP2 POP POP JUMP JUMPDEST PUSH2 0xC93 DUP2 PUSH2 0xB88 JUMP JUMPDEST DUP2 EQ PUSH2 0xC9D JUMPI PUSH0 DUP1 REVERT JUMPDEST POP JUMP JUMPDEST PUSH0 DUP2 CALLDATALOAD SWAP1 POP PUSH2 0xCAE DUP2 PUSH2 0xC8A JUMP JUMPDEST SWAP3 SWAP2 POP POP JUMP JUMPDEST PUSH0 DUP1 REVERT JUMPDEST PUSH0 DUP1 REVERT JUMPDEST PUSH0 PUSH1 0x1F NOT PUSH1 0x1F DUP4 ADD AND SWAP1 POP SWAP2 SWAP1 POP JUMP JUMPDEST PUSH32 0x4E487B7100000000000000000000000000000000000000000000000000000000 PUSH0 MSTORE PUSH1 0x41 PUSH1 0x4 MSTORE PUSH1 0x24 PUSH0 REVERT JUMPDEST PUSH2 0xD02 DUP3 PUSH2 0xCBC JUMP JUMPDEST DUP2 ADD DUP2 DUP2 LT PUSH8 0xFFFFFFFFFFFFFFFF DUP3 GT OR ISZERO PUSH2 0xD21 JUMPI PUSH2 0xD20 PUSH2 0xCCC JUMP JUMPDEST JUMPDEST DUP1 PUSH1 0x40 MSTORE POP POP POP JUMP JUMPDEST PUSH0 PUSH2 0xD33 PUSH2 0xBB9 JUMP JUMPDEST SWAP1 POP PUSH2 0xD3F DUP3 DUP3 PUSH2 0xCF9 JUMP JUMPDEST SWAP2 SWAP1 POP JUMP JUMPDEST PUSH0 PUSH8 0xFFFFFFFFFFFFFFFF DUP3 GT ISZERO PUSH2 0xD5E JUMPI PUSH2 0xD5D PUSH2 0xCCC JUMP JUMPDEST JUMPDEST PUSH2 0xD67 DUP3 PUSH2 0xCBC JUMP JUMPDEST SWAP1 POP PUSH1 0x20 DUP2 ADD SWAP1 POP SWAP2 SWAP1 POP JUMP JUMPDEST DUP3 DUP2 DUP4 CALLDATACOPY PUSH0 DUP4 DUP4 ADD MSTORE POP POP POP JUMP JUMPDEST PUSH0 PUSH2 0xD94 PUSH2 0xD8F DUP5 PUSH2 0xD44 JUMP JUMPDEST PUSH2 0xD2A JUMP JUMPDEST SWAP1 POP DUP3 DUP2 MSTORE PUSH1 0x20 DUP2 ADD DUP5 DUP5 DUP5 ADD GT ISZERO PUSH2 0xDB0 JUMPI PUSH2 0xDAF PUSH2 0xCB8 JUMP JUMPDEST JUMPDEST PUSH2 0xDBB DUP5 DUP3 DUP6 PUSH2 0xD74 JUMP JUMPDEST POP SWAP4 SWAP3 POP POP POP JUMP JUMPDEST PUSH0 DUP3 PUSH1 0x1F DUP4 ADD SLT PUSH2 0xDD7 JUMPI PUSH2 0xDD6 PUSH2 0xCB4 JUMP JUMPDEST JUMPDEST DUP2 CALLDATALOAD PUSH2 0xDE7 DUP5 DUP3 PUSH1 0x20 DUP7 ADD PUSH2 0xD82 JUMP JUMPDEST SWAP2 POP POP SWAP3 SWAP2 POP POP JUMP JUMPDEST PUSH0 DUP1 PUSH0 PUSH1 0x60 DUP5 DUP7 SUB SLT ISZERO PUSH2 0xE07 JUMPI PUSH2 0xE06 PUSH2 0xBC2 JUMP JUMPDEST JUMPDEST PUSH0 PUSH2 0xE14 DUP7 DUP3 DUP8 ADD PUSH2 0xC76 JUMP JUMPDEST SWAP4 POP POP PUSH1 0x20 PUSH2 0xE25 DUP7 DUP3 DUP8 ADD PUSH2 0xCA0 JUMP JUMPDEST SWAP3 POP POP PUSH1 0x40 DUP5 ADD CALLDATALOAD PUSH8 0xFFFFFFFFFFFFFFFF DUP2 GT ISZERO PUSH2 0xE46 JUMPI PUSH2 0xE45 PUSH2 0xBC6 JUMP JUMPDEST JUMPDEST PUSH2 0xE52 DUP7 DUP3 DUP8 ADD PUSH2 0xDC3 JUMP JUMPDEST SWAP2 POP POP SWAP3 POP SWAP3 POP SWAP3 JUMP JUMPDEST PUSH2 0xE65 DUP2 PUSH2 0xBE9 JUMP JUMPDEST DUP3 MSTORE POP POP JUMP JUMPDEST PUSH0 PUSH1 0x20 DUP3 ADD SWAP1 POP PUSH2 0xE7E PUSH0 DUP4 ADD DUP5 PUSH2 0xE5C JUMP JUMPDEST SWAP3 SWAP2 POP POP JUMP JUMPDEST PUSH0 DUP2 MLOAD SWAP1 POP SWAP2 SWAP1 POP JUMP JUMPDEST PUSH0 DUP3 DUP3 MSTORE PUSH1 0x20 DUP3 ADD SWAP1 POP SWAP3 SWAP2 POP POP JUMP JUMPDEST PUSH0 DUP2 SWAP1 POP PUSH1 0x20 DUP3 ADD SWAP1 POP SWAP2 SWAP1 POP JUMP JUMPDEST PUSH2 0xEB6 DUP2 PUSH2 0xBE9 JUMP JUMPDEST DUP3 MSTORE POP POP JUMP JUMPDEST PUSH0 PUSH2 0xEC7 DUP4 DUP4 PUSH2 0xEAD JUMP JUMPDEST PUSH1 0x20 DUP4 ADD SWAP1 POP SWAP3 SWAP2 POP POP JUMP JUMPDEST PUSH0 PUSH1 0x20 DUP3 ADD SWAP1 POP SWAP2 SWAP1 POP JUMP JUMPDEST PUSH0 PUSH2 0xEE9 DUP3 PUSH2 0xE84 JUMP JUMPDEST PUSH2 0xEF3 DUP2 DUP6 PUSH2 0xE8E JUMP JUMPDEST SWAP4 POP PUSH2 0xEFE DUP4 PUSH2 0xE9E JUMP JUMPDEST DUP1 PUSH0 JUMPDEST DUP4 DUP2 LT ISZERO PUSH2 0xF2E JUMPI DUP2 MLOAD PUSH2 0xF15 DUP9 DUP3 PUSH2 0xEBC JUMP JUMPDEST SWAP8 POP PUSH2 0xF20 DUP4 PUSH2 0xED3 JUMP JUMPDEST SWAP3 POP POP PUSH1 0x1 DUP2 ADD SWAP1 POP PUSH2 0xF01 JUMP JUMPDEST POP DUP6 SWAP4 POP POP POP POP SWAP3 SWAP2 POP POP JUMP JUMPDEST PUSH0 PUSH1 0x20 DUP3 ADD SWAP1 POP DUP2 DUP2 SUB PUSH0 DUP4 ADD MSTORE PUSH2 0xF53 DUP2 DUP5 PUSH2 0xEDF JUMP JUMPDEST SWAP1 POP SWAP3 SWAP2 POP POP JUMP JUMPDEST PUSH0 DUP3 DUP3 MSTORE PUSH1 0x20 DUP3 ADD SWAP1 POP SWAP3 SWAP2 POP POP JUMP JUMPDEST PUSH32 0x4E6F742074686520636F6E7472616374206F776E657200000000000000000000 PUSH0 DUP3 ADD MSTORE POP JUMP JUMPDEST PUSH0 PUSH2 0xF9F PUSH1 0x16 DUP4 PUSH2 0xF5B JUMP JUMPDEST SWAP2 POP PUSH2 0xFAA DUP3 PUSH2 0xF6B JUMP JUMPDEST PUSH1 0x20 DUP3 ADD SWAP1 POP SWAP2 SWAP1 POP JUMP JUMPDEST PUSH0 PUSH1 0x20 DUP3 ADD SWAP1 POP DUP2 DUP2 SUB PUSH0 DUP4 ADD MSTORE PUSH2 0xFCC DUP2 PUSH2 0xF93 JUMP JUMPDEST SWAP1 POP SWAP2 SWAP1 POP JUMP JUMPDEST PUSH32 0x4164647265737320616C726561647920617574686F72697A6564000000000000 PUSH0 DUP3 ADD MSTORE POP JUMP JUMPDEST PUSH0 PUSH2 0x1007 PUSH1 0x1A DUP4 PUSH2 0xF5B JUMP JUMPDEST SWAP2 POP PUSH2 0x1012 DUP3 PUSH2 0xFD3 JUMP JUMPDEST PUSH1 0x20 DUP3 ADD SWAP1 POP SWAP2 SWAP1 POP JUMP JUMPDEST PUSH0 PUSH1 0x20 DUP3 ADD SWAP1 POP DUP2 DUP2 SUB PUSH0 DUP4 ADD MSTORE PUSH2 0x1034 DUP2 PUSH2 0xFFB JUMP JUMPDEST SWAP1 POP SWAP2 SWAP1 POP JUMP JUMPDEST PUSH32 0x41646472657373206E6F7420617574686F72697A656400000000000000000000 PUSH0 DUP3 ADD MSTORE POP JUMP JUMPDEST PUSH0 PUSH2 0x106F PUSH1 0x16 DUP4 PUSH2 0xF5B JUMP JUMPDEST SWAP2 POP PUSH2 0x107A DUP3 PUSH2 0x103B JUMP JUMPDEST PUSH1 0x20 DUP3 ADD SWAP1 POP SWAP2 SWAP1 POP JUMP JUMPDEST PUSH0 PUSH1 0x20 DUP3 ADD SWAP1 POP DUP2 DUP2 SUB PUSH0 DUP4 ADD MSTORE PUSH2 0x109C DUP2 PUSH2 0x1063 JUMP JUMPDEST SWAP1 POP SWAP2 SWAP1 POP JUMP JUMPDEST PUSH32 0x41646472657373206973206E6F7420617574686F72697A656400000000000000 PUSH0 DUP3 ADD MSTORE POP JUMP JUMPDEST PUSH0 PUSH2 0x10D7 PUSH1 0x19 DUP4 PUSH2 0xF5B JUMP JUMPDEST SWAP2 POP PUSH2 0x10E2 DUP3 PUSH2 0x10A3 JUMP JUMPDEST PUSH1 0x20 DUP3 ADD SWAP1 POP SWAP2 SWAP1 POP JUMP JUMPDEST PUSH0 PUSH1 0x20 DUP3 ADD SWAP1 POP DUP2 DUP2 SUB PUSH0 DUP4 ADD MSTORE PUSH2 0x1104 DUP2 PUSH2 0x10CB JUMP JUMPDEST SWAP1 POP SWAP2 SWAP1 POP JUMP JUMPDEST PUSH0 DUP2 PUSH1 0x60 SHL SWAP1 POP SWAP2 SWAP1 POP JUMP JUMPDEST PUSH0 PUSH2 0x1121 DUP3 PUSH2 0x110B JUMP JUMPDEST SWAP1 POP SWAP2 SWAP1 POP JUMP JUMPDEST PUSH0 PUSH2 0x1132 DUP3 PUSH2 0x1117 JUMP JUMPDEST SWAP1 POP SWAP2 SWAP1 POP JUMP JUMPDEST PUSH2 0x114A PUSH2 0x1145 DUP3 PUSH2 0xC4F JUMP JUMPDEST PUSH2 0x1128 JUMP JUMPDEST DUP3 MSTORE POP POP JUMP JUMPDEST PUSH0 DUP2 SWAP1 POP SWAP2 SWAP1 POP JUMP JUMPDEST PUSH2 0x116A PUSH2 0x1165 DUP3 PUSH2 0xB88 JUMP JUMPDEST PUSH2 0x1150 JUMP JUMPDEST DUP3 MSTORE POP POP JUMP JUMPDEST PUSH0 PUSH2 0x117A DUP3 PUSH2 0x1117 JUMP JUMPDEST SWAP1 POP SWAP2 SWAP1 POP JUMP JUMPDEST PUSH2 0x1192 PUSH2 0x118D DUP3 PUSH2 0xBE9 JUMP JUMPDEST PUSH2 0x1170 JUMP JUMPDEST DUP3 MSTORE POP POP JUMP JUMPDEST PUSH0 PUSH2 0x11A3 DUP3 DUP7 PUSH2 0x1139 JUMP JUMPDEST PUSH1 0x14 DUP3 ADD SWAP2 POP PUSH2 0x11B3 DUP3 DUP6 PUSH2 0x1159 JUMP JUMPDEST PUSH1 0x20 DUP3 ADD SWAP2 POP PUSH2 0x11C3 DUP3 DUP5 PUSH2 0x1181 JUMP JUMPDEST PUSH1 0x14 DUP3 ADD SWAP2 POP DUP2 SWAP1 POP SWAP5 SWAP4 POP POP POP POP JUMP JUMPDEST PUSH32 0x496E76616C6964207369676E6174757265000000000000000000000000000000 PUSH0 DUP3 ADD MSTORE POP JUMP JUMPDEST PUSH0 PUSH2 0x1208 PUSH1 0x11 DUP4 PUSH2 0xF5B JUMP JUMPDEST SWAP2 POP PUSH2 0x1213 DUP3 PUSH2 0x11D4 JUMP JUMPDEST PUSH1 0x20 DUP3 ADD SWAP1 POP SWAP2 SWAP1 POP JUMP JUMPDEST PUSH0 PUSH1 0x20 DUP3 ADD SWAP1 POP DUP2 DUP2 SUB PUSH0 DUP4 ADD MSTORE PUSH2 0x1235 DUP2 PUSH2 0x11FC JUMP JUMPDEST SWAP1 POP SWAP2 SWAP1 POP JUMP JUMPDEST PUSH32 0x496E73756666696369656E742062616C616E6365000000000000000000000000 PUSH0 DUP3 ADD MSTORE POP JUMP JUMPDEST PUSH0 PUSH2 0x1270 PUSH1 0x14 DUP4 PUSH2 0xF5B JUMP JUMPDEST SWAP2 POP PUSH2 0x127B DUP3 PUSH2 0x123C JUMP JUMPDEST PUSH1 0x20 DUP3 ADD SWAP1 POP SWAP2 SWAP1 POP JUMP JUMPDEST PUSH0 PUSH1 0x20 DUP3 ADD SWAP1 POP DUP2 DUP2 SUB PUSH0 DUP4 ADD MSTORE PUSH2 0x129D DUP2 PUSH2 0x1264 JUMP JUMPDEST SWAP1 POP SWAP2 SWAP1 POP JUMP JUMPDEST PUSH0 DUP2 SWAP1 POP SWAP3 SWAP2 POP POP JUMP JUMPDEST PUSH32 0x19457468657265756D205369676E6564204D6573736167653A0A333200000000 PUSH0 DUP3 ADD MSTORE POP JUMP JUMPDEST PUSH0 PUSH2 0x12E2 PUSH1 0x1C DUP4 PUSH2 0x12A4 JUMP JUMPDEST SWAP2 POP PUSH2 0x12ED DUP3 PUSH2 0x12AE JUMP JUMPDEST PUSH1 0x1C DUP3 ADD SWAP1 POP SWAP2 SWAP1 POP JUMP JUMPDEST PUSH0 DUP2 SWAP1 POP SWAP2 SWAP1 POP JUMP JUMPDEST PUSH0 DUP2 SWAP1 POP SWAP2 SWAP1 POP JUMP JUMPDEST PUSH2 0x131B PUSH2 0x1316 DUP3 PUSH2 0x12F8 JUMP JUMPDEST PUSH2 0x1301 JUMP JUMPDEST DUP3 MSTORE POP POP JUMP JUMPDEST PUSH0 PUSH2 0x132B DUP3 PUSH2 0x12D6 JUMP JUMPDEST SWAP2 POP PUSH2 0x1337 DUP3 DUP5 PUSH2 0x130A JUMP JUMPDEST PUSH1 0x20 DUP3 ADD SWAP2 POP DUP2 SWAP1 POP SWAP3 SWAP2 POP POP JUMP JUMPDEST PUSH32 0x4E487B7100000000000000000000000000000000000000000000000000000000 PUSH0 MSTORE PUSH1 0x21 PUSH1 0x4 MSTORE PUSH1 0x24 PUSH0 REVERT JUMPDEST PUSH32 0x4E487B7100000000000000000000000000000000000000000000000000000000 PUSH0 MSTORE PUSH1 0x11 PUSH1 0x4 MSTORE PUSH1 0x24 PUSH0 REVERT JUMPDEST PUSH0 PUSH2 0x13AA DUP3 PUSH2 0xB88 JUMP JUMPDEST SWAP2 POP PUSH2 0x13B5 DUP4 PUSH2 0xB88 JUMP JUMPDEST SWAP3 POP DUP3 DUP3 SUB SWAP1 POP DUP2 DUP2 GT ISZERO PUSH2 0x13CD JUMPI PUSH2 0x13CC PUSH2 0x1373 JUMP JUMPDEST JUMPDEST SWAP3 SWAP2 POP POP JUMP JUMPDEST PUSH32 0x4E487B7100000000000000000000000000000000000000000000000000000000 PUSH0 MSTORE PUSH1 0x32 PUSH1 0x4 MSTORE PUSH1 0x24 PUSH0 REVERT JUMPDEST PUSH32 0x4E487B7100000000000000000000000000000000000000000000000000000000 PUSH0 MSTORE PUSH1 0x31 PUSH1 0x4 MSTORE PUSH1 0x24 PUSH0 REVERT JUMPDEST PUSH2 0x1436 DUP2 PUSH2 0x12F8 JUMP JUMPDEST DUP3 MSTORE POP POP JUMP JUMPDEST PUSH0 DUP2 MLOAD SWAP1 POP SWAP2 SWAP1 POP JUMP JUMPDEST PUSH0 DUP3 DUP3 MSTORE PUSH1 0x20 DUP3 ADD SWAP1 POP SWAP3 SWAP2 POP POP JUMP JUMPDEST DUP3 DUP2 DUP4 MCOPY PUSH0 DUP4 DUP4 ADD MSTORE POP POP POP JUMP JUMPDEST PUSH0 PUSH2 0x146E DUP3 PUSH2 0x143C JUMP JUMPDEST PUSH2 0x1478 DUP2 DUP6 PUSH2 0x1446 JUMP JUMPDEST SWAP4 POP PUSH2 0x1488 DUP2 DUP6 PUSH1 0x20 DUP7 ADD PUSH2 0x1456 JUMP JUMPDEST PUSH2 0x1491 DUP2 PUSH2 0xCBC JUMP JUMPDEST DUP5 ADD SWAP2 POP POP SWAP3 SWAP2 POP POP JUMP JUMPDEST PUSH0 PUSH1 0x40 DUP3 ADD SWAP1 POP PUSH2 0x14AF PUSH0 DUP4 ADD DUP6 PUSH2 0x142D JUMP JUMPDEST DUP2 DUP2 SUB PUSH1 0x20 DUP4 ADD MSTORE PUSH2 0x14C1 DUP2 DUP5 PUSH2 0x1464 JUMP JUMPDEST SWAP1 POP SWAP4 SWAP3 POP POP POP JUMP JUMPDEST PUSH0 DUP2 SWAP1 POP SWAP3 SWAP2 POP POP JUMP JUMPDEST PUSH0 PUSH2 0x14DE DUP3 PUSH2 0x143C JUMP JUMPDEST PUSH2 0x14E8 DUP2 DUP6 PUSH2 0x14CA JUMP JUMPDEST SWAP4 POP PUSH2 0x14F8 DUP2 DUP6 PUSH1 0x20 DUP7 ADD PUSH2 0x1456 JUMP JUMPDEST DUP1 DUP5 ADD SWAP2 POP POP SWAP3 SWAP2 POP POP JUMP JUMPDEST PUSH0 PUSH2 0x150F DUP3 DUP5 PUSH2 0x14D4 JUMP JUMPDEST SWAP2 POP DUP2 SWAP1 POP SWAP3 SWAP2 POP POP JUMP JUMPDEST PUSH2 0x1523 DUP2 PUSH2 0x12F8 JUMP JUMPDEST DUP2 EQ PUSH2 0x152D JUMPI PUSH0 DUP1 REVERT JUMPDEST POP JUMP JUMPDEST PUSH0 DUP2 MLOAD SWAP1 POP PUSH2 0x153E DUP2 PUSH2 0x151A JUMP JUMPDEST SWAP3 SWAP2 POP POP JUMP JUMPDEST PUSH0 PUSH1 0x20 DUP3 DUP5 SUB SLT ISZERO PUSH2 0x1559 JUMPI PUSH2 0x1558 PUSH2 0xBC2 JUMP JUMPDEST JUMPDEST PUSH0 PUSH2 0x1566 DUP5 DUP3 DUP6 ADD PUSH2 0x1530 JUMP JUMPDEST SWAP2 POP POP SWAP3 SWAP2 POP POP JUMP JUMPDEST PUSH0 PUSH1 0xFF DUP3 AND SWAP1 POP SWAP2 SWAP1 POP JUMP JUMPDEST PUSH2 0x1584 DUP2 PUSH2 0x156F JUMP JUMPDEST DUP3 MSTORE POP POP JUMP JUMPDEST PUSH0 PUSH1 0x80 DUP3 ADD SWAP1 POP PUSH2 0x159D PUSH0 DUP4 ADD DUP8 PUSH2 0x142D JUMP JUMPDEST PUSH2 0x15AA PUSH1 0x20 DUP4 ADD DUP7 PUSH2 0x157B JUMP JUMPDEST PUSH2 0x15B7 PUSH1 0x40 DUP4 ADD DUP6 PUSH2 0x142D JUMP JUMPDEST PUSH2 0x15C4 PUSH1 0x60 DUP4 ADD DUP5 PUSH2 0x142D JUMP JUMPDEST SWAP6 SWAP5 POP POP POP POP POP JUMP INVALID LOG2 PUSH5 0x6970667358 0x22 SLT KECCAK256 REVERT SIGNEXTEND GASLIMIT 0xDE DUP12 SWAP10 XOR RETURN EXTCODESIZE PC ISZERO PUSH7 0x6B87B966428BBD 0xE5 SWAP6 DUP12 DUP5 ORIGIN 0xC5 0x26 0xA9 SWAP2 0xA9 0xBA TLOAD CREATE2 PUSH5 0x736F6C6343 STOP ADDMOD BYTE STOP CALLER "
		},
		"gasEstimates": {
			"creation": {
				"codeDepositCost": "1127000",
				"executionCost": "25437",
				"totalCost": "1152437"
			},
			"external": {
				"addAddress(address)": "infinite",
				"getAddresses()": "infinite",
				"owner()": "2549",
				"removeAddress(address)": "infinite",
				"sendCoins(address,uint256,bytes)": "infinite"
			},
			"internal": {
				"prefixed(bytes32)": "infinite"
			}
		},
		"methodIdentifiers": {
			"addAddress(address)": "38eada1c",
			"getAddresses()": "a39fac12",
			"owner()": "8da5cb5b",
			"removeAddress(address)": "4ba79dfe",
			"sendCoins(address,uint256,bytes)": "710ba507"
		}
	},
	"abi": [
		{
			"inputs": [],
			"stateMutability": "nonpayable",
			"type": "constructor"
		},
		{
			"anonymous": false,
			"inputs": [
				{
					"indexed": true,
					"internalType": "address",
					"name": "authorizedAddress",
					"type": "address"
				}
			],
			"name": "AddressAdded",
			"type": "event"
		},
		{
			"anonymous": false,
			"inputs": [
				{
					"indexed": true,
					"internalType": "address",
					"name": "authorizedAddress",
					"type": "address"
				}
			],
			"name": "AddressRemoved",
			"type": "event"
		},
		{
			"anonymous": false,
			"inputs": [
				{
					"indexed": true,
					"internalType": "address",
					"name": "from",
					"type": "address"
				},
				{
					"indexed": false,
					"internalType": "uint256",
					"name": "amount",
					"type": "uint256"
				}
			],
			"name": "CoinsReceived",
			"type": "event"
		},
		{
			"anonymous": false,
			"inputs": [
				{
					"indexed": true,
					"internalType": "address",
					"name": "to",
					"type": "address"
				},
				{
					"indexed": false,
					"internalType": "uint256",
					"name": "amount",
					"type": "uint256"
				}
			],
			"name": "CoinsSent",
			"type": "event"
		},
		{
			"inputs": [
				{
					"internalType": "address",
					"name": "_address",
					"type": "address"
				}
			],
			"name": "addAddress",
			"outputs": [],
			"stateMutability": "nonpayable",
			"type": "function"
		},
		{
			"inputs": [],
			"name": "getAddresses",
			"outputs": [
				{
					"internalType": "address[]",
					"name": "",
					"type": "address[]"
				}
			],
			"stateMutability": "view",
			"type": "function"
		},
		{
			"inputs": [],
			"name": "owner",
			"outputs": [
				{
					"internalType": "address",
					"name": "",
					"type": "address"
				}
			],
			"stateMutability": "view",
			"type": "function"
		},
		{
			"inputs": [
				{
					"internalType": "address",
					"name": "_address",
					"type": "address"
				}
			],
			"name": "removeAddress",
			"outputs": [],
			"stateMutability": "nonpayable",
			"type": "function"
		},
		{
			"inputs": [
				{
					"internalType": "address payable",
					"name": "_to",
					"type": "address"
				},
				{
					"internalType": "uint256",
					"name": "_amount",
					"type": "uint256"
				},
				{
					"internalType": "bytes",
					"name": "_signature",
					"type": "bytes"
				}
			],
			"name": "sendCoins",
			"outputs": [],
			"stateMutability": "nonpayable",
			"type": "function"
		},
		{
			"stateMutability": "payable",
			"type": "receive"
		}
	]
}